{
  "_format": "hh-sol-artifact-1",
  "contractName": "Bridge",
  "sourceName": "contracts/Bridge.sol",
  "abi": [
    {
      "inputs": [
        {
          "internalType": "address",
          "name": "blockParser",
          "type": "address"
        },
        {
          "internalType": "address",
          "name": "transactionParser",
          "type": "address"
        },
        {
          "internalType": "address",
          "name": "treeOfCellsParser",
          "type": "address"
        },
        {
          "internalType": "address",
          "name": "validatorAddr",
          "type": "address"
        }
      ],
      "stateMutability": "nonpayable",
      "type": "constructor"
    },
    {
      "stateMutability": "payable",
      "type": "fallback"
    },
    {
      "inputs": [
        {
          "internalType": "bytes",
          "name": "txBoc",
          "type": "bytes"
        },
        {
          "internalType": "bytes",
          "name": "blockBoc",
          "type": "bytes"
        },
        {
          "internalType": "address",
          "name": "adapterAddr",
          "type": "address"
        }
      ],
      "name": "readTransaction",
      "outputs": [],
      "stateMutability": "nonpayable",
      "type": "function"
    },
    {
      "stateMutability": "payable",
      "type": "receive"
    }
  ],
  "bytecode": "0x60806040523480156200001157600080fd5b50604051620014bf380380620014bf8339810160408190526200003491620000a5565b600080546001600160a01b039586166001600160a01b031991821617909155600180549486169482169490941790935560028054928516928416929092179091556003805491909316911617905562000102565b80516001600160a01b0381168114620000a057600080fd5b919050565b60008060008060808587031215620000bc57600080fd5b620000c78562000088565b9350620000d76020860162000088565b9250620000e76040860162000088565b9150620000f76060860162000088565b905092959194509250565b6113ad80620001126000396000f3fe60806040526004361061001f5760003560e01c80630a9ab1ae1461002857005b3661002657005b005b34801561003457600080fd5b506100266100433660046106ae565b6002546040517fa62f193800000000000000000000000000000000000000000000000000000000815260009173ffffffffffffffffffffffffffffffffffffffff169063a62f19389061009c9089908990600401610794565b61020060405180830381865afa1580156100ba573d6000803e3d6000fd5b505050506040513d601f19601f820116820180604052508101906100de9190610947565b6002546040517fa62f193800000000000000000000000000000000000000000000000000000000815291925060009173ffffffffffffffffffffffffffffffffffffffff9091169063a62f19389061013c9088908890600401610794565b61020060405180830381865afa15801561015a573d6000803e3d6000fd5b505050506040513d601f19601f8201168201806040525081019061017e9190610947565b6002546040517f80e912a200000000000000000000000000000000000000000000000000000000815291925060009173ffffffffffffffffffffffffffffffffffffffff909116906380e912a2906101de908b908b908890600401610b0d565b61d48060405180830381865afa1580156101fc573d6000803e3d6000fd5b505050506040513d601f19601f820116820180604052508101906102209190610bfd565b6002546040517f80e912a200000000000000000000000000000000000000000000000000000000815291925060009173ffffffffffffffffffffffffffffffffffffffff909116906380e912a290610280908a908a908890600401610b0d565b61d48060405180830381865afa15801561029e573d6000803e3d6000fd5b505050506040513d601f19601f820116820180604052508101906102c29190610bfd565b6003546101e085015191925073ffffffffffffffffffffffffffffffffffffffff1690632a9028b5908390606481106102fd576102fd610cfb565b602002015160800151516040517fffffffff0000000000000000000000000000000000000000000000000000000060e084901b1681526004810191909152602401602060405180830381865afa15801561035b573d6000803e3d6000fd5b505050506040513d601f19601f8201168201806040525081019061037f9190610d2a565b6103ea576040517f08c379a000000000000000000000000000000000000000000000000000000000815260206004820152600d60248201527f696e76616c696420626c6f636b0000000000000000000000000000000000000060448201526064015b60405180910390fd5b6001546101e08501516040517f1e7b8da300000000000000000000000000000000000000000000000000000000815260009273ffffffffffffffffffffffffffffffffffffffff1691631e7b8da39161044b918e918e918991600401610e6f565b610cc060405180830381865afa158015610469573d6000803e3d6000fd5b505050506040513d601f19601f8201168201806040525081019061048d919061108e565b905060008060009054906101000a900473ffffffffffffffffffffffffffffffffffffffff1673ffffffffffffffffffffffffffffffffffffffff1663491d90b18a8a8887898c6101e00151606481106104e9576104e9610cfb565b602002015160800151516040517fffffffff0000000000000000000000000000000000000000000000000000000060e088901b1681526105329594939291908a9060040161128b565b602060405180830381865afa15801561054f573d6000803e3d6000fd5b505050506040513d601f19601f820116820180604052508101906105739190610d2a565b9050806105dc576040517f08c379a000000000000000000000000000000000000000000000000000000000815260206004820152601b60248201527f57726f6e6720626c6f636b20666f72207472616e73616374696f6e000000000060448201526064016103e1565b60008790508073ffffffffffffffffffffffffffffffffffffffff16636ccf74718d8d888b6101e001516040518563ffffffff1660e01b81526004016106259493929190610e6f565b600060405180830381600087803b15801561063f57600080fd5b505af1158015610653573d6000803e3d6000fd5b50505050505050505050505050505050565b60008083601f84011261067757600080fd5b50813567ffffffffffffffff81111561068f57600080fd5b6020830191508360208285010111156106a757600080fd5b9250929050565b6000806000806000606086880312156106c657600080fd5b853567ffffffffffffffff808211156106de57600080fd5b6106ea89838a01610665565b9097509550602088013591508082111561070357600080fd5b5061071088828901610665565b909450925050604086013573ffffffffffffffffffffffffffffffffffffffff8116811461073d57600080fd5b809150509295509295909350565b8183528181602085013750600060208284010152600060207fffffffffffffffffffffffffffffffffffffffffffffffffffffffffffffffe0601f840116840101905092915050565b6020815260006107a860208301848661074b565b949350505050565b7f4e487b7100000000000000000000000000000000000000000000000000000000600052604160045260246000fd5b604051610200810167ffffffffffffffff81118282101715610803576108036107b0565b60405290565b604051610100810167ffffffffffffffff81118282101715610803576108036107b0565b6040805190810167ffffffffffffffff81118282101715610803576108036107b0565b604051610180810167ffffffffffffffff81118282101715610803576108036107b0565b6040516080810167ffffffffffffffff81118282101715610803576108036107b0565b604051610160810167ffffffffffffffff81118282101715610803576108036107b0565b604051610c80810167ffffffffffffffff81118282101715610803576108036107b0565b60405160a0810167ffffffffffffffff81118282101715610803576108036107b0565b80517fffffffff000000000000000000000000000000000000000000000000000000008116811461093257600080fd5b919050565b8051801515811461093257600080fd5b6000610200828403121561095a57600080fd5b6109626107df565b61096b83610902565b81526020830151602082015260408301516040820152606083015160608201526080830151608082015260a083015160a08201526109ab60c08401610937565b60c08201526109bc60e08401610937565b60e08201526101006109cf818501610937565b908201526101206109e1848201610937565b908201526101408381015190820152610160808401519082015261018080840151908201526101a080840151908201526101c080840151908201526101e0928301519281019290925250919050565b80517fffffffff000000000000000000000000000000000000000000000000000000001682526020810151602083015260408101516040830152606081015160608301526080810151608083015260a081015160a083015260c0810151610a9b60c084018215159052565b5060e0810151610aaf60e084018215159052565b5061010081810151151590830152610120808201511515908301526101408082015190830152610160808201519083015261018080820151908301526101a080820151908301526101c080820151908301526101e090810151910152565b6000610220808352610b22818401868861074b565b9150506107a86020830184610a30565b600082601f830112610b4357600080fd5b610b4b610874565b806080840185811115610b5d57600080fd5b845b81811015610b77578051845260209384019301610b5f565b509095945050505050565b805160ff8116811461093257600080fd5b805163ffffffff8116811461093257600080fd5b600082601f830112610bb857600080fd5b610bc0610874565b806080840185811115610bd257600080fd5b845b81811015610b7757805161ffff81168114610bef5760008081fd5b845260209384019301610bd4565b600061d480808385031215610c1157600080fd5b83601f840112610c2057600080fd5b610c286108bb565b908301908085831115610c3a57600080fd5b845b83811015610cf1576102208188031215610c565760008081fd5b610c5e610809565b610c6782610937565b81526020610c7789828501610b32565b8183015260a080840151604084015260c0610c93818601610b82565b606085015260e0610ca68c828801610b32565b6080860152610cb86101608701610b93565b83860152610cca8c6101808801610ba7565b82860152610cdb6102008701610b82565b9085015250509084529092019161022001610c3c565b5095945050505050565b7f4e487b7100000000000000000000000000000000000000000000000000000000600052603260045260246000fd5b600060208284031215610d3c57600080fd5b610d4582610937565b9392505050565b8060005b6004811015610d6f578151845260209384019390910190600101610d50565b50505050565b8060005b6004811015610d6f57815161ffff16845260209384019390910190600101610d79565b806000805b6064811015610e68578251805115158652602080820151818801855b6004811015610dda57825182529183019190830190600101610dbd565b505050604082015160a081818a01526060840151915060c0610e00818b018460ff169052565b6080850151925060e0610e15818c0185610d4c565b8286015163ffffffff166101608c0152818601519350610e396101808c0185610d75565b949094015160ff81166102008b01529350610e52915050565b6102209690960195939093019250600101610da1565b5050505050565b600061d4c0808352610e84818401878961074b565b915050610e946020830185610d9c565b8261d4a083015295945050505050565b805167ffffffffffffffff8116811461093257600080fd5b600060408284031215610ece57600080fd5b610ed661082d565b905081518152610ee860208301610b82565b602082015292915050565b60008183036101e0811215610f0757600080fd5b610f0f61082d565b91506101c080821215610f2157600080fd5b610f29610850565b915083518252610f3b60208501610937565b6020830152610f4c60408501610937565b6040830152610f5d60608501610937565b6060830152610f6f8560808601610ebc565b6080830152610f818560c08601610ebc565b60a08301526101008085015160c08401526101208086015160e08501526101408087015183860152610160925082870151828601526101808701518186015250506101a08501518184015250818352808401516020840152505092915050565b6000610b80808385031215610ff557600080fd5b610ffd610874565b915061100883610937565b82526020611017818501610937565b818401526110288560408601610ef3565b60408401528461023f85011261103d57600080fd5b6110456108df565b91840191808684111561105757600080fd5b61022086015b8481101561107e5761106f8882610ef3565b8352918301916101e00161105d565b5060608501525091949350505050565b6000610cc082840312156110a157600080fd5b6110a9610897565b6110b283610b82565b8152602083015160208201526110ca60408401610ea4565b6040820152606083015160608201526110e560808401610ea4565b60808201526110f660a08401610b93565b60a082015261110760c08401610b93565b60c082015261111860e08401610b82565b60e082015261010061112b818501610b82565b90820152610120838101519082015261014061114985828601610fe1565b908201529392505050565b805180518352602081015161116d602085018215159052565b506040810151611181604085018215159052565b506060810151611195606085018215159052565b5060808101516111b560808501828051825260209081015160ff16910152565b5060a0810151805160c0850152602081015160ff1660e08501525060c08101516101008481019190915260e082015161012080860191909152908201516101408086019190915290820151610160808601919091529082015161018085015201516101a0830152602001516101c090910152565b805115158252602080820151151581840152604082015161124d6040850182611154565b506060820151610220840160005b60058110156112835761126f828451611154565b918301916101e0919091019060010161125b565b505050505050565b600061e3808083526112a0818401898b61074b565b9150506112b06020830187610a30565b6112be610220830186610d9c565b8361d6a08301526112d661d6c08301845160ff169052565b602083015161d6e0830152604083015167ffffffffffffffff90811661d700840152606084015161d72084015260808401511661d74083015260a083015163ffffffff90811661d76084015260c08401511661d78083015260e083015160ff90811661d7a08401526101008401511661d7c083015261012083015161d7e083015261014083015161136b61d800840182611229565b5097965050505050505056fea2646970667358221220b1ed4b10ea2b04c2280504f24e1a9a48809167224dae31fb9a0888d676f1a88964736f6c634300080f0033",
  "linkReferences": {},
  "deployedLinkReferences": {}
}