{
  "_format": "hh-sol-artifact-1",
  "contractName": "Bridge",
  "sourceName": "contracts/Bridge.sol",
  "abi": [
    {
      "inputs": [
        {
          "internalType": "address",
          "name": "blockParser",
          "type": "address"
        },
        {
          "internalType": "address",
          "name": "transactionParser",
          "type": "address"
        },
        {
          "internalType": "address",
          "name": "treeOfCellsParser",
          "type": "address"
        },
        {
          "internalType": "address",
          "name": "validatorAddr",
          "type": "address"
        }
      ],
      "stateMutability": "nonpayable",
      "type": "constructor"
    },
    {
      "stateMutability": "payable",
      "type": "fallback"
    },
    {
      "inputs": [
        {
          "internalType": "bytes",
          "name": "txBoc",
          "type": "bytes"
        },
        {
          "internalType": "bytes",
          "name": "blockBoc",
          "type": "bytes"
        },
        {
          "internalType": "address",
          "name": "adapterAddr",
          "type": "address"
        },
        {
          "internalType": "uint256",
          "name": "opcode",
          "type": "uint256"
        }
      ],
      "name": "readTransaction",
      "outputs": [],
      "stateMutability": "nonpayable",
      "type": "function"
    },
    {
      "inputs": [
        {
          "internalType": "uint256",
          "name": "to",
          "type": "uint256"
        },
        {
          "internalType": "address",
          "name": "adapterAddr",
          "type": "address"
        }
      ],
      "name": "swapETH",
      "outputs": [],
      "stateMutability": "payable",
      "type": "function"
    },
    {
      "inputs": [
        {
          "internalType": "address",
          "name": "from",
          "type": "address"
        },
        {
          "internalType": "uint256",
          "name": "amount",
          "type": "uint256"
        },
        {
          "internalType": "uint256",
          "name": "to",
          "type": "uint256"
        },
        {
          "internalType": "address",
          "name": "adapterAddr",
          "type": "address"
        }
      ],
      "name": "swapToken",
      "outputs": [],
      "stateMutability": "nonpayable",
      "type": "function"
    },
    {
      "stateMutability": "payable",
      "type": "receive"
    }
  ],
  "bytecode": "0x60806040523480156200001157600080fd5b50604051620016f0380380620016f08339810160408190526200003491620000a5565b600080546001600160a01b039586166001600160a01b031991821617909155600180549486169482169490941790935560028054928516928416929092179091556003805491909316911617905562000102565b80516001600160a01b0381168114620000a057600080fd5b919050565b60008060008060808587031215620000bc57600080fd5b620000c78562000088565b9350620000d76020860162000088565b9250620000e76040860162000088565b9150620000f76060860162000088565b905092959194509250565b6115de80620001126000396000f3fe6080604052600436106100355760003560e01c80632f583bf81461003e5780635a7061971461005e578063d9fcea4e1461007e57005b3661003c57005b005b34801561004a57600080fd5b5061003c61005936600461084a565b610091565b34801561006a57600080fd5b5061003c6100793660046108d3565b6106b6565b61003c61008c366004610919565b61074f565b6002546040517fa62f193800000000000000000000000000000000000000000000000000000000815260009173ffffffffffffffffffffffffffffffffffffffff169063a62f1938906100ea908a908a9060040161098e565b61020060405180830381865afa158015610108573d6000803e3d6000fd5b505050506040513d601f19601f8201168201806040525081019061012c9190610b3c565b6002546040517fa62f193800000000000000000000000000000000000000000000000000000000815291925060009173ffffffffffffffffffffffffffffffffffffffff9091169063a62f19389061018a908990899060040161098e565b61020060405180830381865afa1580156101a8573d6000803e3d6000fd5b505050506040513d601f19601f820116820180604052508101906101cc9190610b3c565b6002546040517f80e912a200000000000000000000000000000000000000000000000000000000815291925060009173ffffffffffffffffffffffffffffffffffffffff909116906380e912a29061022c908c908c908890600401610d02565b61d48060405180830381865afa15801561024a573d6000803e3d6000fd5b505050506040513d601f19601f8201168201806040525081019061026e9190610df2565b6002546040517f80e912a200000000000000000000000000000000000000000000000000000000815291925060009173ffffffffffffffffffffffffffffffffffffffff909116906380e912a2906102ce908b908b908890600401610d02565b61d48060405180830381865afa1580156102ec573d6000803e3d6000fd5b505050506040513d601f19601f820116820180604052508101906103109190610df2565b6003546101e085015191925073ffffffffffffffffffffffffffffffffffffffff1690632a9028b59083906064811061034b5761034b610ef0565b602002015160800151516040517fffffffff0000000000000000000000000000000000000000000000000000000060e084901b1681526004810191909152602401602060405180830381865afa1580156103a9573d6000803e3d6000fd5b505050506040513d601f19601f820116820180604052508101906103cd9190610f1f565b610438576040517f08c379a000000000000000000000000000000000000000000000000000000000815260206004820152600d60248201527f696e76616c696420626c6f636b0000000000000000000000000000000000000060448201526064015b60405180910390fd5b6001546101e08501516040517f1e7b8da300000000000000000000000000000000000000000000000000000000815260009273ffffffffffffffffffffffffffffffffffffffff1691631e7b8da391610499918f918f918991600401611064565b610cc060405180830381865afa1580156104b7573d6000803e3d6000fd5b505050506040513d601f19601f820116820180604052508101906104db9190611283565b905060008060009054906101000a900473ffffffffffffffffffffffffffffffffffffffff1673ffffffffffffffffffffffffffffffffffffffff1663491d90b18b8b8887898c6101e001516064811061053757610537610ef0565b602002015160800151516040517fffffffff0000000000000000000000000000000000000000000000000000000060e088901b1681526105809594939291908a90600401611480565b602060405180830381865afa15801561059d573d6000803e3d6000fd5b505050506040513d601f19601f820116820180604052508101906105c19190610f1f565b90508061062a576040517f08c379a000000000000000000000000000000000000000000000000000000000815260206004820152601b60248201527f57726f6e6720626c6f636b20666f72207472616e73616374696f6e0000000000604482015260640161042f565b60008890508073ffffffffffffffffffffffffffffffffffffffff1663650b55668e8e8b898c6101e001516040518663ffffffff1660e01b815260040161067595949392919061156c565b600060405180830381600087803b15801561068f57600080fd5b505af11580156106a3573d6000803e3d6000fd5b5050505050505050505050505050505050565b6040517f72618aac00000000000000000000000000000000000000000000000000000000815273ffffffffffffffffffffffffffffffffffffffff858116600483015260248201859052604482018490528291908216906372618aac90606401600060405180830381600087803b15801561073057600080fd5b505af1158015610744573d6000803e3d6000fd5b505050505050505050565b6040517fefc354eb00000000000000000000000000000000000000000000000000000000815260048101839052819073ffffffffffffffffffffffffffffffffffffffff82169063efc354eb9034906024016000604051808303818588803b1580156107ba57600080fd5b505af11580156107ce573d6000803e3d6000fd5b5050505050505050565b60008083601f8401126107ea57600080fd5b50813567ffffffffffffffff81111561080257600080fd5b60208301915083602082850101111561081a57600080fd5b9250929050565b803573ffffffffffffffffffffffffffffffffffffffff8116811461084557600080fd5b919050565b6000806000806000806080878903121561086357600080fd5b863567ffffffffffffffff8082111561087b57600080fd5b6108878a838b016107d8565b909850965060208901359150808211156108a057600080fd5b506108ad89828a016107d8565b90955093506108c0905060408801610821565b9150606087013590509295509295509295565b600080600080608085870312156108e957600080fd5b6108f285610821565b9350602085013592506040850135915061090e60608601610821565b905092959194509250565b6000806040838503121561092c57600080fd5b8235915061093c60208401610821565b90509250929050565b8183528181602085013750600060208284010152600060207fffffffffffffffffffffffffffffffffffffffffffffffffffffffffffffffe0601f840116840101905092915050565b6020815260006109a2602083018486610945565b949350505050565b7f4e487b7100000000000000000000000000000000000000000000000000000000600052604160045260246000fd5b604051610200810167ffffffffffffffff811182821017156109fd576109fd6109aa565b60405290565b604051610100810167ffffffffffffffff811182821017156109fd576109fd6109aa565b6040805190810167ffffffffffffffff811182821017156109fd576109fd6109aa565b604051610180810167ffffffffffffffff811182821017156109fd576109fd6109aa565b6040516080810167ffffffffffffffff811182821017156109fd576109fd6109aa565b604051610160810167ffffffffffffffff811182821017156109fd576109fd6109aa565b604051610c80810167ffffffffffffffff811182821017156109fd576109fd6109aa565b60405160a0810167ffffffffffffffff811182821017156109fd576109fd6109aa565b80517fffffffff000000000000000000000000000000000000000000000000000000008116811461084557600080fd5b8051801515811461084557600080fd5b60006102008284031215610b4f57600080fd5b610b576109d9565b610b6083610afc565b81526020830151602082015260408301516040820152606083015160608201526080830151608082015260a083015160a0820152610ba060c08401610b2c565b60c0820152610bb160e08401610b2c565b60e0820152610100610bc4818501610b2c565b90820152610120610bd6848201610b2c565b908201526101408381015190820152610160808401519082015261018080840151908201526101a080840151908201526101c080840151908201526101e0928301519281019290925250919050565b80517fffffffff000000000000000000000000000000000000000000000000000000001682526020810151602083015260408101516040830152606081015160608301526080810151608083015260a081015160a083015260c0810151610c9060c084018215159052565b5060e0810151610ca460e084018215159052565b5061010081810151151590830152610120808201511515908301526101408082015190830152610160808201519083015261018080820151908301526101a080820151908301526101c080820151908301526101e090810151910152565b6000610220808352610d178184018688610945565b9150506109a26020830184610c25565b600082601f830112610d3857600080fd5b610d40610a6e565b806080840185811115610d5257600080fd5b845b81811015610d6c578051845260209384019301610d54565b509095945050505050565b805160ff8116811461084557600080fd5b805163ffffffff8116811461084557600080fd5b600082601f830112610dad57600080fd5b610db5610a6e565b806080840185811115610dc757600080fd5b845b81811015610d6c57805161ffff81168114610de45760008081fd5b845260209384019301610dc9565b600061d480808385031215610e0657600080fd5b83601f840112610e1557600080fd5b610e1d610ab5565b908301908085831115610e2f57600080fd5b845b83811015610ee6576102208188031215610e4b5760008081fd5b610e53610a03565b610e5c82610b2c565b81526020610e6c89828501610d27565b8183015260a080840151604084015260c0610e88818601610d77565b606085015260e0610e9b8c828801610d27565b6080860152610ead6101608701610d88565b83860152610ebf8c6101808801610d9c565b82860152610ed06102008701610d77565b9085015250509084529092019161022001610e31565b5095945050505050565b7f4e487b7100000000000000000000000000000000000000000000000000000000600052603260045260246000fd5b600060208284031215610f3157600080fd5b610f3a82610b2c565b9392505050565b8060005b6004811015610f64578151845260209384019390910190600101610f45565b50505050565b8060005b6004811015610f6457815161ffff16845260209384019390910190600101610f6e565b806000805b606481101561105d578251805115158652602080820151818801855b6004811015610fcf57825182529183019190830190600101610fb2565b505050604082015160a081818a01526060840151915060c0610ff5818b018460ff169052565b6080850151925060e061100a818c0185610f41565b8286015163ffffffff166101608c015281860151935061102e6101808c0185610f6a565b949094015160ff81166102008b01529350611047915050565b6102209690960195939093019250600101610f96565b5050505050565b600061d4c08083526110798184018789610945565b9150506110896020830185610f91565b8261d4a083015295945050505050565b805167ffffffffffffffff8116811461084557600080fd5b6000604082840312156110c357600080fd5b6110cb610a27565b9050815181526110dd60208301610d77565b602082015292915050565b60008183036101e08112156110fc57600080fd5b611104610a27565b91506101c08082121561111657600080fd5b61111e610a4a565b91508351825261113060208501610b2c565b602083015261114160408501610b2c565b604083015261115260608501610b2c565b606083015261116485608086016110b1565b60808301526111768560c086016110b1565b60a08301526101008085015160c08401526101208086015160e08501526101408087015183860152610160925082870151828601526101808701518186015250506101a08501518184015250818352808401516020840152505092915050565b6000610b808083850312156111ea57600080fd5b6111f2610a6e565b91506111fd83610b2c565b8252602061120c818501610b2c565b8184015261121d85604086016110e8565b60408401528461023f85011261123257600080fd5b61123a610ad9565b91840191808684111561124c57600080fd5b61022086015b848110156112735761126488826110e8565b8352918301916101e001611252565b5060608501525091949350505050565b6000610cc0828403121561129657600080fd5b61129e610a91565b6112a783610d77565b8152602083015160208201526112bf60408401611099565b6040820152606083015160608201526112da60808401611099565b60808201526112eb60a08401610d88565b60a08201526112fc60c08401610d88565b60c082015261130d60e08401610d77565b60e0820152610100611320818501610d77565b90820152610120838101519082015261014061133e858286016111d6565b908201529392505050565b8051805183526020810151611362602085018215159052565b506040810151611376604085018215159052565b50606081015161138a606085018215159052565b5060808101516113aa60808501828051825260209081015160ff16910152565b5060a0810151805160c0850152602081015160ff1660e08501525060c08101516101008481019190915260e082015161012080860191909152908201516101408086019190915290820151610160808601919091529082015161018085015201516101a0830152602001516101c090910152565b80511515825260208082015115158184015260408201516114426040850182611349565b506060820151610220840160005b600581101561147857611464828451611349565b918301916101e09190910190600101611450565b505050505050565b600061e380808352611495818401898b610945565b9150506114a56020830187610c25565b6114b3610220830186610f91565b8361d6a08301526114cb61d6c08301845160ff169052565b602083015161d6e0830152604083015167ffffffffffffffff90811661d700840152606084015161d72084015260808401511661d74083015260a083015163ffffffff90811661d76084015260c08401511661d78083015260e083015160ff90811661d7a08401526101008401511661d7c083015261012083015161d7e083015261014083015161156061d80084018261141e565b50979650505050505050565b600061d4e0808352611581818401888a610945565b9150508460208301526115976040830185610f91565b8261d4c0830152969550505050505056fea2646970667358221220a4773f83dedf74c0a2186d77c026ef4e066e602f601a0d40304e502dc85120c864736f6c634300080f0033",
  "linkReferences": {},
  "deployedLinkReferences": {}
}