{
  "_format": "hh-sol-artifact-1",
  "contractName": "Bridge",
  "sourceName": "contracts/Bridge.sol",
  "abi": [
    {
      "inputs": [
        {
          "internalType": "address",
          "name": "blockParser",
          "type": "address"
        },
        {
          "internalType": "address",
          "name": "transactionParser",
          "type": "address"
        },
        {
          "internalType": "address",
          "name": "treeOfCellsParser",
          "type": "address"
        },
        {
          "internalType": "address",
          "name": "validatorAddr",
          "type": "address"
        }
      ],
      "stateMutability": "nonpayable",
      "type": "constructor"
    },
    {
      "inputs": [
        {
          "internalType": "bytes",
          "name": "txBoc",
          "type": "bytes"
        },
        {
          "internalType": "bytes",
          "name": "blockBoc",
          "type": "bytes"
        },
        {
          "internalType": "address",
          "name": "adapterAddr",
          "type": "address"
        }
      ],
      "name": "readTransaction",
      "outputs": [],
      "stateMutability": "nonpayable",
      "type": "function"
    }
  ],
  "bytecode": "0x60806040523480156200001157600080fd5b50604051620014c1380380620014c18339810160408190526200003491620000a5565b600080546001600160a01b039586166001600160a01b031991821617909155600180549486169482169490941790935560028054928516928416929092179091556003805491909316911617905562000102565b80516001600160a01b0381168114620000a057600080fd5b919050565b60008060008060808587031215620000bc57600080fd5b620000c78562000088565b9350620000d76020860162000088565b9250620000e76040860162000088565b9150620000f76060860162000088565b905092959194509250565b6113af80620001126000396000f3fe608060405234801561001057600080fd5b506004361061002b5760003560e01c80630a9ab1ae14610030575b600080fd5b61004361003e3660046106b0565b610045565b005b6002546040517fa62f193800000000000000000000000000000000000000000000000000000000815260009173ffffffffffffffffffffffffffffffffffffffff169063a62f19389061009e9089908990600401610796565b61020060405180830381865afa1580156100bc573d6000803e3d6000fd5b505050506040513d601f19601f820116820180604052508101906100e09190610949565b6002546040517fa62f193800000000000000000000000000000000000000000000000000000000815291925060009173ffffffffffffffffffffffffffffffffffffffff9091169063a62f19389061013e9088908890600401610796565b61020060405180830381865afa15801561015c573d6000803e3d6000fd5b505050506040513d601f19601f820116820180604052508101906101809190610949565b6002546040517f80e912a200000000000000000000000000000000000000000000000000000000815291925060009173ffffffffffffffffffffffffffffffffffffffff909116906380e912a2906101e0908b908b908890600401610b0f565b61d48060405180830381865afa1580156101fe573d6000803e3d6000fd5b505050506040513d601f19601f820116820180604052508101906102229190610bff565b6002546040517f80e912a200000000000000000000000000000000000000000000000000000000815291925060009173ffffffffffffffffffffffffffffffffffffffff909116906380e912a290610282908a908a908890600401610b0f565b61d48060405180830381865afa1580156102a0573d6000803e3d6000fd5b505050506040513d601f19601f820116820180604052508101906102c49190610bff565b6003546101e085015191925073ffffffffffffffffffffffffffffffffffffffff1690632a9028b5908390606481106102ff576102ff610cfd565b602002015160800151516040517fffffffff0000000000000000000000000000000000000000000000000000000060e084901b1681526004810191909152602401602060405180830381865afa15801561035d573d6000803e3d6000fd5b505050506040513d601f19601f820116820180604052508101906103819190610d2c565b6103ec576040517f08c379a000000000000000000000000000000000000000000000000000000000815260206004820152600d60248201527f696e76616c696420626c6f636b0000000000000000000000000000000000000060448201526064015b60405180910390fd5b6001546101e08501516040517f1e7b8da300000000000000000000000000000000000000000000000000000000815260009273ffffffffffffffffffffffffffffffffffffffff1691631e7b8da39161044d918e918e918991600401610e71565b610cc060405180830381865afa15801561046b573d6000803e3d6000fd5b505050506040513d601f19601f8201168201806040525081019061048f9190611090565b905060008060009054906101000a900473ffffffffffffffffffffffffffffffffffffffff1673ffffffffffffffffffffffffffffffffffffffff1663491d90b18a8a8887898c6101e00151606481106104eb576104eb610cfd565b602002015160800151516040517fffffffff0000000000000000000000000000000000000000000000000000000060e088901b1681526105349594939291908a9060040161128d565b602060405180830381865afa158015610551573d6000803e3d6000fd5b505050506040513d601f19601f820116820180604052508101906105759190610d2c565b9050806105de576040517f08c379a000000000000000000000000000000000000000000000000000000000815260206004820152601b60248201527f57726f6e6720626c6f636b20666f72207472616e73616374696f6e000000000060448201526064016103e3565b60008790508073ffffffffffffffffffffffffffffffffffffffff16636ccf74718d8d888b6101e001516040518563ffffffff1660e01b81526004016106279493929190610e71565b600060405180830381600087803b15801561064157600080fd5b505af1158015610655573d6000803e3d6000fd5b50505050505050505050505050505050565b60008083601f84011261067957600080fd5b50813567ffffffffffffffff81111561069157600080fd5b6020830191508360208285010111156106a957600080fd5b9250929050565b6000806000806000606086880312156106c857600080fd5b853567ffffffffffffffff808211156106e057600080fd5b6106ec89838a01610667565b9097509550602088013591508082111561070557600080fd5b5061071288828901610667565b909450925050604086013573ffffffffffffffffffffffffffffffffffffffff8116811461073f57600080fd5b809150509295509295909350565b8183528181602085013750600060208284010152600060207fffffffffffffffffffffffffffffffffffffffffffffffffffffffffffffffe0601f840116840101905092915050565b6020815260006107aa60208301848661074d565b949350505050565b7f4e487b7100000000000000000000000000000000000000000000000000000000600052604160045260246000fd5b604051610200810167ffffffffffffffff81118282101715610805576108056107b2565b60405290565b604051610100810167ffffffffffffffff81118282101715610805576108056107b2565b6040805190810167ffffffffffffffff81118282101715610805576108056107b2565b604051610180810167ffffffffffffffff81118282101715610805576108056107b2565b6040516080810167ffffffffffffffff81118282101715610805576108056107b2565b604051610160810167ffffffffffffffff81118282101715610805576108056107b2565b604051610c80810167ffffffffffffffff81118282101715610805576108056107b2565b60405160a0810167ffffffffffffffff81118282101715610805576108056107b2565b80517fffffffff000000000000000000000000000000000000000000000000000000008116811461093457600080fd5b919050565b8051801515811461093457600080fd5b6000610200828403121561095c57600080fd5b6109646107e1565b61096d83610904565b81526020830151602082015260408301516040820152606083015160608201526080830151608082015260a083015160a08201526109ad60c08401610939565b60c08201526109be60e08401610939565b60e08201526101006109d1818501610939565b908201526101206109e3848201610939565b908201526101408381015190820152610160808401519082015261018080840151908201526101a080840151908201526101c080840151908201526101e0928301519281019290925250919050565b80517fffffffff000000000000000000000000000000000000000000000000000000001682526020810151602083015260408101516040830152606081015160608301526080810151608083015260a081015160a083015260c0810151610a9d60c084018215159052565b5060e0810151610ab160e084018215159052565b5061010081810151151590830152610120808201511515908301526101408082015190830152610160808201519083015261018080820151908301526101a080820151908301526101c080820151908301526101e090810151910152565b6000610220808352610b24818401868861074d565b9150506107aa6020830184610a32565b600082601f830112610b4557600080fd5b610b4d610876565b806080840185811115610b5f57600080fd5b845b81811015610b79578051845260209384019301610b61565b509095945050505050565b805160ff8116811461093457600080fd5b805163ffffffff8116811461093457600080fd5b600082601f830112610bba57600080fd5b610bc2610876565b806080840185811115610bd457600080fd5b845b81811015610b7957805161ffff81168114610bf15760008081fd5b845260209384019301610bd6565b600061d480808385031215610c1357600080fd5b83601f840112610c2257600080fd5b610c2a6108bd565b908301908085831115610c3c57600080fd5b845b83811015610cf3576102208188031215610c585760008081fd5b610c6061080b565b610c6982610939565b81526020610c7989828501610b34565b8183015260a080840151604084015260c0610c95818601610b84565b606085015260e0610ca88c828801610b34565b6080860152610cba6101608701610b95565b83860152610ccc8c6101808801610ba9565b82860152610cdd6102008701610b84565b9085015250509084529092019161022001610c3e565b5095945050505050565b7f4e487b7100000000000000000000000000000000000000000000000000000000600052603260045260246000fd5b600060208284031215610d3e57600080fd5b610d4782610939565b9392505050565b8060005b6004811015610d71578151845260209384019390910190600101610d52565b50505050565b8060005b6004811015610d7157815161ffff16845260209384019390910190600101610d7b565b806000805b6064811015610e6a578251805115158652602080820151818801855b6004811015610ddc57825182529183019190830190600101610dbf565b505050604082015160a081818a01526060840151915060c0610e02818b018460ff169052565b6080850151925060e0610e17818c0185610d4e565b8286015163ffffffff166101608c0152818601519350610e3b6101808c0185610d77565b949094015160ff81166102008b01529350610e54915050565b6102209690960195939093019250600101610da3565b5050505050565b600061d4c0808352610e86818401878961074d565b915050610e966020830185610d9e565b8261d4a083015295945050505050565b805167ffffffffffffffff8116811461093457600080fd5b600060408284031215610ed057600080fd5b610ed861082f565b905081518152610eea60208301610b84565b602082015292915050565b60008183036101e0811215610f0957600080fd5b610f1161082f565b91506101c080821215610f2357600080fd5b610f2b610852565b915083518252610f3d60208501610939565b6020830152610f4e60408501610939565b6040830152610f5f60608501610939565b6060830152610f718560808601610ebe565b6080830152610f838560c08601610ebe565b60a08301526101008085015160c08401526101208086015160e08501526101408087015183860152610160925082870151828601526101808701518186015250506101a08501518184015250818352808401516020840152505092915050565b6000610b80808385031215610ff757600080fd5b610fff610876565b915061100a83610939565b82526020611019818501610939565b8184015261102a8560408601610ef5565b60408401528461023f85011261103f57600080fd5b6110476108e1565b91840191808684111561105957600080fd5b61022086015b84811015611080576110718882610ef5565b8352918301916101e00161105f565b5060608501525091949350505050565b6000610cc082840312156110a357600080fd5b6110ab610899565b6110b483610b84565b8152602083015160208201526110cc60408401610ea6565b6040820152606083015160608201526110e760808401610ea6565b60808201526110f860a08401610b95565b60a082015261110960c08401610b95565b60c082015261111a60e08401610b84565b60e082015261010061112d818501610b84565b90820152610120838101519082015261014061114b85828601610fe3565b908201529392505050565b805180518352602081015161116f602085018215159052565b506040810151611183604085018215159052565b506060810151611197606085018215159052565b5060808101516111b760808501828051825260209081015160ff16910152565b5060a0810151805160c0850152602081015160ff1660e08501525060c08101516101008481019190915260e082015161012080860191909152908201516101408086019190915290820151610160808601919091529082015161018085015201516101a0830152602001516101c090910152565b805115158252602080820151151581840152604082015161124f6040850182611156565b506060820151610220840160005b600581101561128557611271828451611156565b918301916101e0919091019060010161125d565b505050505050565b600061e3808083526112a2818401898b61074d565b9150506112b26020830187610a32565b6112c0610220830186610d9e565b8361d6a08301526112d861d6c08301845160ff169052565b602083015161d6e0830152604083015167ffffffffffffffff90811661d700840152606084015161d72084015260808401511661d74083015260a083015163ffffffff90811661d76084015260c08401511661d78083015260e083015160ff90811661d7a08401526101008401511661d7c083015261012083015161d7e083015261014083015161136d61d80084018261122b565b5097965050505050505056fea26469706673582212204915e60b301f5111c257104e4015815f0be231c6a32ec90fb2da79ed17422fd164736f6c634300080f0033",
  "linkReferences": {},
  "deployedLinkReferences": {}
}