{
  "_format": "hh-sol-artifact-1",
  "contractName": "Validator",
  "sourceName": "contracts/Validator.sol",
  "abi": [
    {
      "inputs": [
        {
          "internalType": "address",
          "name": "signatureValidatorAddr",
          "type": "address"
        },
        {
          "internalType": "address",
          "name": "shardValidatorAddr",
          "type": "address"
        },
        {
          "internalType": "address",
          "name": "tocParserAddr",
          "type": "address"
        }
      ],
      "stateMutability": "nonpayable",
      "type": "constructor"
    },
    {
      "anonymous": false,
      "inputs": [
        {
          "indexed": true,
          "internalType": "address",
          "name": "previousOwner",
          "type": "address"
        },
        {
          "indexed": true,
          "internalType": "address",
          "name": "newOwner",
          "type": "address"
        }
      ],
      "name": "OwnershipTransferred",
      "type": "event"
    },
    {
      "stateMutability": "payable",
      "type": "fallback"
    },
    {
      "inputs": [
        {
          "internalType": "bytes32",
          "name": "root_h",
          "type": "bytes32"
        }
      ],
      "name": "addCurrentBlockToVerifiedSet",
      "outputs": [],
      "stateMutability": "nonpayable",
      "type": "function"
    },
    {
      "inputs": [
        {
          "internalType": "bytes",
          "name": "boc",
          "type": "bytes"
        }
      ],
      "name": "addPrevBlock",
      "outputs": [],
      "stateMutability": "nonpayable",
      "type": "function"
    },
    {
      "inputs": [],
      "name": "getCandidatesForValidators",
      "outputs": [
        {
          "components": [
            {
              "internalType": "uint8",
              "name": "cType",
              "type": "uint8"
            },
            {
              "internalType": "uint64",
              "name": "weight",
              "type": "uint64"
            },
            {
              "internalType": "bytes32",
              "name": "adnl_addr",
              "type": "bytes32"
            },
            {
              "internalType": "bytes32",
              "name": "pubkey",
              "type": "bytes32"
            },
            {
              "internalType": "bytes32",
              "name": "node_id",
              "type": "bytes32"
            }
          ],
          "internalType": "struct ValidatorDescription[100]",
          "name": "",
          "type": "tuple[100]"
        }
      ],
      "stateMutability": "view",
      "type": "function"
    },
    {
      "inputs": [],
      "name": "getPrunedCells",
      "outputs": [
        {
          "components": [
            {
              "internalType": "uint256",
              "name": "prefixLength",
              "type": "uint256"
            },
            {
              "internalType": "bytes32",
              "name": "hash",
              "type": "bytes32"
            }
          ],
          "internalType": "struct CachedCell[10]",
          "name": "",
          "type": "tuple[10]"
        }
      ],
      "stateMutability": "view",
      "type": "function"
    },
    {
      "inputs": [],
      "name": "getValidators",
      "outputs": [
        {
          "components": [
            {
              "internalType": "uint8",
              "name": "cType",
              "type": "uint8"
            },
            {
              "internalType": "uint64",
              "name": "weight",
              "type": "uint64"
            },
            {
              "internalType": "bytes32",
              "name": "adnl_addr",
              "type": "bytes32"
            },
            {
              "internalType": "bytes32",
              "name": "pubkey",
              "type": "bytes32"
            },
            {
              "internalType": "bytes32",
              "name": "node_id",
              "type": "bytes32"
            }
          ],
          "internalType": "struct ValidatorDescription[100]",
          "name": "",
          "type": "tuple[100]"
        }
      ],
      "stateMutability": "view",
      "type": "function"
    },
    {
      "inputs": [],
      "name": "initValidators",
      "outputs": [],
      "stateMutability": "nonpayable",
      "type": "function"
    },
    {
      "inputs": [
        {
          "internalType": "bytes32",
          "name": "node_id",
          "type": "bytes32"
        },
        {
          "internalType": "bytes32",
          "name": "root_h",
          "type": "bytes32"
        }
      ],
      "name": "isSignedByValidator",
      "outputs": [
        {
          "internalType": "bool",
          "name": "",
          "type": "bool"
        }
      ],
      "stateMutability": "view",
      "type": "function"
    },
    {
      "inputs": [
        {
          "internalType": "bytes32",
          "name": "rootHash",
          "type": "bytes32"
        }
      ],
      "name": "isVerifiedBlock",
      "outputs": [
        {
          "internalType": "bool",
          "name": "",
          "type": "bool"
        }
      ],
      "stateMutability": "view",
      "type": "function"
    },
    {
      "inputs": [],
      "name": "owner",
      "outputs": [
        {
          "internalType": "address",
          "name": "",
          "type": "address"
        }
      ],
      "stateMutability": "view",
      "type": "function"
    },
    {
      "inputs": [
        {
          "internalType": "bytes",
          "name": "boc",
          "type": "bytes"
        }
      ],
      "name": "parseCandidatesRootBlock",
      "outputs": [],
      "stateMutability": "nonpayable",
      "type": "function"
    },
    {
      "inputs": [
        {
          "internalType": "bytes",
          "name": "boc",
          "type": "bytes"
        }
      ],
      "name": "parsePartValidators",
      "outputs": [],
      "stateMutability": "nonpayable",
      "type": "function"
    },
    {
      "inputs": [
        {
          "internalType": "bytes",
          "name": "boc",
          "type": "bytes"
        }
      ],
      "name": "parseShardProofPath",
      "outputs": [],
      "stateMutability": "nonpayable",
      "type": "function"
    },
    {
      "inputs": [
        {
          "internalType": "bytes",
          "name": "boc",
          "type": "bytes"
        }
      ],
      "name": "readMasterProof",
      "outputs": [],
      "stateMutability": "nonpayable",
      "type": "function"
    },
    {
      "inputs": [
        {
          "internalType": "bytes",
          "name": "boc",
          "type": "bytes"
        },
        {
          "internalType": "bytes32",
          "name": "rh",
          "type": "bytes32"
        }
      ],
      "name": "readStateProof",
      "outputs": [],
      "stateMutability": "nonpayable",
      "type": "function"
    },
    {
      "inputs": [],
      "name": "renounceOwnership",
      "outputs": [],
      "stateMutability": "nonpayable",
      "type": "function"
    },
    {
      "inputs": [],
      "name": "setValidatorSet",
      "outputs": [],
      "stateMutability": "nonpayable",
      "type": "function"
    },
    {
      "inputs": [
        {
          "internalType": "bytes32",
          "name": "root_hash",
          "type": "bytes32"
        },
        {
          "internalType": "uint32",
          "name": "seq_no",
          "type": "uint32"
        }
      ],
      "name": "setVerifiedBlock",
      "outputs": [],
      "stateMutability": "nonpayable",
      "type": "function"
    },
    {
      "inputs": [
        {
          "internalType": "address",
          "name": "newOwner",
          "type": "address"
        }
      ],
      "name": "transferOwnership",
      "outputs": [],
      "stateMutability": "nonpayable",
      "type": "function"
    },
    {
      "inputs": [
        {
          "internalType": "bytes32",
          "name": "root_h",
          "type": "bytes32"
        },
        {
          "internalType": "bytes32",
          "name": "file_hash",
          "type": "bytes32"
        },
        {
          "components": [
            {
              "internalType": "bytes32",
              "name": "node_id",
              "type": "bytes32"
            },
            {
              "internalType": "bytes32",
              "name": "r",
              "type": "bytes32"
            },
            {
              "internalType": "bytes32",
              "name": "s",
              "type": "bytes32"
            }
          ],
          "internalType": "struct Vdata[20]",
          "name": "vdata",
          "type": "tuple[20]"
        }
      ],
      "name": "verifyValidators",
      "outputs": [],
      "stateMutability": "nonpayable",
      "type": "function"
    },
    {
      "stateMutability": "payable",
      "type": "receive"
    }
  ],
  "bytecode": "0x60806040523480156200001157600080fd5b5060405162002b7838038062002b788339810160408190526200003491620000ef565b6200003f3362000082565b600280546001600160a01b039485166001600160a01b03199182161790915560038054928516928216929092179091556004805492909316911617905562000139565b600080546001600160a01b038381166001600160a01b0319831681178455604051919092169283917f8be0079c531659141344cd1fd0a4f28419497f9722a3daafe3b4186f6b6457e09190a35050565b80516001600160a01b0381168114620000ea57600080fd5b919050565b6000806000606084860312156200010557600080fd5b6200011084620000d2565b92506200012060208501620000d2565b91506200013060408501620000d2565b90509250925092565b612a2f80620001496000396000f3fe6080604052600436106101335760003560e01c8063715018a6116100b4578063b7ab4db51161006e578063df1d4c5411610056578063df1d4c541461033f578063f2fde38b14610361578063f8930a311461038157005b8063b7ab4db514610308578063bd0aca6b1461032a57005b8063937436d21161009c578063937436d2146102a85780639be3b4b9146102c8578063a9e749ec146102e857005b8063715018a61461026b5780638da5cb5b1461028057005b80632a9028b511610105578063531b00af116100ed578063531b00af146102165780635b8b58c41461022b578063687a60b31461024b57005b80632a9028b5146101c65780632fcfbfc7146101f657005b806316e6553a1461013c5780631de420a8146101515780631dea0b4f1461017157806326e0afb0146101a657005b3661013a57005b005b34801561014857600080fd5b5061013a6103a1565b34801561015d57600080fd5b5061013a61016c366004611d7e565b61051a565b34801561017d57600080fd5b5061019161018c366004611dc0565b6108e7565b60405190151581526020015b60405180910390f35b3480156101b257600080fd5b5061013a6101c1366004611d7e565b61097c565b3480156101d257600080fd5b506101916101e1366004611de2565b60009081526001602052604090205460ff1690565b34801561020257600080fd5b5061013a610211366004611d7e565b610b2d565b34801561022257600080fd5b5061013a610e97565b34801561023757600080fd5b5061013a610246366004611d7e565b610efb565b34801561025757600080fd5b5061013a610266366004611e0d565b611074565b34801561027757600080fd5b5061013a6111c6565b34801561028c57600080fd5b506000546040516001600160a01b03909116815260200161019d565b3480156102b457600080fd5b5061013a6102c3366004611d7e565b6111da565b3480156102d457600080fd5b5061013a6102e3366004611e3d565b611442565b3480156102f457600080fd5b5061013a610303366004611e7c565b6114bd565b34801561031457600080fd5b5061031d61186b565b60405161019d9190611ec8565b34801561033657600080fd5b5061031d6118f0565b34801561034b57600080fd5b5061035461194c565b60405161019d9190611f34565b34801561036d57600080fd5b5061013a61037c366004611f69565b6119cc565b34801561038d57600080fd5b5061013a61039c366004611de2565b611a5c565b6103a9611bcd565b600254604080517f16e6553a00000000000000000000000000000000000000000000000000000000815290516000926001600160a01b0316916316e6553a916004808301926020929190829003018187875af115801561040d573d6000803e3d6000fd5b505050506040513d601f19601f820116820180604052508101906104319190611f92565b6040805160a081018252600180825260006020808401828152848601838152606086018481526080870185815298855292859052959092209351845492519551915164ffffffffff1990931690151564ffffffff0019161761010063ffffffff90961695909502949094177fffffffffffffffffffffff00000000000000000000000000000000ffffffffff166501000000000067ffffffffffffffff958616027fffffffffffffffffffffff0000000000000000ffffffffffffffffffffffffff16176d01000000000000000000000000009490911693909302929092178155915191015550565b6003546040517fa62f19380000000000000000000000000000000000000000000000000000000081526000916001600160a01b03169063a62f1938906105669086908690600401611ff4565b61020060405180830381865afa158015610584573d6000803e3d6000fd5b505050506040513d601f19601f820116820180604052508101906105a89190612183565b6003546040517f80e912a20000000000000000000000000000000000000000000000000000000081529192506000916001600160a01b03909116906380e912a2906105fb9087908790879060040161226c565b61d48060405180830381865afa158015610619573d6000803e3d6000fd5b505050506040513d601f19601f8201168201806040525081019061063d9190612489565b90506106af8182846101e001516064811061065a5761065a612587565b60200201516020015160006004811061067557610675612587565b60200201516064811061068a5761068a612587565b6020020151608001516000602002015160009081526001602052604090205460ff1690565b6107005760405162461bcd60e51b815260206004820152600c60248201527f4e6f74207665726966696564000000000000000000000000000000000000000060448201526064015b60405180910390fd5b600480546101e08401516040517f924547a500000000000000000000000000000000000000000000000000000000815260009384936001600160a01b03169263924547a592610757928b928b9290918a9101612606565b61078060405180830381865afa158015610775573d6000803e3d6000fd5b505050506040513d601f19601f820116820180604052508101906107999190612719565b9150915060005b600a8110156108de578281600a81106107bb576107bb612587565b6020020151156108de578181600a81106107d7576107d7612587565b6020020151600160008584600a81106107f2576107f2612587565b602090810291909101518252818101929092526040908101600020835181549385015192850151606086015167ffffffffffffffff9081166d0100000000000000000000000000027fffffffffffffffffffffff0000000000000000ffffffffffffffffffffffffff919092166501000000000002167fffffffffffffffffffffff00000000000000000000000000000000ffffffffff63ffffffff9095166101000264ffffffff00199315159390931664ffffffffff1990961695909517919091179290921692909217178155608090910151600190910155806108d681612801565b9150506107a0565b50505050505050565b6002546040517f1dea0b4f00000000000000000000000000000000000000000000000000000000815260048101849052602481018390526000916001600160a01b031690631dea0b4f90604401602060405180830381865afa158015610951573d6000803e3d6000fd5b505050506040513d601f19601f820116820180604052508101906109759190612860565b9392505050565b6003546040517fa62f19380000000000000000000000000000000000000000000000000000000081526000916001600160a01b03169063a62f1938906109c89086908690600401611ff4565b61020060405180830381865afa1580156109e6573d6000803e3d6000fd5b505050506040513d601f19601f82011682018060405250810190610a0a9190612183565b6003546040517f80e912a20000000000000000000000000000000000000000000000000000000081529192506000916001600160a01b03909116906380e912a290610a5d9087908790879060040161226c565b61d48060405180830381865afa158015610a7b573d6000803e3d6000fd5b505050506040513d601f19601f82011682018060405250810190610a9f9190612489565b6002546101e08401516040517fbddb49a50000000000000000000000000000000000000000000000000000000081529293506001600160a01b039091169163bddb49a591610af591889188918790600401612606565b600060405180830381600087803b158015610b0f57600080fd5b505af1158015610b23573d6000803e3d6000fd5b5050505050505050565b6003546040517fa62f19380000000000000000000000000000000000000000000000000000000081526000916001600160a01b03169063a62f193890610b799086908690600401611ff4565b61020060405180830381865afa158015610b97573d6000803e3d6000fd5b505050506040513d601f19601f82011682018060405250810190610bbb9190612183565b6003546040517f80e912a20000000000000000000000000000000000000000000000000000000081529192506000916001600160a01b03909116906380e912a290610c0e9087908790879060040161226c565b61d48060405180830381865afa158015610c2c573d6000803e3d6000fd5b505050506040513d601f19601f82011682018060405250810190610c509190612489565b9050610c6d8182846101e001516064811061065a5761065a612587565b610cb95760405162461bcd60e51b815260206004820152600c60248201527f4e6f74207665726966696564000000000000000000000000000000000000000060448201526064016106f7565b600480546101e08401516040517f09dd718e00000000000000000000000000000000000000000000000000000000815260009384936001600160a01b0316926309dd718e92610d10928b928b9290918a9101612606565b61078060405180830381865afa158015610d2e573d6000803e3d6000fd5b505050506040513d601f19601f82011682018060405250810190610d529190612719565b9150915060005b600a8110156108de578281600a8110610d7457610d74612587565b6020020151156108de578181600a8110610d9057610d90612587565b6020020151600160008584600a8110610dab57610dab612587565b602090810291909101518252818101929092526040908101600020835181549385015192850151606086015167ffffffffffffffff9081166d0100000000000000000000000000027fffffffffffffffffffffff0000000000000000ffffffffffffffffffffffffff919092166501000000000002167fffffffffffffffffffffff00000000000000000000000000000000ffffffffff63ffffffff9095166101000264ffffffff00199315159390931664ffffffffff199096169590951791909117929092169290921717815560809091015160019091015580610e8f81612801565b915050610d59565b600254604080517f531b00af00000000000000000000000000000000000000000000000000000000815290516000926001600160a01b03169163531b00af916004808301926020929190829003018187875af115801561040d573d6000803e3d6000fd5b6003546040517fa62f19380000000000000000000000000000000000000000000000000000000081526000916001600160a01b03169063a62f193890610f479086908690600401611ff4565b61020060405180830381865afa158015610f65573d6000803e3d6000fd5b505050506040513d601f19601f82011682018060405250810190610f899190612183565b6003546040517f80e912a20000000000000000000000000000000000000000000000000000000081529192506000916001600160a01b03909116906380e912a290610fdc9087908790879060040161226c565b61d48060405180830381865afa158015610ffa573d6000803e3d6000fd5b505050506040513d601f19601f8201168201806040525081019061101e9190612489565b6002546101e08401516040517f87cef8ce0000000000000000000000000000000000000000000000000000000081529293506001600160a01b03909116916387cef8ce91610af591889188918790600401612606565b61107c611bcd565b60008281526001602052604090205460ff16156110db5760405162461bcd60e51b815260206004820152601660248201527f626c6f636b20616c72656164792076657269666965640000000000000000000060448201526064016106f7565b6040805160a081018252600180825263ffffffff938416602080840191825260008486018181526060860182815260808701838152998352928590529590209351845492519551915164ffffffffff1990931690151564ffffffff001916176101009590961694909402949094177fffffffffffffffffffffff00000000000000000000000000000000ffffffffff166501000000000067ffffffffffffffff948516027fffffffffffffffffffffff0000000000000000ffffffffffffffffffffffffff16176d010000000000000000000000000093909416929092029290921782559151910155565b6111ce611bcd565b6111d86000611c27565b565b6003546040517fa62f19380000000000000000000000000000000000000000000000000000000081526000916001600160a01b03169063a62f1938906112269086908690600401611ff4565b61020060405180830381865afa158015611244573d6000803e3d6000fd5b505050506040513d601f19601f820116820180604052508101906112689190612183565b6003546040517f80e912a20000000000000000000000000000000000000000000000000000000081529192506000916001600160a01b03909116906380e912a2906112bb9087908790879060040161226c565b61d48060405180830381865afa1580156112d9573d6000803e3d6000fd5b505050506040513d601f19601f820116820180604052508101906112fd9190612489565b905061131981836101e001516064811061068a5761068a612587565b6113655760405162461bcd60e51b815260206004820152600c60248201527f4e6f74207665726966696564000000000000000000000000000000000000000060448201526064016106f7565b600480546101e08401516040517f2395b9110000000000000000000000000000000000000000000000000000000081526000936001600160a01b0390931692632395b911926113bb928a928a9291899101612606565b602060405180830381865afa1580156113d8573d6000803e3d6000fd5b505050506040513d601f19601f820116820180604052508101906113fc9190611f92565b9050806001600084866101e001516064811061141a5761141a612587565b6020908102919091015160800151518252810191909152604001600020600101555050505050565b6002546040517f9be3b4b90000000000000000000000000000000000000000000000000000000081526001600160a01b0390911690639be3b4b99061148f9086908690869060040161287b565b600060405180830381600087803b1580156114a957600080fd5b505af11580156108de573d6000803e3d6000fd5b6003546040517fa62f19380000000000000000000000000000000000000000000000000000000081526000916001600160a01b03169063a62f1938906115099087908790600401611ff4565b61020060405180830381865afa158015611527573d6000803e3d6000fd5b505050506040513d601f19601f8201168201806040525081019061154b9190612183565b6003546040517f80e912a20000000000000000000000000000000000000000000000000000000081529192506000916001600160a01b03909116906380e912a29061159e9088908890879060040161226c565b61d48060405180830381865afa1580156115bc573d6000803e3d6000fd5b505050506040513d601f19601f820116820180604052508101906115e09190612489565b9050600160008481526020019081526020016000206001015481836101e001516064811061161057611610612587565b602002015160800151511461168d5760405162461bcd60e51b815260206004820152602360248201527f426c6f636b2077697468206e65772068617368206973206e6f7420766572696660448201527f696564000000000000000000000000000000000000000000000000000000000060648201526084016106f7565b600480546101e08401516040517fd5ce2f9c00000000000000000000000000000000000000000000000000000000815260009384936001600160a01b03169263d5ce2f9c926116e4928c928c9290918a9101612606565b61078060405180830381865afa158015611702573d6000803e3d6000fd5b505050506040513d601f19601f820116820180604052508101906117269190612719565b9150915060005b600a811015610b23578281600a811061174857611748612587565b602002015115610b23578181600a811061176457611764612587565b6020020151600160008584600a811061177f5761177f612587565b602090810291909101518252818101929092526040908101600020835181549385015192850151606086015167ffffffffffffffff9081166d0100000000000000000000000000027fffffffffffffffffffffff0000000000000000ffffffffffffffffffffffffff919092166501000000000002167fffffffffffffffffffffff00000000000000000000000000000000ffffffffff63ffffffff9095166101000264ffffffff00199315159390931664ffffffffff19909616959095179190911792909216929092171781556080909101516001909101558061186381612801565b91505061172d565b611873611c8f565b600260009054906101000a90046001600160a01b03166001600160a01b031663b7ab4db56040518163ffffffff1660e01b8152600401613e8060405180830381865afa1580156118c7573d6000803e3d6000fd5b505050506040513d601f19601f820116820180604052508101906118eb91906128d1565b905090565b6118f8611c8f565b600260009054906101000a90046001600160a01b03166001600160a01b031663bd0aca6b6040518163ffffffff1660e01b8152600401613e8060405180830381865afa1580156118c7573d6000803e3d6000fd5b611954611cfb565b600260009054906101000a90046001600160a01b03166001600160a01b031663df1d4c546040518163ffffffff1660e01b815260040161028060405180830381865afa1580156119a8573d6000803e3d6000fd5b505050506040513d601f19601f820116820180604052508101906118eb919061297b565b6119d4611bcd565b6001600160a01b038116611a505760405162461bcd60e51b815260206004820152602660248201527f4f776e61626c653a206e6577206f776e657220697320746865207a65726f206160448201527f646472657373000000000000000000000000000000000000000000000000000060648201526084016106f7565b611a5981611c27565b50565b6002546040517ff8930a31000000000000000000000000000000000000000000000000000000008152600481018390526000916001600160a01b03169063f8930a3190602401602060405180830381865afa158015611abf573d6000803e3d6000fd5b505050506040513d601f19601f82011682018060405250810190611ae39190611f92565b6040805160a081018252600180825260006020808401828152848601838152606086018481526080870185815298855292859052959092209351845492519551915164ffffffffff1990931690151564ffffffff0019161761010063ffffffff90961695909502949094177fffffffffffffffffffffff00000000000000000000000000000000ffffffffff166501000000000067ffffffffffffffff958616027fffffffffffffffffffffff0000000000000000ffffffffffffffffffffffffff16176d0100000000000000000000000000949091169390930292909217815591519101555050565b6000546001600160a01b031633146111d85760405162461bcd60e51b815260206004820181905260248201527f4f776e61626c653a2063616c6c6572206973206e6f7420746865206f776e657260448201526064016106f7565b600080546001600160a01b038381167fffffffffffffffffffffffff0000000000000000000000000000000000000000831681178455604051919092169283917f8be0079c531659141344cd1fd0a4f28419497f9722a3daafe3b4186f6b6457e09190a35050565b60405180610c8001604052806064905b6040805160a0810182526000808252602080830182905292820181905260608201819052608082015282527fffffffffffffffffffffffffffffffffffffffffffffffffffffffffffffffff909201910181611c9f5790505090565b604051806101400160405280600a905b6040805180820190915260008082526020820152815260200190600190039081611d0b5790505090565b60008083601f840112611d4757600080fd5b50813567ffffffffffffffff811115611d5f57600080fd5b602083019150836020828501011115611d7757600080fd5b9250929050565b60008060208385031215611d9157600080fd5b823567ffffffffffffffff811115611da857600080fd5b611db485828601611d35565b90969095509350505050565b60008060408385031215611dd357600080fd5b50508035926020909101359150565b600060208284031215611df457600080fd5b5035919050565b63ffffffff81168114611a5957600080fd5b60008060408385031215611e2057600080fd5b823591506020830135611e3281611dfb565b809150509250929050565b60008060006107c0808587031215611e5457600080fd5b8435935060208501359250858186011115611e6e57600080fd5b506040840190509250925092565b600080600060408486031215611e9157600080fd5b833567ffffffffffffffff811115611ea857600080fd5b611eb486828701611d35565b909790965060209590950135949350505050565b613e808101818360005b6064811015611f2b578151805160ff16845260208082015167ffffffffffffffff168186015260408083015190860152606080830151908601526080918201519185019190915260a09093019290910190600101611ed2565b50505092915050565b6102808101818360005b600a811015611f2b578151805184526020908101518185015260409093019290910190600101611f3e565b600060208284031215611f7b57600080fd5b81356001600160a01b038116811461097557600080fd5b600060208284031215611fa457600080fd5b5051919050565b8183528181602085013750600060208284010152600060207fffffffffffffffffffffffffffffffffffffffffffffffffffffffffffffffe0601f840116840101905092915050565b602081526000612008602083018486611fab565b949350505050565b7f4e487b7100000000000000000000000000000000000000000000000000000000600052604160045260246000fd5b604051610200810167ffffffffffffffff8111828210171561206357612063612010565b60405290565b604051610100810167ffffffffffffffff8111828210171561206357612063612010565b60405160a0810167ffffffffffffffff8111828210171561206357612063612010565b6040805190810167ffffffffffffffff8111828210171561206357612063612010565b6040516080810167ffffffffffffffff8111828210171561206357612063612010565b604051610140810167ffffffffffffffff8111828210171561206357612063612010565b604051610c80810167ffffffffffffffff8111828210171561206357612063612010565b80517fffffffff000000000000000000000000000000000000000000000000000000008116811461216e57600080fd5b919050565b8051801515811461216e57600080fd5b6000610200828403121561219657600080fd5b61219e61203f565b6121a78361213e565b81526020830151602082015260408301516040820152606083015160608201526080830151608082015260a083015160a08201526121e760c08401612173565b60c08201526121f860e08401612173565b60e082015261010061220b818501612173565b9082015261012061221d848201612173565b908201526101408381015190820152610160808401519082015261018080840151908201526101a080840151908201526101c080840151908201526101e0928301519281019290925250919050565b60006102208083526122818184018688611fab565b9150506122b36020830184517fffffffff00000000000000000000000000000000000000000000000000000000169052565b602083015160408301526040830151606083015260608301516080830152608083015160a083015260a083015160c083015260c08301516122f860e084018215159052565b5060e083015161010061230e8185018315159052565b84015190506101206123238482018315159052565b84015190506101406123388482018315159052565b84015161016084810191909152840151610180808501919091528401516101a0808501919091528401516101c0808501919091528401516101e08085019190915290930151610200909201919091529392505050565b600082601f83011261239f57600080fd5b6123a76120d3565b8060808401858111156123b957600080fd5b845b818110156123d35780518452602093840193016123bb565b509095945050505050565b805160ff8116811461216e57600080fd5b60006123f96120f6565b90508061014083018481111561240e57600080fd5b835b81811015611f2b578051835260209283019201612410565b805161216e81611dfb565b600082601f83011261244457600080fd5b61244c6120d3565b80608084018581111561245e57600080fd5b845b818110156123d357805161ffff8116811461247b5760008081fd5b845260209384019301612460565b600061d48080838503121561249d57600080fd5b83601f8401126124ac57600080fd5b6124b461211a565b9083019080858311156124c657600080fd5b845b8381101561257d5761022081880312156124e25760008081fd5b6124ea612069565b6124f382612173565b815260206125038982850161238e565b8183015260a080840151604084015260c061251f8186016123de565b606085015260e06125328c82880161238e565b60808601526125446101608701612428565b838601526125568c6101808801612433565b8286015261256761020087016123de565b90850152505090845290920191610220016124c8565b5095945050505050565b7f4e487b7100000000000000000000000000000000000000000000000000000000600052603260045260246000fd5b8060005b60048110156125d95781518452602093840193909101906001016125ba565b50505050565b8060005b60048110156125d957815161ffff168452602093840193909101906001016125e3565b600061d4c080835261261b8184018789611fab565b915050602084818401526040808401856000805b60648110156126f257825180511515855286810151878601845b600481101561266657825182529189019190890190600101612649565b5050508581015160a081818801526060830151915060c061268b8189018460ff169052565b6080840151925060e06126a0818a01856125b6565b8285015163ffffffff166101608a01528185015193506126c46101808a01856125df565b939093015160ff811661020089015292506126dd915050565b5061022093909301929185019160010161262f565b50505050505095945050505050565b805167ffffffffffffffff8116811461216e57600080fd5b60008061078080848603121561272e57600080fd5b84601f85011261273d57600080fd5b61274785856123ef565b92508461015f85011261275957600080fd5b6127616120f6565b90840190808683111561277357600080fd5b61014086015b838110156127f35760a081890312156127925760008081fd5b61279a61208d565b6127a382612173565b81526020808301516127b481611dfb565b8282015260406127c5848201612701565b9083015260606127d6848201612701565b90830152608083810151908301529084529092019160a001612779565b508093505050509250929050565b60007fffffffffffffffffffffffffffffffffffffffffffffffffffffffffffffffff8203612859577f4e487b7100000000000000000000000000000000000000000000000000000000600052601160045260246000fd5b5060010190565b60006020828403121561287257600080fd5b61097582612173565b83815260208082018490526107c082019060408084018560005b60148110156128c457813583528482013585840152838201358484015260609283019290910190600101612895565b5050505050949350505050565b6000613e808083850312156128e557600080fd5b83601f8401126128f457600080fd5b6128fc61211a565b90830190808583111561290e57600080fd5b845b8381101561257d5760a081880312156129295760008081fd5b61293161208d565b61293a826123de565b81526020612949818401612701565b82820152604083810151908301526060808401519083015260808084015190830152908452929092019160a001612910565b600061028080838503121561298f57600080fd5b83601f84011261299e57600080fd5b6129a66120f6565b9083019080858311156129b857600080fd5b845b8381101561257d57604081880312156129d35760008081fd5b6129db6120b0565b815181526020808301518183015290845292909201916040016129ba56fea2646970667358221220f6237f34a9c2981043e122ed3c4683e7fd9041b1723b41070c2469153611098864736f6c634300080f0033",
  "linkReferences": {},
  "deployedLinkReferences": {}
}