{
  "_format": "hh-sol-artifact-1",
  "contractName": "Validator",
  "sourceName": "contracts/Validator.sol",
  "abi": [
    {
      "inputs": [
        {
          "internalType": "address",
          "name": "signatureValidatorAddr",
          "type": "address"
        },
        {
          "internalType": "address",
          "name": "shardValidatorAddr",
          "type": "address"
        },
        {
          "internalType": "address",
          "name": "tocParserAddr",
          "type": "address"
        }
      ],
      "stateMutability": "nonpayable",
      "type": "constructor"
    },
    {
      "anonymous": false,
      "inputs": [
        {
          "indexed": true,
          "internalType": "address",
          "name": "previousOwner",
          "type": "address"
        },
        {
          "indexed": true,
          "internalType": "address",
          "name": "newOwner",
          "type": "address"
        }
      ],
      "name": "OwnershipTransferred",
      "type": "event"
    },
    {
      "inputs": [
        {
          "internalType": "bytes32",
          "name": "root_h",
          "type": "bytes32"
        }
      ],
      "name": "addCurrentBlockToVerifiedSet",
      "outputs": [],
      "stateMutability": "nonpayable",
      "type": "function"
    },
    {
      "inputs": [
        {
          "internalType": "bytes",
          "name": "boc",
          "type": "bytes"
        }
      ],
      "name": "addPrevBlock",
      "outputs": [],
      "stateMutability": "nonpayable",
      "type": "function"
    },
    {
      "inputs": [],
      "name": "getCandidatesForValidators",
      "outputs": [
        {
          "components": [
            {
              "internalType": "uint8",
              "name": "cType",
              "type": "uint8"
            },
            {
              "internalType": "uint64",
              "name": "weight",
              "type": "uint64"
            },
            {
              "internalType": "bytes32",
              "name": "adnl_addr",
              "type": "bytes32"
            },
            {
              "internalType": "bytes32",
              "name": "pubkey",
              "type": "bytes32"
            },
            {
              "internalType": "bytes32",
              "name": "node_id",
              "type": "bytes32"
            }
          ],
          "internalType": "struct ValidatorDescription[100]",
          "name": "",
          "type": "tuple[100]"
        }
      ],
      "stateMutability": "view",
      "type": "function"
    },
    {
      "inputs": [],
      "name": "getName",
      "outputs": [
        {
          "internalType": "string",
          "name": "",
          "type": "string"
        }
      ],
      "stateMutability": "pure",
      "type": "function"
    },
    {
      "inputs": [],
      "name": "getPrunedCells",
      "outputs": [
        {
          "components": [
            {
              "internalType": "uint256",
              "name": "prefixLength",
              "type": "uint256"
            },
            {
              "internalType": "bytes32",
              "name": "hash",
              "type": "bytes32"
            }
          ],
          "internalType": "struct CachedCell[10]",
          "name": "",
          "type": "tuple[10]"
        }
      ],
      "stateMutability": "view",
      "type": "function"
    },
    {
      "inputs": [],
      "name": "getValidators",
      "outputs": [
        {
          "components": [
            {
              "internalType": "uint8",
              "name": "cType",
              "type": "uint8"
            },
            {
              "internalType": "uint64",
              "name": "weight",
              "type": "uint64"
            },
            {
              "internalType": "bytes32",
              "name": "adnl_addr",
              "type": "bytes32"
            },
            {
              "internalType": "bytes32",
              "name": "pubkey",
              "type": "bytes32"
            },
            {
              "internalType": "bytes32",
              "name": "node_id",
              "type": "bytes32"
            }
          ],
          "internalType": "struct ValidatorDescription[100]",
          "name": "",
          "type": "tuple[100]"
        }
      ],
      "stateMutability": "view",
      "type": "function"
    },
    {
      "inputs": [],
      "name": "initValidators",
      "outputs": [],
      "stateMutability": "nonpayable",
      "type": "function"
    },
    {
      "inputs": [
        {
          "internalType": "bytes32",
          "name": "node_id",
          "type": "bytes32"
        },
        {
          "internalType": "bytes32",
          "name": "root_h",
          "type": "bytes32"
        }
      ],
      "name": "isSignedByValidator",
      "outputs": [
        {
          "internalType": "bool",
          "name": "",
          "type": "bool"
        }
      ],
      "stateMutability": "view",
      "type": "function"
    },
    {
      "inputs": [
        {
          "internalType": "bytes32",
          "name": "rootHash",
          "type": "bytes32"
        }
      ],
      "name": "isVerifiedBlock",
      "outputs": [
        {
          "internalType": "bool",
          "name": "",
          "type": "bool"
        }
      ],
      "stateMutability": "view",
      "type": "function"
    },
    {
      "inputs": [],
      "name": "owner",
      "outputs": [
        {
          "internalType": "address",
          "name": "",
          "type": "address"
        }
      ],
      "stateMutability": "view",
      "type": "function"
    },
    {
      "inputs": [
        {
          "internalType": "bytes",
          "name": "boc",
          "type": "bytes"
        }
      ],
      "name": "parseCandidatesRootBlock",
      "outputs": [],
      "stateMutability": "nonpayable",
      "type": "function"
    },
    {
      "inputs": [
        {
          "internalType": "bytes",
          "name": "boc",
          "type": "bytes"
        }
      ],
      "name": "parsePartValidators",
      "outputs": [],
      "stateMutability": "nonpayable",
      "type": "function"
    },
    {
      "inputs": [
        {
          "internalType": "bytes",
          "name": "boc",
          "type": "bytes"
        }
      ],
      "name": "parseShardProofPath",
      "outputs": [],
      "stateMutability": "nonpayable",
      "type": "function"
    },
    {
      "inputs": [
        {
          "internalType": "bytes",
          "name": "boc",
          "type": "bytes"
        }
      ],
      "name": "readMasterProof",
      "outputs": [],
      "stateMutability": "nonpayable",
      "type": "function"
    },
    {
      "inputs": [
        {
          "internalType": "bytes",
          "name": "boc",
          "type": "bytes"
        },
        {
          "internalType": "bytes32",
          "name": "rh",
          "type": "bytes32"
        }
      ],
      "name": "readStateProof",
      "outputs": [],
      "stateMutability": "nonpayable",
      "type": "function"
    },
    {
      "inputs": [],
      "name": "renounceOwnership",
      "outputs": [],
      "stateMutability": "nonpayable",
      "type": "function"
    },
    {
      "inputs": [],
      "name": "setValidatorSet",
      "outputs": [],
      "stateMutability": "nonpayable",
      "type": "function"
    },
    {
      "inputs": [
        {
          "internalType": "bytes32",
          "name": "root_hash",
          "type": "bytes32"
        },
        {
          "internalType": "uint32",
          "name": "seq_no",
          "type": "uint32"
        }
      ],
      "name": "setVerifiedBlock",
      "outputs": [],
      "stateMutability": "nonpayable",
      "type": "function"
    },
    {
      "inputs": [
        {
          "internalType": "address",
          "name": "newOwner",
          "type": "address"
        }
      ],
      "name": "transferOwnership",
      "outputs": [],
      "stateMutability": "nonpayable",
      "type": "function"
    },
    {
      "inputs": [
        {
          "internalType": "bytes32",
          "name": "root_h",
          "type": "bytes32"
        },
        {
          "internalType": "bytes32",
          "name": "file_hash",
          "type": "bytes32"
        },
        {
          "components": [
            {
              "internalType": "bytes32",
              "name": "node_id",
              "type": "bytes32"
            },
            {
              "internalType": "bytes32",
              "name": "r",
              "type": "bytes32"
            },
            {
              "internalType": "bytes32",
              "name": "s",
              "type": "bytes32"
            }
          ],
          "internalType": "struct Vdata[20]",
          "name": "vdata",
          "type": "tuple[20]"
        }
      ],
      "name": "verifyValidators",
      "outputs": [],
      "stateMutability": "nonpayable",
      "type": "function"
    }
  ],
  "bytecode": "0x60806040523480156200001157600080fd5b5060405162002b6e38038062002b6e8339810160408190526200003491620000ef565b6200003f3362000082565b600280546001600160a01b039485166001600160a01b03199182161790915560038054928516928216929092179091556004805492909316911617905562000139565b600080546001600160a01b038381166001600160a01b0319831681178455604051919092169283917f8be0079c531659141344cd1fd0a4f28419497f9722a3daafe3b4186f6b6457e09190a35050565b80516001600160a01b0381168114620000ea57600080fd5b919050565b6000806000606084860312156200010557600080fd5b6200011084620000d2565b92506200012060208501620000d2565b91506200013060408501620000d2565b90509250925092565b612a2580620001496000396000f3fe608060405234801561001057600080fd5b506004361061016c5760003560e01c8063715018a6116100cd578063b7ab4db511610081578063df1d4c5411610066578063df1d4c54146102e9578063f2fde38b146102fe578063f8930a311461031157600080fd5b8063b7ab4db5146102cc578063bd0aca6b146102e157600080fd5b8063937436d2116100b2578063937436d2146102935780639be3b4b9146102a6578063a9e749ec146102b957600080fd5b8063715018a6146102705780638da5cb5b1461027857600080fd5b80632a9028b511610124578063531b00af11610109578063531b00af146102425780635b8b58c41461024a578063687a60b31461025d57600080fd5b80632a9028b51461020c5780632fcfbfc71461022f57600080fd5b80631de420a8116101555780631de420a8146101c35780631dea0b4f146101d657806326e0afb0146101f957600080fd5b806316e6553a1461017157806317d7de7c1461017b575b600080fd5b610179610324565b005b604080518082018252600481527f6e616d6500000000000000000000000000000000000000000000000000000000602082015290516101ba9190611cb8565b60405180910390f35b6101796101d1366004611d74565b61049d565b6101e96101e4366004611db6565b61086a565b60405190151581526020016101ba565b610179610207366004611d74565b6108ff565b6101e961021a366004611dd8565b60009081526001602052604090205460ff1690565b61017961023d366004611d74565b610ab0565b610179610e1a565b610179610258366004611d74565b610e7e565b61017961026b366004611e03565b610ff7565b610179611149565b6000546040516001600160a01b0390911681526020016101ba565b6101796102a1366004611d74565b61115d565b6101796102b4366004611e33565b6113c5565b6101796102c7366004611e72565b611440565b6102d46117ee565b6040516101ba9190611ebe565b6102d4611873565b6102f16118cf565b6040516101ba9190611f2a565b61017961030c366004611f5f565b61194f565b61017961031f366004611dd8565b6119df565b61032c611b50565b600254604080517f16e6553a00000000000000000000000000000000000000000000000000000000815290516000926001600160a01b0316916316e6553a916004808301926020929190829003018187875af1158015610390573d6000803e3d6000fd5b505050506040513d601f19601f820116820180604052508101906103b49190611f88565b6040805160a081018252600180825260006020808401828152848601838152606086018481526080870185815298855292859052959092209351845492519551915164ffffffffff1990931690151564ffffffff0019161761010063ffffffff90961695909502949094177fffffffffffffffffffffff00000000000000000000000000000000ffffffffff166501000000000067ffffffffffffffff958616027fffffffffffffffffffffff0000000000000000ffffffffffffffffffffffffff16176d01000000000000000000000000009490911693909302929092178155915191015550565b6003546040517fa62f19380000000000000000000000000000000000000000000000000000000081526000916001600160a01b03169063a62f1938906104e99086908690600401611fea565b61020060405180830381865afa158015610507573d6000803e3d6000fd5b505050506040513d601f19601f8201168201806040525081019061052b9190612179565b6003546040517f80e912a20000000000000000000000000000000000000000000000000000000081529192506000916001600160a01b03909116906380e912a29061057e90879087908790600401612262565b61d48060405180830381865afa15801561059c573d6000803e3d6000fd5b505050506040513d601f19601f820116820180604052508101906105c0919061247f565b90506106328182846101e00151606481106105dd576105dd61257d565b6020020151602001516000600481106105f8576105f861257d565b60200201516064811061060d5761060d61257d565b6020020151608001516000602002015160009081526001602052604090205460ff1690565b6106835760405162461bcd60e51b815260206004820152600c60248201527f4e6f74207665726966696564000000000000000000000000000000000000000060448201526064015b60405180910390fd5b600480546101e08401516040517f924547a500000000000000000000000000000000000000000000000000000000815260009384936001600160a01b03169263924547a5926106da928b928b9290918a91016125fc565b61078060405180830381865afa1580156106f8573d6000803e3d6000fd5b505050506040513d601f19601f8201168201806040525081019061071c919061270f565b9150915060005b600a811015610861578281600a811061073e5761073e61257d565b602002015115610861578181600a811061075a5761075a61257d565b6020020151600160008584600a81106107755761077561257d565b602090810291909101518252818101929092526040908101600020835181549385015192850151606086015167ffffffffffffffff9081166d0100000000000000000000000000027fffffffffffffffffffffff0000000000000000ffffffffffffffffffffffffff919092166501000000000002167fffffffffffffffffffffff00000000000000000000000000000000ffffffffff63ffffffff9095166101000264ffffffff00199315159390931664ffffffffff199096169590951791909117929092169290921717815560809091015160019091015580610859816127f7565b915050610723565b50505050505050565b6002546040517f1dea0b4f00000000000000000000000000000000000000000000000000000000815260048101849052602481018390526000916001600160a01b031690631dea0b4f90604401602060405180830381865afa1580156108d4573d6000803e3d6000fd5b505050506040513d601f19601f820116820180604052508101906108f89190612856565b9392505050565b6003546040517fa62f19380000000000000000000000000000000000000000000000000000000081526000916001600160a01b03169063a62f19389061094b9086908690600401611fea565b61020060405180830381865afa158015610969573d6000803e3d6000fd5b505050506040513d601f19601f8201168201806040525081019061098d9190612179565b6003546040517f80e912a20000000000000000000000000000000000000000000000000000000081529192506000916001600160a01b03909116906380e912a2906109e090879087908790600401612262565b61d48060405180830381865afa1580156109fe573d6000803e3d6000fd5b505050506040513d601f19601f82011682018060405250810190610a22919061247f565b6002546101e08401516040517fbddb49a50000000000000000000000000000000000000000000000000000000081529293506001600160a01b039091169163bddb49a591610a78918891889187906004016125fc565b600060405180830381600087803b158015610a9257600080fd5b505af1158015610aa6573d6000803e3d6000fd5b5050505050505050565b6003546040517fa62f19380000000000000000000000000000000000000000000000000000000081526000916001600160a01b03169063a62f193890610afc9086908690600401611fea565b61020060405180830381865afa158015610b1a573d6000803e3d6000fd5b505050506040513d601f19601f82011682018060405250810190610b3e9190612179565b6003546040517f80e912a20000000000000000000000000000000000000000000000000000000081529192506000916001600160a01b03909116906380e912a290610b9190879087908790600401612262565b61d48060405180830381865afa158015610baf573d6000803e3d6000fd5b505050506040513d601f19601f82011682018060405250810190610bd3919061247f565b9050610bf08182846101e00151606481106105dd576105dd61257d565b610c3c5760405162461bcd60e51b815260206004820152600c60248201527f4e6f742076657269666965640000000000000000000000000000000000000000604482015260640161067a565b600480546101e08401516040517f09dd718e00000000000000000000000000000000000000000000000000000000815260009384936001600160a01b0316926309dd718e92610c93928b928b9290918a91016125fc565b61078060405180830381865afa158015610cb1573d6000803e3d6000fd5b505050506040513d601f19601f82011682018060405250810190610cd5919061270f565b9150915060005b600a811015610861578281600a8110610cf757610cf761257d565b602002015115610861578181600a8110610d1357610d1361257d565b6020020151600160008584600a8110610d2e57610d2e61257d565b602090810291909101518252818101929092526040908101600020835181549385015192850151606086015167ffffffffffffffff9081166d0100000000000000000000000000027fffffffffffffffffffffff0000000000000000ffffffffffffffffffffffffff919092166501000000000002167fffffffffffffffffffffff00000000000000000000000000000000ffffffffff63ffffffff9095166101000264ffffffff00199315159390931664ffffffffff199096169590951791909117929092169290921717815560809091015160019091015580610e12816127f7565b915050610cdc565b600254604080517f531b00af00000000000000000000000000000000000000000000000000000000815290516000926001600160a01b03169163531b00af916004808301926020929190829003018187875af1158015610390573d6000803e3d6000fd5b6003546040517fa62f19380000000000000000000000000000000000000000000000000000000081526000916001600160a01b03169063a62f193890610eca9086908690600401611fea565b61020060405180830381865afa158015610ee8573d6000803e3d6000fd5b505050506040513d601f19601f82011682018060405250810190610f0c9190612179565b6003546040517f80e912a20000000000000000000000000000000000000000000000000000000081529192506000916001600160a01b03909116906380e912a290610f5f90879087908790600401612262565b61d48060405180830381865afa158015610f7d573d6000803e3d6000fd5b505050506040513d601f19601f82011682018060405250810190610fa1919061247f565b6002546101e08401516040517f87cef8ce0000000000000000000000000000000000000000000000000000000081529293506001600160a01b03909116916387cef8ce91610a78918891889187906004016125fc565b610fff611b50565b60008281526001602052604090205460ff161561105e5760405162461bcd60e51b815260206004820152601660248201527f626c6f636b20616c726561647920766572696669656400000000000000000000604482015260640161067a565b6040805160a081018252600180825263ffffffff938416602080840191825260008486018181526060860182815260808701838152998352928590529590209351845492519551915164ffffffffff1990931690151564ffffffff001916176101009590961694909402949094177fffffffffffffffffffffff00000000000000000000000000000000ffffffffff166501000000000067ffffffffffffffff948516027fffffffffffffffffffffff0000000000000000ffffffffffffffffffffffffff16176d010000000000000000000000000093909416929092029290921782559151910155565b611151611b50565b61115b6000611baa565b565b6003546040517fa62f19380000000000000000000000000000000000000000000000000000000081526000916001600160a01b03169063a62f1938906111a99086908690600401611fea565b61020060405180830381865afa1580156111c7573d6000803e3d6000fd5b505050506040513d601f19601f820116820180604052508101906111eb9190612179565b6003546040517f80e912a20000000000000000000000000000000000000000000000000000000081529192506000916001600160a01b03909116906380e912a29061123e90879087908790600401612262565b61d48060405180830381865afa15801561125c573d6000803e3d6000fd5b505050506040513d601f19601f82011682018060405250810190611280919061247f565b905061129c81836101e001516064811061060d5761060d61257d565b6112e85760405162461bcd60e51b815260206004820152600c60248201527f4e6f742076657269666965640000000000000000000000000000000000000000604482015260640161067a565b600480546101e08401516040517f2395b9110000000000000000000000000000000000000000000000000000000081526000936001600160a01b0390931692632395b9119261133e928a928a92918991016125fc565b602060405180830381865afa15801561135b573d6000803e3d6000fd5b505050506040513d601f19601f8201168201806040525081019061137f9190611f88565b9050806001600084866101e001516064811061139d5761139d61257d565b6020908102919091015160800151518252810191909152604001600020600101555050505050565b6002546040517f9be3b4b90000000000000000000000000000000000000000000000000000000081526001600160a01b0390911690639be3b4b99061141290869086908690600401612871565b600060405180830381600087803b15801561142c57600080fd5b505af1158015610861573d6000803e3d6000fd5b6003546040517fa62f19380000000000000000000000000000000000000000000000000000000081526000916001600160a01b03169063a62f19389061148c9087908790600401611fea565b61020060405180830381865afa1580156114aa573d6000803e3d6000fd5b505050506040513d601f19601f820116820180604052508101906114ce9190612179565b6003546040517f80e912a20000000000000000000000000000000000000000000000000000000081529192506000916001600160a01b03909116906380e912a29061152190889088908790600401612262565b61d48060405180830381865afa15801561153f573d6000803e3d6000fd5b505050506040513d601f19601f82011682018060405250810190611563919061247f565b9050600160008481526020019081526020016000206001015481836101e00151606481106115935761159361257d565b60200201516080015151146116105760405162461bcd60e51b815260206004820152602360248201527f426c6f636b2077697468206e65772068617368206973206e6f7420766572696660448201527f6965640000000000000000000000000000000000000000000000000000000000606482015260840161067a565b600480546101e08401516040517fd5ce2f9c00000000000000000000000000000000000000000000000000000000815260009384936001600160a01b03169263d5ce2f9c92611667928c928c9290918a91016125fc565b61078060405180830381865afa158015611685573d6000803e3d6000fd5b505050506040513d601f19601f820116820180604052508101906116a9919061270f565b9150915060005b600a811015610aa6578281600a81106116cb576116cb61257d565b602002015115610aa6578181600a81106116e7576116e761257d565b6020020151600160008584600a81106117025761170261257d565b602090810291909101518252818101929092526040908101600020835181549385015192850151606086015167ffffffffffffffff9081166d0100000000000000000000000000027fffffffffffffffffffffff0000000000000000ffffffffffffffffffffffffff919092166501000000000002167fffffffffffffffffffffff00000000000000000000000000000000ffffffffff63ffffffff9095166101000264ffffffff00199315159390931664ffffffffff1990961695909517919091179290921692909217178155608090910151600190910155806117e6816127f7565b9150506116b0565b6117f6611c12565b600260009054906101000a90046001600160a01b03166001600160a01b031663b7ab4db56040518163ffffffff1660e01b8152600401613e8060405180830381865afa15801561184a573d6000803e3d6000fd5b505050506040513d601f19601f8201168201806040525081019061186e91906128c7565b905090565b61187b611c12565b600260009054906101000a90046001600160a01b03166001600160a01b031663bd0aca6b6040518163ffffffff1660e01b8152600401613e8060405180830381865afa15801561184a573d6000803e3d6000fd5b6118d7611c7e565b600260009054906101000a90046001600160a01b03166001600160a01b031663df1d4c546040518163ffffffff1660e01b815260040161028060405180830381865afa15801561192b573d6000803e3d6000fd5b505050506040513d601f19601f8201168201806040525081019061186e9190612971565b611957611b50565b6001600160a01b0381166119d35760405162461bcd60e51b815260206004820152602660248201527f4f776e61626c653a206e6577206f776e657220697320746865207a65726f206160448201527f6464726573730000000000000000000000000000000000000000000000000000606482015260840161067a565b6119dc81611baa565b50565b6002546040517ff8930a31000000000000000000000000000000000000000000000000000000008152600481018390526000916001600160a01b03169063f8930a3190602401602060405180830381865afa158015611a42573d6000803e3d6000fd5b505050506040513d601f19601f82011682018060405250810190611a669190611f88565b6040805160a081018252600180825260006020808401828152848601838152606086018481526080870185815298855292859052959092209351845492519551915164ffffffffff1990931690151564ffffffff0019161761010063ffffffff90961695909502949094177fffffffffffffffffffffff00000000000000000000000000000000ffffffffff166501000000000067ffffffffffffffff958616027fffffffffffffffffffffff0000000000000000ffffffffffffffffffffffffff16176d0100000000000000000000000000949091169390930292909217815591519101555050565b6000546001600160a01b0316331461115b5760405162461bcd60e51b815260206004820181905260248201527f4f776e61626c653a2063616c6c6572206973206e6f7420746865206f776e6572604482015260640161067a565b600080546001600160a01b038381167fffffffffffffffffffffffff0000000000000000000000000000000000000000831681178455604051919092169283917f8be0079c531659141344cd1fd0a4f28419497f9722a3daafe3b4186f6b6457e09190a35050565b60405180610c8001604052806064905b6040805160a0810182526000808252602080830182905292820181905260608201819052608082015282527fffffffffffffffffffffffffffffffffffffffffffffffffffffffffffffffff909201910181611c225790505090565b604051806101400160405280600a905b6040805180820190915260008082526020820152815260200190600190039081611c8e5790505090565b600060208083528351808285015260005b81811015611ce557858101830151858201604001528201611cc9565b81811115611cf7576000604083870101525b50601f017fffffffffffffffffffffffffffffffffffffffffffffffffffffffffffffffe016929092016040019392505050565b60008083601f840112611d3d57600080fd5b50813567ffffffffffffffff811115611d5557600080fd5b602083019150836020828501011115611d6d57600080fd5b9250929050565b60008060208385031215611d8757600080fd5b823567ffffffffffffffff811115611d9e57600080fd5b611daa85828601611d2b565b90969095509350505050565b60008060408385031215611dc957600080fd5b50508035926020909101359150565b600060208284031215611dea57600080fd5b5035919050565b63ffffffff811681146119dc57600080fd5b60008060408385031215611e1657600080fd5b823591506020830135611e2881611df1565b809150509250929050565b60008060006107c0808587031215611e4a57600080fd5b8435935060208501359250858186011115611e6457600080fd5b506040840190509250925092565b600080600060408486031215611e8757600080fd5b833567ffffffffffffffff811115611e9e57600080fd5b611eaa86828701611d2b565b909790965060209590950135949350505050565b613e808101818360005b6064811015611f21578151805160ff16845260208082015167ffffffffffffffff168186015260408083015190860152606080830151908601526080918201519185019190915260a09093019290910190600101611ec8565b50505092915050565b6102808101818360005b600a811015611f21578151805184526020908101518185015260409093019290910190600101611f34565b600060208284031215611f7157600080fd5b81356001600160a01b03811681146108f857600080fd5b600060208284031215611f9a57600080fd5b5051919050565b8183528181602085013750600060208284010152600060207fffffffffffffffffffffffffffffffffffffffffffffffffffffffffffffffe0601f840116840101905092915050565b602081526000611ffe602083018486611fa1565b949350505050565b7f4e487b7100000000000000000000000000000000000000000000000000000000600052604160045260246000fd5b604051610200810167ffffffffffffffff8111828210171561205957612059612006565b60405290565b604051610100810167ffffffffffffffff8111828210171561205957612059612006565b60405160a0810167ffffffffffffffff8111828210171561205957612059612006565b6040805190810167ffffffffffffffff8111828210171561205957612059612006565b6040516080810167ffffffffffffffff8111828210171561205957612059612006565b604051610140810167ffffffffffffffff8111828210171561205957612059612006565b604051610c80810167ffffffffffffffff8111828210171561205957612059612006565b80517fffffffff000000000000000000000000000000000000000000000000000000008116811461216457600080fd5b919050565b8051801515811461216457600080fd5b6000610200828403121561218c57600080fd5b612194612035565b61219d83612134565b81526020830151602082015260408301516040820152606083015160608201526080830151608082015260a083015160a08201526121dd60c08401612169565b60c08201526121ee60e08401612169565b60e0820152610100612201818501612169565b90820152610120612213848201612169565b908201526101408381015190820152610160808401519082015261018080840151908201526101a080840151908201526101c080840151908201526101e0928301519281019290925250919050565b60006102208083526122778184018688611fa1565b9150506122a96020830184517fffffffff00000000000000000000000000000000000000000000000000000000169052565b602083015160408301526040830151606083015260608301516080830152608083015160a083015260a083015160c083015260c08301516122ee60e084018215159052565b5060e08301516101006123048185018315159052565b84015190506101206123198482018315159052565b840151905061014061232e8482018315159052565b84015161016084810191909152840151610180808501919091528401516101a0808501919091528401516101c0808501919091528401516101e08085019190915290930151610200909201919091529392505050565b600082601f83011261239557600080fd5b61239d6120c9565b8060808401858111156123af57600080fd5b845b818110156123c95780518452602093840193016123b1565b509095945050505050565b805160ff8116811461216457600080fd5b60006123ef6120ec565b90508061014083018481111561240457600080fd5b835b81811015611f21578051835260209283019201612406565b805161216481611df1565b600082601f83011261243a57600080fd5b6124426120c9565b80608084018581111561245457600080fd5b845b818110156123c957805161ffff811681146124715760008081fd5b845260209384019301612456565b600061d48080838503121561249357600080fd5b83601f8401126124a257600080fd5b6124aa612110565b9083019080858311156124bc57600080fd5b845b838110156125735761022081880312156124d85760008081fd5b6124e061205f565b6124e982612169565b815260206124f989828501612384565b8183015260a080840151604084015260c06125158186016123d4565b606085015260e06125288c828801612384565b608086015261253a610160870161241e565b8386015261254c8c6101808801612429565b8286015261255d61020087016123d4565b90850152505090845290920191610220016124be565b5095945050505050565b7f4e487b7100000000000000000000000000000000000000000000000000000000600052603260045260246000fd5b8060005b60048110156125cf5781518452602093840193909101906001016125b0565b50505050565b8060005b60048110156125cf57815161ffff168452602093840193909101906001016125d9565b600061d4c08083526126118184018789611fa1565b915050602084818401526040808401856000805b60648110156126e857825180511515855286810151878601845b600481101561265c5782518252918901919089019060010161263f565b5050508581015160a081818801526060830151915060c06126818189018460ff169052565b6080840151925060e0612696818a01856125ac565b8285015163ffffffff166101608a01528185015193506126ba6101808a01856125d5565b939093015160ff811661020089015292506126d3915050565b50610220939093019291850191600101612625565b50505050505095945050505050565b805167ffffffffffffffff8116811461216457600080fd5b60008061078080848603121561272457600080fd5b84601f85011261273357600080fd5b61273d85856123e5565b92508461015f85011261274f57600080fd5b6127576120ec565b90840190808683111561276957600080fd5b61014086015b838110156127e95760a081890312156127885760008081fd5b612790612083565b61279982612169565b81526020808301516127aa81611df1565b8282015260406127bb8482016126f7565b9083015260606127cc8482016126f7565b90830152608083810151908301529084529092019160a00161276f565b508093505050509250929050565b60007fffffffffffffffffffffffffffffffffffffffffffffffffffffffffffffffff820361284f577f4e487b7100000000000000000000000000000000000000000000000000000000600052601160045260246000fd5b5060010190565b60006020828403121561286857600080fd5b6108f882612169565b83815260208082018490526107c082019060408084018560005b60148110156128ba5781358352848201358584015283820135848401526060928301929091019060010161288b565b5050505050949350505050565b6000613e808083850312156128db57600080fd5b83601f8401126128ea57600080fd5b6128f2612110565b90830190808583111561290457600080fd5b845b838110156125735760a0818803121561291f5760008081fd5b612927612083565b612930826123d4565b8152602061293f8184016126f7565b82820152604083810151908301526060808401519083015260808084015190830152908452929092019160a001612906565b600061028080838503121561298557600080fd5b83601f84011261299457600080fd5b61299c6120ec565b9083019080858311156129ae57600080fd5b845b8381101561257357604081880312156129c95760008081fd5b6129d16120a6565b815181526020808301518183015290845292909201916040016129b056fea264697066735822122087df3fcecfa069aacf68408e686633dc756b2cf205c3b01aa3a4288d203261d964736f6c634300080f0033",
  "linkReferences": {},
  "deployedLinkReferences": {}
}