{
  "_format": "hh-sol-artifact-1",
  "contractName": "SignatureValidator",
  "sourceName": "contracts/validator/SignatureValidator.sol",
  "abi": [
    {
      "inputs": [
        {
          "internalType": "address",
          "name": "blockParserAddr",
          "type": "address"
        }
      ],
      "stateMutability": "nonpayable",
      "type": "constructor"
    },
    {
      "anonymous": false,
      "inputs": [
        {
          "indexed": true,
          "internalType": "address",
          "name": "previousOwner",
          "type": "address"
        },
        {
          "indexed": true,
          "internalType": "address",
          "name": "newOwner",
          "type": "address"
        }
      ],
      "name": "OwnershipTransferred",
      "type": "event"
    },
    {
      "inputs": [
        {
          "internalType": "bytes32",
          "name": "root_h",
          "type": "bytes32"
        }
      ],
      "name": "addCurrentBlockToVerifiedSet",
      "outputs": [
        {
          "internalType": "bytes32",
          "name": "",
          "type": "bytes32"
        }
      ],
      "stateMutability": "view",
      "type": "function"
    },
    {
      "inputs": [],
      "name": "getCandidatesForValidators",
      "outputs": [
        {
          "components": [
            {
              "internalType": "uint8",
              "name": "cType",
              "type": "uint8"
            },
            {
              "internalType": "uint64",
              "name": "weight",
              "type": "uint64"
            },
            {
              "internalType": "bytes32",
              "name": "adnl_addr",
              "type": "bytes32"
            },
            {
              "internalType": "bytes32",
              "name": "pubkey",
              "type": "bytes32"
            },
            {
              "internalType": "bytes32",
              "name": "node_id",
              "type": "bytes32"
            }
          ],
          "internalType": "struct ValidatorDescription[100]",
          "name": "",
          "type": "tuple[100]"
        }
      ],
      "stateMutability": "view",
      "type": "function"
    },
    {
      "inputs": [],
      "name": "getPrunedCells",
      "outputs": [
        {
          "components": [
            {
              "internalType": "uint256",
              "name": "prefixLength",
              "type": "uint256"
            },
            {
              "internalType": "bytes32",
              "name": "hash",
              "type": "bytes32"
            }
          ],
          "internalType": "struct CachedCell[10]",
          "name": "",
          "type": "tuple[10]"
        }
      ],
      "stateMutability": "view",
      "type": "function"
    },
    {
      "inputs": [],
      "name": "getValidators",
      "outputs": [
        {
          "components": [
            {
              "internalType": "uint8",
              "name": "cType",
              "type": "uint8"
            },
            {
              "internalType": "uint64",
              "name": "weight",
              "type": "uint64"
            },
            {
              "internalType": "bytes32",
              "name": "adnl_addr",
              "type": "bytes32"
            },
            {
              "internalType": "bytes32",
              "name": "pubkey",
              "type": "bytes32"
            },
            {
              "internalType": "bytes32",
              "name": "node_id",
              "type": "bytes32"
            }
          ],
          "internalType": "struct ValidatorDescription[100]",
          "name": "",
          "type": "tuple[100]"
        }
      ],
      "stateMutability": "view",
      "type": "function"
    },
    {
      "inputs": [],
      "name": "initValidators",
      "outputs": [
        {
          "internalType": "bytes32",
          "name": "",
          "type": "bytes32"
        }
      ],
      "stateMutability": "nonpayable",
      "type": "function"
    },
    {
      "inputs": [
        {
          "internalType": "bytes32",
          "name": "node_id",
          "type": "bytes32"
        },
        {
          "internalType": "bytes32",
          "name": "root_h",
          "type": "bytes32"
        }
      ],
      "name": "isSignedByValidator",
      "outputs": [
        {
          "internalType": "bool",
          "name": "",
          "type": "bool"
        }
      ],
      "stateMutability": "view",
      "type": "function"
    },
    {
      "inputs": [],
      "name": "owner",
      "outputs": [
        {
          "internalType": "address",
          "name": "",
          "type": "address"
        }
      ],
      "stateMutability": "view",
      "type": "function"
    },
    {
      "inputs": [
        {
          "internalType": "bytes",
          "name": "boc",
          "type": "bytes"
        },
        {
          "internalType": "uint256",
          "name": "rootIdx",
          "type": "uint256"
        },
        {
          "components": [
            {
              "internalType": "bool",
              "name": "special",
              "type": "bool"
            },
            {
              "internalType": "uint256[4]",
              "name": "refs",
              "type": "uint256[4]"
            },
            {
              "internalType": "uint256",
              "name": "cursor",
              "type": "uint256"
            },
            {
              "internalType": "uint8",
              "name": "cursorRef",
              "type": "uint8"
            },
            {
              "internalType": "bytes32[4]",
              "name": "_hash",
              "type": "bytes32[4]"
            },
            {
              "internalType": "uint32",
              "name": "level_mask",
              "type": "uint32"
            },
            {
              "internalType": "uint16[4]",
              "name": "depth",
              "type": "uint16[4]"
            },
            {
              "internalType": "uint8",
              "name": "cellType",
              "type": "uint8"
            }
          ],
          "internalType": "struct CellData[100]",
          "name": "treeOfCells",
          "type": "tuple[100]"
        }
      ],
      "name": "parseCandidatesRootBlock",
      "outputs": [],
      "stateMutability": "nonpayable",
      "type": "function"
    },
    {
      "inputs": [
        {
          "internalType": "bytes",
          "name": "data",
          "type": "bytes"
        },
        {
          "internalType": "uint256",
          "name": "cellIdx",
          "type": "uint256"
        },
        {
          "components": [
            {
              "internalType": "bool",
              "name": "special",
              "type": "bool"
            },
            {
              "internalType": "uint256[4]",
              "name": "refs",
              "type": "uint256[4]"
            },
            {
              "internalType": "uint256",
              "name": "cursor",
              "type": "uint256"
            },
            {
              "internalType": "uint8",
              "name": "cursorRef",
              "type": "uint8"
            },
            {
              "internalType": "bytes32[4]",
              "name": "_hash",
              "type": "bytes32[4]"
            },
            {
              "internalType": "uint32",
              "name": "level_mask",
              "type": "uint32"
            },
            {
              "internalType": "uint16[4]",
              "name": "depth",
              "type": "uint16[4]"
            },
            {
              "internalType": "uint8",
              "name": "cellType",
              "type": "uint8"
            }
          ],
          "internalType": "struct CellData[100]",
          "name": "cells",
          "type": "tuple[100]"
        }
      ],
      "name": "parsePartValidators",
      "outputs": [],
      "stateMutability": "nonpayable",
      "type": "function"
    },
    {
      "inputs": [],
      "name": "renounceOwnership",
      "outputs": [],
      "stateMutability": "nonpayable",
      "type": "function"
    },
    {
      "inputs": [],
      "name": "setValidatorSet",
      "outputs": [
        {
          "internalType": "bytes32",
          "name": "",
          "type": "bytes32"
        }
      ],
      "stateMutability": "nonpayable",
      "type": "function"
    },
    {
      "inputs": [
        {
          "internalType": "address",
          "name": "newOwner",
          "type": "address"
        }
      ],
      "name": "transferOwnership",
      "outputs": [],
      "stateMutability": "nonpayable",
      "type": "function"
    },
    {
      "inputs": [
        {
          "internalType": "bytes32",
          "name": "root_h",
          "type": "bytes32"
        },
        {
          "internalType": "bytes32",
          "name": "file_hash",
          "type": "bytes32"
        },
        {
          "components": [
            {
              "internalType": "bytes32",
              "name": "node_id",
              "type": "bytes32"
            },
            {
              "internalType": "bytes32",
              "name": "r",
              "type": "bytes32"
            },
            {
              "internalType": "bytes32",
              "name": "s",
              "type": "bytes32"
            }
          ],
          "internalType": "struct Vdata[20]",
          "name": "vdata",
          "type": "tuple[20]"
        }
      ],
      "name": "verifyValidators",
      "outputs": [],
      "stateMutability": "nonpayable",
      "type": "function"
    }
  ],
  "bytecode": "0x608060405261019180546001600160401b0319908116909155610336805490911690553480156200002f57600080fd5b5060405162005c9c38038062005c9c8339810160408190526200005291620000d4565b6200005d3362000084565b61033880546001600160a01b0319166001600160a01b039290921691909117905562000106565b600080546001600160a01b038381166001600160a01b0319831681178455604051919092169283917f8be0079c531659141344cd1fd0a4f28419497f9722a3daafe3b4186f6b6457e09190a35050565b600060208284031215620000e757600080fd5b81516001600160a01b0381168114620000ff57600080fd5b9392505050565b615b8680620001166000396000f3fe608060405234801561001057600080fd5b50600436106100df5760003560e01c80639be3b4b91161008c578063bddb49a511610066578063bddb49a5146101bb578063df1d4c54146101ce578063f2fde38b146101e3578063f8930a31146101f657600080fd5b80639be3b4b91461018b578063b7ab4db51461019e578063bd0aca6b146101b357600080fd5b8063715018a6116100bd578063715018a61461014657806387cef8ce146101505780638da5cb5b1461016357600080fd5b806316e6553a146100e45780631dea0b4f146100ff578063531b00af1461013e575b600080fd5b6100ec610209565b6040519081526020015b60405180910390f35b61012e61010d3660046151e8565b60009182526103396020908152604080842092845291905290205460ff1690565b60405190151581526020016100f6565b6100ec6102e2565b61014e610528565b005b61014e61015e3660046153da565b61053c565b60005460405173ffffffffffffffffffffffffffffffffffffffff90911681526020016100f6565b61014e610199366004615540565b610bd7565b6101a6610e26565b6040516100f6919061557f565b6101a6610eb1565b61014e6101c93660046153da565b610f19565b6101d6611516565b6040516100f691906155eb565b61014e6101f1366004615620565b61156f565b6100ec610204366004615656565b61160c565b6000610213611743565b600154610100900467ffffffffffffffff16156102775760405162461bcd60e51b815260206004820152601c60248201527f63757272656e742076616c696461746f7273206e6f7420656d7074790000000060448201526064015b60405180910390fd5b61028660016101a66064614f87565b506102946101a66000615039565b50610336805461019180547fffffffffffffffffffffffffffffffffffffffffffffffff000000000000000090811667ffffffffffffffff8416179091551690556103378054600090915590565b600154600090610100900467ffffffffffffffff16810361030257600080fd5b60005b600a81101561038d5761019281600a81106103225761032261566f565b60020201600101546000801b1461037b5760405162461bcd60e51b815260206004820152601860248201527f6e656564207265616420616c6c2076616c696461746f72730000000000000000604482015260640161026e565b80610385816156cd565b915050610305565b506000805b6064811015610436576103396000600183606481106103b3576103b361566f565b60040201600301548152602001908152602001600020600061033754815260200190815260200160002060009054906101000a900460ff161561042457600181606481106104035761040361566f565b600402015461042190610100900467ffffffffffffffff16836156e7565b91505b8061042e816156cd565b915050610392565b50610191546104509067ffffffffffffffff166002615713565b67ffffffffffffffff16610465826003615713565b67ffffffffffffffff16116104bc5760405162461bcd60e51b815260206004820152601160248201527f6e6f7420656e6f7567687420766f746573000000000000000000000000000000604482015260640161026e565b6104cb60016101a66064614f87565b506104d96101a66000615039565b5050610336805461019180547fffffffffffffffffffffffffffffffffffffffffffffffff000000000000000090811667ffffffffffffffff8416179091551690556103378054600090915590565b610530611743565b61053a60006117aa565b565b60008060005b600a8110156105e55783856064811061055d5761055d61566f565b6020020151608001515161019282600a811061057b5761057b61566f565b6002020160010154036105d3576001925061019281600a81106105a0576105a061566f565b6002020154915061019281600a81106105bb576105bb61566f565b600060029190910291909101818155600101556105e5565b806105dd816156cd565b915050610542565b50816106335760405162461bcd60e51b815260206004820152601860248201527f57726f6e6720626f6320666f722076616c696461746f72730000000000000000604482015260640161026e565b610338546040517fed78d52100000000000000000000000000000000000000000000000000000000815260009173ffffffffffffffffffffffffffffffffffffffff169063ed78d52190610693908a908a908a908a9089906004016158af565b61140060405180830381865afa1580156106b1573d6000803e3d6000fd5b505050506040513d601f19601f820116820180604052508101906106d591906158eb565b905060005b6020811015610bcd5760005b6064811015610bba576101a681606481106107035761070361566f565b6004020154610100900467ffffffffffffffff166000036108c6578282602081106107305761073061566f565b602090810291909101510151610336805460009061075990849067ffffffffffffffff166156e7565b92506101000a81548167ffffffffffffffff021916908367ffffffffffffffff1602179055508282602081106107915761079161566f565b60200201516101a682606481106107aa576107aa61566f565b8251600491909102919091018054602084015167ffffffffffffffff166101000268ffffffffffffffffff1990911660ff9093169290921791909117815560408201516001820155606082015160028201556080909101516003909101556103385473ffffffffffffffffffffffffffffffffffffffff16631acbaa626101a6836064811061083b5761083b61566f565b60040201600201546040518263ffffffff1660e01b815260040161086191815260200190565b602060405180830381865afa15801561087e573d6000803e3d6000fd5b505050506040513d601f19601f820116820180604052508101906108a291906159b1565b6101a682606481106108b6576108b661566f565b6004020160030181905550610bba565b8282602081106108d8576108d861566f565b60200201516020015167ffffffffffffffff166101a682606481106108ff576108ff61566f565b6004020154610100900467ffffffffffffffff161015610ba85782826020811061092b5761092b61566f565b602090810291909101510151610336805460009061095490849067ffffffffffffffff166156e7565b92506101000a81548167ffffffffffffffff021916908367ffffffffffffffff1602179055506101a6816064811061098e5761098e61566f565b6004020154610336805467ffffffffffffffff6101009093048316926000916109b9918591166159ca565b92506101000a81548167ffffffffffffffff021916908367ffffffffffffffff16021790555060006101a682606481106109f5576109f561566f565b6040805160a08101825260049290920292909201805460ff81168352610100900467ffffffffffffffff16602080840191909152600182015493830193909352600281015460608301526003015460808201529150849084908110610a5c57610a5c61566f565b60200201516101a68360648110610a7557610a7561566f565b825160049190910291909101805460208085015167ffffffffffffffff166101000268ffffffffffffffffff1990921660ff9094169390931717815560408301516001820155606083015160028201556080909201516003909201919091558190859085908110610ae857610ae861566f565b60200201526103385473ffffffffffffffffffffffffffffffffffffffff16631acbaa626101a68460648110610b2057610b2061566f565b60040201600201546040518263ffffffff1660e01b8152600401610b4691815260200190565b602060405180830381865afa158015610b63573d6000803e3d6000fd5b505050506040513d601f19601f82011682018060405250810190610b8791906159b1565b6101a68360648110610b9b57610b9b61566f565b6004020160030181905550505b80610bb2816156cd565b9150506106e6565b5080610bc5816156cd565b9150506106da565b5050505050505050565b6103375460009015610bec5761033754610bee565b835b90508015801590610bfe57508215155b610c4a5760405162461bcd60e51b815260206004820152601c60248201527f77726f6e6720726f6f745f68617368206f722066696c655f6861736800000000604482015260640161026e565b606460005b6014811015610e1e5760005b6064811015610cb557848260148110610c7657610c7661566f565b606002013560018260648110610c8e57610c8e61566f565b600402016003015403610ca357809250610cb5565b80610cad816156cd565b915050610c5b565b5060648203610d065760405162461bcd60e51b815260206004820152600d60248201527f77726f6e67206e6f64655f696400000000000000000000000000000000000000604482015260640161026e565b610dae60018360648110610d1c57610d1c61566f565b6004020160020154858360148110610d3657610d3661566f565b6060020160200135868460148110610d5057610d5061566f565b604080517f706e0bc5000000000000000000000000000000000000000000000000000000006020820152602481018a9052604481018c905260609290920292909201909101359060640160405160208183030381529060405261181f565b15610e0c576001610339600060018560648110610dcd57610dcd61566f565b60040201600301548152602001908152602001600020600085815260200190815260200160002060006101000a81548160ff0219169083151502179055505b80610e16816156cd565b915050610c4f565b505050505050565b610e2e615049565b60408051610c808101909152600160646000835b82821015610ea8576040805160a081018252600484028601805460ff81168352610100900467ffffffffffffffff166020808401919091526001808301549484019490945260028201546060840152600390910154608083015290835292019101610e42565b50505050905090565b610eb9615049565b60408051610d2081019091526101a6805460ff8116610c80840190815261010090910467ffffffffffffffff16610ca08401526101a754610cc08401526101a854610ce08401526101a954610d0084015282526064600160208401610e42565b610f266101a66000615039565b61033680547fffffffffffffffffffffffffffffffffffffffffffffffff0000000000000000169055610f5c6101926000615097565b808260648110610f6e57610f6e61566f565b6020020151608001515161033755610338546040517fbddb49a500000000000000000000000000000000000000000000000000000000815260009173ffffffffffffffffffffffffffffffffffffffff169063bddb49a590610fda9088908890889088906004016159f3565b611400604051808303816000875af1158015610ffa573d6000803e3d6000fd5b505050506040513d601f19601f8201168201806040525081019061101e91906158eb565b905060005b6020811015610e1e5760005b6064811015611503576101a6816064811061104c5761104c61566f565b6004020154610100900467ffffffffffffffff1660000361120f578282602081106110795761107961566f565b60209081029190910151015161033680546000906110a290849067ffffffffffffffff166156e7565b92506101000a81548167ffffffffffffffff021916908367ffffffffffffffff1602179055508282602081106110da576110da61566f565b60200201516101a682606481106110f3576110f361566f565b8251600491909102919091018054602084015167ffffffffffffffff166101000268ffffffffffffffffff1990911660ff9093169290921791909117815560408201516001820155606082015160028201556080909101516003909101556103385473ffffffffffffffffffffffffffffffffffffffff16631acbaa626101a683606481106111845761118461566f565b60040201600201546040518263ffffffff1660e01b81526004016111aa91815260200190565b602060405180830381865afa1580156111c7573d6000803e3d6000fd5b505050506040513d601f19601f820116820180604052508101906111eb91906159b1565b6101a682606481106111ff576111ff61566f565b6004020160030181905550611503565b8282602081106112215761122161566f565b60200201516020015167ffffffffffffffff166101a682606481106112485761124861566f565b6004020154610100900467ffffffffffffffff1610156114f1578282602081106112745761127461566f565b602090810291909101510151610336805460009061129d90849067ffffffffffffffff166156e7565b92506101000a81548167ffffffffffffffff021916908367ffffffffffffffff1602179055506101a681606481106112d7576112d761566f565b6004020154610336805467ffffffffffffffff610100909304831692600091611302918591166159ca565b92506101000a81548167ffffffffffffffff021916908367ffffffffffffffff16021790555060006101a6826064811061133e5761133e61566f565b6040805160a08101825260049290920292909201805460ff81168352610100900467ffffffffffffffff166020808401919091526001820154938301939093526002810154606083015260030154608082015291508490849081106113a5576113a561566f565b60200201516101a683606481106113be576113be61566f565b825160049190910291909101805460208085015167ffffffffffffffff166101000268ffffffffffffffffff1990921660ff90941693909317178155604083015160018201556060830151600282015560809092015160039092019190915581908590859081106114315761143161566f565b60200201526103385473ffffffffffffffffffffffffffffffffffffffff16631acbaa626101a684606481106114695761146961566f565b60040201600201546040518263ffffffff1660e01b815260040161148f91815260200190565b602060405180830381865afa1580156114ac573d6000803e3d6000fd5b505050506040513d601f19601f820116820180604052508101906114d091906159b1565b6101a683606481106114e4576114e461566f565b6004020160030181905550505b806114fb816156cd565b91505061102f565b508061150e816156cd565b915050611023565b61151e6150a6565b604080516101408101909152610192600a6000835b82821015610ea8578382600202016040518060400160405290816000820154815260200160018201548152505081526020019060010190611533565b611577611743565b73ffffffffffffffffffffffffffffffffffffffff81166116005760405162461bcd60e51b815260206004820152602660248201527f4f776e61626c653a206e6577206f776e657220697320746865207a65726f206160448201527f6464726573730000000000000000000000000000000000000000000000000000606482015260840161026e565b611609816117aa565b50565b600080805b60648110156116b2576103396000600183606481106116325761163261566f565b60040201600301548152602001908152602001600020600085815260200190815260200160002060009054906101000a900460ff16156116a0576001816064811061167f5761167f61566f565b600402015461169d90610100900467ffffffffffffffff16836156e7565b91505b806116aa816156cd565b915050611611565b50610191546116cc9067ffffffffffffffff166002615713565b67ffffffffffffffff166116e1826003615713565b67ffffffffffffffff16116117385760405162461bcd60e51b815260206004820152601160248201527f6e6f7420656e6f7567687420766f746573000000000000000000000000000000604482015260640161026e565b505061033754919050565b60005473ffffffffffffffffffffffffffffffffffffffff16331461053a5760405162461bcd60e51b815260206004820181905260248201527f4f776e61626c653a2063616c6c6572206973206e6f7420746865206f776e6572604482015260640161026e565b6000805473ffffffffffffffffffffffffffffffffffffffff8381167fffffffffffffffffffffffff0000000000000000000000000000000000000000831681178455604051919092169283917f8be0079c531659141344cd1fd0a4f28419497f9722a3daafe3b4186f6b6457e09190a35050565b600080600083516020806118339190615a27565b60ff166118409190615a4c565b67ffffffffffffffff8111156118585761185861520a565b6040519080825280601f01601f191660200182016040528015611882576020820181803683370190505b50905060005b60208110156118fa578681602081106118a3576118a361566f565b1a60f81b8282815181106118b9576118b961566f565b60200101907effffffffffffffffffffffffffffffffffffffffffffffffffffffffffffff1916908160001a905350806118f2816156cd565b915050611888565b5060005b602081101561197a578781602081106119195761191961566f565b1a60f81b82611929836020615a4c565b815181106119395761193961566f565b60200101907effffffffffffffffffffffffffffffffffffffffffffffffffffffffffffff1916908160001a90535080611972816156cd565b9150506118fe565b5060005b8451811015611a1d578481815181106119995761199961566f565b01602001517fff0000000000000000000000000000000000000000000000000000000000000016826119cc836040615a4c565b815181106119dc576119dc61566f565b60200101907effffffffffffffffffffffffffffffffffffffffffffffffffffffffffffff1916908160001a90535080611a15816156cd565b91505061197e565b506000611a2982613387565b9050600060c0826003602002015167ffffffffffffffff16901b6080836002602002015167ffffffffffffffff16901b6040846001602002015167ffffffffffffffff16901b846000602002015167ffffffffffffffff1617171790506008817fff00ff00ff00ff00ff00ff00ff00ff00ff00ff00ff00ff00ff00ff00ff00ff0016901c6008827eff00ff00ff00ff00ff00ff00ff00ff00ff00ff00ff00ff00ff00ff00ff00ff16901b1790506010817fffff0000ffff0000ffff0000ffff0000ffff0000ffff0000ffff0000ffff000016901c6010827dffff0000ffff0000ffff0000ffff0000ffff0000ffff0000ffff0000ffff16901b1790506020817fffffffff00000000ffffffff00000000ffffffff00000000ffffffff0000000016901c6020827bffffffff00000000ffffffff00000000ffffffff00000000ffffffff16901b179050600060c083600760088110611b8957611b8961566f565b602002015167ffffffffffffffff16901b6080846006602002015167ffffffffffffffff16901b6040856005602002015167ffffffffffffffff16901b856004602002015167ffffffffffffffff1617171790506008817fff00ff00ff00ff00ff00ff00ff00ff00ff00ff00ff00ff00ff00ff00ff00ff0016901c6008827eff00ff00ff00ff00ff00ff00ff00ff00ff00ff00ff00ff00ff00ff00ff00ff16901b1790506010817fffff0000ffff0000ffff0000ffff0000ffff0000ffff0000ffff0000ffff000016901c6010827dffff0000ffff0000ffff0000ffff0000ffff0000ffff0000ffff0000ffff16901b1790506020817fffffffff00000000ffffffff00000000ffffffff00000000ffffffff0000000016901c6020827bffffffff00000000ffffffff00000000ffffffff00000000ffffffff16901b1790507f1000000000000000000000000000000014def9dea2f79cd65812631a5cf5d3ed80611cf757611cf7615a64565b7f1000000000000000000000000000000014def9dea2f79cd65812631a5cf5d3ed7f0ffffffffffffffffffffffffffffffec6ef5bf4737dcf70d6ec31748d98951d8309830877ffffffff000000000000000000000000ffffffff000000007dff000000ff000000ff000000ff000000ff000000ff000000ff000000ff0060088d811b9182167cff000000ff000000ff000000ff000000ff000000ff000000ff000000ff9e90911c9d8e1617601090811b7fff000000ff000000ff000000ff000000ff000000ff000000ff000000ff0000009092167eff000000ff000000ff000000ff000000ff000000ff000000ff000000ff0000909e169d909d17909c1c9b909b17602081811b9c8d1673ffffffff000000000000000000000000ffffffff9290911c91821617604090811b7fffffffff000000000000000000000000ffffffff000000000000000000000000909d167bffffffff000000000000000000000000ffffffff000000000000000090921691909117901c9a909a17608081811b91901c17999450507f7fffffffffffffffffffffffffffffffffffffffffffffffffffffffffffffff89169250600091508190506013600160ff1b03838409905060006013600160ff1b037f7fffffffffffffffffffffffffffffffffffffffffffffffffffffffffffffec8308905060006013600160ff1b037f52036cee2b6ffe738cc740797779e89800700a4d4141d8ab75eb4dca135978a38409611f1f906001615a4c565b905060006013600160ff1b038284099050611f3981613dff565b5094506013600160ff1b0385860994506013600160ff1b0380826013600160ff1b0388890909840994506013600160ff1b03826013600160ff1b03878809099050828114611fd657611f92836013600160ff1b03615a93565b8114611fa857600097505050505050505061337f565b6013600160ff1b037f2b8324804fc1df0b2b4d00993dfbd7a72f431806ad2fe478c4ee1b274a0ea0b0860994505b5050505060ff88901c6001821614611ffc57611ff9816013600160ff1b03615a93565b90505b77ffffffff000000000000000000000000ffffffff000000007dff000000ff000000ff000000ff000000ff000000ff000000ff000000ff00600888811b9182167cff000000ff000000ff000000ff000000ff000000ff000000ff000000ff9990911c98891617601090811b7fff000000ff000000ff000000ff000000ff000000ff000000ff000000ff0000009092167eff000000ff000000ff000000ff000000ff000000ff000000ff000000ff00009099169890981790971c96909617602081811b97881673ffffffff000000000000000000000000ffffffff9290911c91821617604090811b7fffffffff000000000000000000000000ffffffff0000000000000000000000009098167bffffffff000000000000000000000000ffffffff000000000000000090921691909117901c95909517608081811b91901c17947f1000000000000000000000000000000014def9dea2f79cd65812631a5cf5d3ed861061216e576000935050505061337f565b60008060008061217c6150e0565b60006121888789615a4c565b905060008761219e8a6013600160ff1b03615a4c565b6121a89190615a93565b905060006013600160ff1b037f2406d9dc56dffce7198e80f2eef3d13000e0149a8283b156ebd69b9426b2f1596013600160ff1b038c8c09099050898960018060006013600160ff1b03828509905060006013600160ff1b03848709905060006013600160ff1b03848609905060006013600160ff1b03848509905060006013600160ff1b03848509905060006013600160ff1b03858709905060006013600160ff1b03858609905061225b8280615a4c565b99508361226f846013600160ff1b03615a4c565b6122799190615a93565b98506122858385615a4c565b9a506013600160ff1b0361229b8a602519615a93565b6122a58380615a4c565b0897505050505050505060006013600160ff1b03806122c6576122c6615a64565b828509905060006013600160ff1b03848709905060006013600160ff1b03848609905060006013600160ff1b03848509905060006013600160ff1b03848509905060006013600160ff1b03858709905060006013600160ff1b03858609905061232f8280615a4c565b995083612343846013600160ff1b03615a4c565b61234d9190615a93565b98506123598385615a4c565b9a506013600160ff1b0361236f8a602519615a93565b6123798380615a4c565b0897505050505050505060006013600160ff1b038061239a5761239a615a64565b828509905060006013600160ff1b03848709905060006013600160ff1b03848609905060006013600160ff1b03848509905060006013600160ff1b03848509905060006013600160ff1b03858709905060006013600160ff1b0385860990506124038280615a4c565b995083612417846013600160ff1b03615a4c565b6124219190615a93565b985061242d8385615a4c565b9a506013600160ff1b036124438a602519615a93565b61244d8380615a4c565b089750600196508e955060009450505050505b6000808080806013600160ff1b03898c09905060006013600160ff1b038b8e09905060006013600160ff1b038b8d0990506013600160ff1b038e8e0994506124a88383615a4c565b9650826124bc836013600160ff1b03615a4c565b6124c69190615a93565b95506124d28180615a4c565b935050505083866001600281106124eb576124eb61566f565b60200201515186600881106125025761250261566f565b60200201528286600160200201516001602002015186600881106125285761252861566f565b60200201526013600160ff1b037f2406d9dc56dffce7198e80f2eef3d13000e0149a8283b156ebd69b9426b2f159830960208701516040015186600881106125725761257261566f565b60200201528551518190866008811061258d5761258d61566f565b60200201528686600060200201516001602002015186600881106125b3576125b361566f565b60200201526013600160ff1b038188099650846007036125d65750505050612671565b60006013600160ff1b038f8609905060006013600160ff1b038f8609905060006013600160ff1b038f8609905081612615846013600160ff1b03615a4c565b61261f9190615a93565b9c506013600160ff1b038185089b506126388284615a4c565b9d506013600160ff1b03612653826013600160ff1b03615a93565b85089a50505050505050508080612669906156cd565b915050612460565b50600061267d83613dff565b90935090506013600160ff1b0383840992506013600160ff1b0383840992506013600160ff1b0383840992506013600160ff1b0383840992506013600160ff1b0383840992506013600160ff1b03818409925060075b8251602001516000906013600160ff1b039083600881106126f6576126f661566f565b602002015186096020850151519091506013600160ff1b0390829084600881106127225761272261566f565b602002015109602085015151836008811061273f5761273f61566f565b60200201526013600160ff1b0381856001602002015160016020020151846008811061276d5761276d61566f565b6020020151096020808601510151836008811061278c5761278c61566f565b60200201526013600160ff1b038185600160200201516002602002015184600881106127ba576127ba61566f565b60200201510960208501516040015183600881106127da576127da61566f565b602002015260008290036127ee5750612828565b8351516013600160ff1b0390836008811061280b5761280b61566f565b60200201518609945050808061282090615aaa565b9150506126d3565b5060405180606001604052806040518061010001604052807f43e7ce9d19ea5d329385a44c321ea16167c996e37dc6070c97de49e37ac61db981526020017f40cff34425d8ec30a3bb74ba58cd5854fa1e38186ad0d31ebc8ae251ceb2c97e81526020017f459bd27046e8dd45aea7008db87a5a8f7906779253d64523589518599fdfbf4b81526020017f69fdd1e28c23cc3894d0c8ff90e76f6d5b6e4c2e620136d04dd83c4a51581ab981526020017f54dceb3413ce5cfa11196dfc960b6edaf4b380c6d4d2378419cc0279ba49c5f381526020017f4e24184dd71a3d77eef3729f7f8cf7c17224cf40aa7b9548b9942f3c5084ceed81526020017f5a0e5aab20262674ae1175761cbf5e889b52a55fd7ac5027c228cebdc8d2360a81526020017f26239334073e9b38c62859556d451c3dcc8d30e84b361174f488eadde2cf17d981525081526020016040518061010001604052807f227e97c94c7c0933d2e0c21a3447c504fe9ccf82e8a05f59ce881c82eba0489f81526020017f226a3e0ecc4afec6fd0d288413014a9dbddecf06c1a2f0bb702ba77c613d820981526020017f34d7efc851d45c5e71efeb0f235b794691de6228877569b3a8d52bf058b8a4a081526020017f3c1f5fb3ca7166fce1471c9b752b6d28c56301ad7b65e8451b2c8c5526726e1281526020017f6102416cf02f02ff5be75275f55f28db89b2a9d2456b860ce22fc0e5031f7cc581526020017f40adf677f1bfdae057f0fd179c12617918ddaa2891a6530fb1a4294fa866549081526020017f61936f3c415609046187b8baa978cbc9b47893363ae5a3cc7d909f3635ae7f4881526020017f562a9662b6ec47f9e979d473c02b51e4423368238c58ddb52f0e5c6a180e641081525081526020016040518061010001604052807f3788bdb44f8632d42d0dbee5eea1acc6136cf411e655624f55e48902c3bd553481526020017f6190cf2c2a7b5ad769d594a82844f23b4167fa7c8ac30e51aa6cfbebdcd4b94581526020017f65f7787096be9204123a71f3ac88a87be1513217737d6a1e2f3a13a43d7e3a9a81526020017f023af32dbfa67975536479a7a7ce74a02142147fac0480187f1f13349cda1f2d81526020017f64fc44b7fc6841bddb0ced8b8b0fe6759137ef87ee96651215fc1dbcd25c64dc81526020017f1434aa3748b701d5b69df3d7d340c1fe3f6b9c1efc617484caadb47e382f447581526020017f457a6da8c962ef35f2b217423e5844e9d23534527e8ea4290d24e3ddf21720c681526020017f63b9540ceb60ccb51e4d989d956e053cf2511837efb79089d2ff40284202c53d81525081525082600060028110612c0257612c0261566f565b602002018190525050505050505050505050600060038c60001c901b90506000897f80000000000000000000000000000000a6f7cef517bce6b2c09318d2e7ae9f60612c4e9190615a4c565b905060006001808060fc5b6008811b87811615612dd3576000808080806013600160ff1b03888c09905060006013600160ff1b038b8b099050612c918282615a4c565b955081612ca5826013600160ff1b03615a4c565b612caf9190615a93565b94506013600160ff1b03898c0993506013600160ff1b038a8d09925050506000868d901c6007169050866007901b198d169c5060008e905060006013600160ff1b0380612cfe57612cfe615a64565b8251602001518460088110612d1557612d1561566f565b602002015187098251519091506000906013600160ff1b03908560088110612d3f57612d3f61566f565b602002015189098351604001519091506000906013600160ff1b03908660088110612d6c57612d6c61566f565b60200201518709905082612d87836013600160ff1b03615a4c565b612d919190615a93565b9e50612d9d8188615a4c565b9d50612da98383615a4c565b9c5080612dbd886013600160ff1b03615a4c565b612dc79190615a93565b9b505050505050505050505b86811615612f44576000808080806013600160ff1b03888c09905060006013600160ff1b038b8b099050612e078282615a4c565b955081612e1b826013600160ff1b03615a4c565b612e259190615a93565b94506013600160ff1b03898c0993506013600160ff1b038a8d096007808a1b198f169e91945090891c1691508e905060006013600160ff1b038260016020020151600060200201518460088110612e7e57612e7e61566f565b6020020151870960208084015101519091506000906013600160ff1b03908560088110612ead57612ead61566f565b602002015189096020840151604001519091506000906013600160ff1b03908660088110612edd57612edd61566f565b60200201518709905082612ef8836013600160ff1b03615a4c565b612f029190615a93565b9e5080612f16886013600160ff1b03615a4c565b612f209190615a93565b9d50612f2c8383615a4c565b9c50612f388188615a4c565b9b505050505050505050505b816000036130ae576000808080806013600160ff1b03888c09905060006013600160ff1b038b8b099050612f788282615a4c565b955081612f8c826013600160ff1b03615a4c565b612f969190615a93565b94506013600160ff1b03898c0993506013600160ff1b038a8d099250505060078b168d60006013600160ff1b038260016020020151600060200201518460088110612fe357612fe361566f565b6020020151870960208084015101519091506000906013600160ff1b039085600881106130125761301261566f565b602002015189096020840151604001519091506000906013600160ff1b039086600881106130425761304261566f565b6020020151870990508261305d836013600160ff1b03615a4c565b6130679190615a93565b9e508061307b886013600160ff1b03615a4c565b6130859190615a93565b9d506130918383615a4c565b9c5061309d8188615a4c565b9b5050505050505050505050613189565b60006013600160ff1b03848809905060006013600160ff1b03878709905060006013600160ff1b03868909905060006013600160ff1b03848509905060006013600160ff1b03848509905060006013600160ff1b03858709905060006013600160ff1b0385860990506131218280615a4c565b9c5083613135846013600160ff1b03615a4c565b61313f9190615a93565b9b5061314b8385615a4c565b9a506013600160ff1b036131618d602519615a93565b61316b8380615a4c565b0899505050505050505050808061318190615aaa565b915050612c59565b5092995090975095509350600091508190506131ae6013600160ff1b03858809613dff565b915091506013600160ff1b03806131c7576131c7615a64565b82830991506013600160ff1b0382830991506013600160ff1b0382830991506013600160ff1b0382830991506013600160ff1b0382830991506013600160ff1b0381830991506013600160ff1b0380858409880996506013600160ff1b0380878409860977ffffffff000000000000000000000000ffffffff000000007dff000000ff000000ff000000ff000000ff000000ff000000ff000000ff0060ff9990991b909117600881811b998a167cff000000ff000000ff000000ff000000ff000000ff000000ff000000ff9290911c91821617601090811b7fff000000ff000000ff000000ff000000ff000000ff000000ff000000ff000000909a167eff000000ff000000ff000000ff000000ff000000ff000000ff000000ff000090921691909117901c97909717602081811b98891673ffffffff000000000000000000000000ffffffff9290911c91821617604090811b7fffffffff000000000000000000000000ffffffff0000000000000000000000009099167bffffffff000000000000000000000000ffffffff000000000000000090921691909117901c96909617608081811b91901c178d1499505050505050505050505b949350505050565b61338f61510d565b6040805161010081018252676a09e667f3bcc908815267bb67ae8584caa73b6020820152673c6ef372fe94f82b9181019190915267a54ff53a5f1d36f1606082015267510e527fade682d16080820152679b05688c2b3e6c1f60a0820152671f83d9abfb41bd6b60c0820152675be0cd19137e217960e082015260008061341461512c565b6040805161010081018252600080825260208201819052918101829052606081018290526080810182905260a0810182905260c0810182905260e081019190915260408051610a008101825267428a2f98d728ae228152677137449123ef65cd602082015267b5c0fbcfec4d3b2f9181019190915267e9b5dba58189dbbc6060820152673956c25bf348b53860808201526759f111f1b605d01960a082015267923f82a4af194f9b60c082015267ab1c5ed5da6d811860e082015267d807aa98a30302426101008201526712835b0145706fbe61012082015267243185be4ee4b28c61014082015267550c7dc3d5ffb4e26101608201526772be5d74f27b896f6101808201526780deb1fe3b1696b16101a0820152679bdc06a725c712356101c082015267c19bf174cf6926946101e082015267e49b69c19ef14ad261020082015267efbe4786384f25e3610220820152670fc19dc68b8cd5b561024082015267240ca1cc77ac9c65610260820152672de92c6f592b0275610280820152674a7484aa6ea6e4836102a0820152675cb0a9dcbd41fbd46102c08201526776f988da831153b56102e082015267983e5152ee66dfab61030082015267a831c66d2db4321061032082015267b00327c898fb213f61034082015267bf597fc7beef0ee461036082015267c6e00bf33da88fc261038082015267d5a79147930aa7256103a08201526706ca6351e003826f6103c082015267142929670a0e6e706103e08201526727b70a8546d22ffc610400820152672e1b21385c26c926610420820152674d2c6dfc5ac42aed6104408201526753380d139d95b3df61046082015267650a73548baf63de61048082015267766a0abb3c77b2a86104a08201526781c2c92e47edaee66104c08201526792722c851482353b6104e082015267a2bfe8a14cf1036461050082015267a81a664bbc42300161052082015267c24b8b70d0f8979161054082015267c76c51a30654be3061056082015267d192e819d6ef521861058082015267d69906245565a9106105a082015267f40e35855771202a6105c082015267106aa07032bbd1b86105e08201526719a4c116b8d2d0c8610600820152671e376c085141ab53610620820152672748774cdf8eeb996106408201526734b0bcb5e19b48a861066082015267391c0cb3c5c95a63610680820152674ed8aa4ae3418acb6106a0820152675b9cca4f7763e3736106c082015267682e6ff3d6b2b8a36106e082015267748f82ee5defb2fc6107008201526778a5636f43172f606107208201526784c87814a1f0ab72610740820152678cc702081a6439ec6107608201526790befffa23631e2861078082015267a4506cebde82bde96107a082015267bef9a3f7b2c679156107c082015267c67178f2e372532b6107e082015267ca273eceea26619c61080082015267d186b8c721c0c20761082082015267eada7dd6cde0eb1e61084082015267f57d4f7fee6ed1786108608201526706f067aa72176fba610880820152670a637dc5a2c898a66108a082015267113f9804bef90dae6108c0820152671b710b35131c471b6108e08201526728db77f523047d846109008201526732caab7b40c72493610920820152673c9ebe0a15c9bebc61094082015267431d67c49c100d4c610960820152674cc5d4becb3e42b661098082015267597f299cfc657e2a6109a0820152675fcb6fab3ad6faec6109c0820152676c44198c4a4758176109e0820152600061391289614b2e565b905060005b608082516139259190615ac1565b811015613df15760006139388383614da3565b895167ffffffffffffffff90811687526020808c01518216908801526040808c01518216908801526060808c01518216908801526080808c015182169088015260a0808c015182169088015260c0808c015182169088015260e0808c015190911690870152905060005b6050811015613c975760108110156139f6578181601081106139c6576139c661566f565b60200201518782605081106139dd576139dd61566f565b67ffffffffffffffff9092166020929092020152613af7565b86613a02601083615a93565b60508110613a1257613a1261566f565b602002015167ffffffffffffffff16613a4a88613a30600f85615a93565b60508110613a4057613a4061566f565b6020020151614e34565b67ffffffffffffffff1688613a60600785615a93565b60508110613a7057613a7061566f565b602002015167ffffffffffffffff16613aa88a613a8e600287615a93565b60508110613a9e57613a9e61566f565b6020020151614e63565b67ffffffffffffffff16613abc9190615a4c565b613ac69190615a4c565b613ad09190615a4c565b878260508110613ae257613ae261566f565b67ffffffffffffffff90921660209290920201525b868160508110613b0957613b0961566f565b602002015167ffffffffffffffff16858260508110613b2a57613b2a61566f565b602002015167ffffffffffffffff16613b5d88608001518960a001518a60c0015167ffffffffffffffff83181691161890565b67ffffffffffffffff16613b748960800151614e8a565b67ffffffffffffffff168960e0015167ffffffffffffffff16613b979190615a4c565b613ba19190615a4c565b613bab9190615a4c565b613bb59190615a4c565b865160208801516040890151929b508281169282169116181867ffffffffffffffff16613be58760000151614eb7565b67ffffffffffffffff16613bf99190615a4c565b60c08701805167ffffffffffffffff90811660e08a015260a0890180518216909252608089015181169091526060880151919950613c3b918b82169116615a4c565b67ffffffffffffffff9081166080880152604087018051821660608901526020880180518316909152875182169052613c7990898116908b16615a4c565b67ffffffffffffffff16865280613c8f816156cd565b9150506139a2565b5084518951613cb39167ffffffffffffffff9081169116615a4c565b67ffffffffffffffff9081168a52602086810151908b0151613cd9929182169116615a4c565b67ffffffffffffffff90811660208b0152604086810151908b0151613d02929182169116615a4c565b67ffffffffffffffff90811660408b0152606086810151908b0151613d2b929182169116615a4c565b67ffffffffffffffff90811660608b0152608086810151908b0151613d54929182169116615a4c565b67ffffffffffffffff90811660808b015260a086810151908b0151613d7d929182169116615a4c565b67ffffffffffffffff90811660a08b015260c086810151908b0151613da6929182169116615a4c565b67ffffffffffffffff90811660c08b015260e086810151908b0151613dcf929182169116615a4c565b67ffffffffffffffff1660e08a01525080613de9816156cd565b915050613917565b509598975050505050505050565b6000806013600160ff1b0383840990506013600160ff1b0381820991506013600160ff1b03836013600160ff1b038485090991506013600160ff1b0381830990506013600160ff1b03826013600160ff1b0383840909915060006013600160ff1b0383840990506013600160ff1b0381820990506013600160ff1b0381820990506013600160ff1b0381820990506013600160ff1b0381820990506013600160ff1b0381840992506013600160ff1b0383840990506013600160ff1b0381820990506013600160ff1b0381820990506013600160ff1b0381820990506013600160ff1b0381820990506013600160ff1b0381820990506013600160ff1b0381820990506013600160ff1b0381820990506013600160ff1b0381820990506013600160ff1b0381820990506013600160ff1b03818409905060006013600160ff1b0382830990506013600160ff1b0381820990506013600160ff1b0381820990506013600160ff1b0381820990506013600160ff1b0381820990506013600160ff1b0381820990506013600160ff1b0381820990506013600160ff1b0381820990506013600160ff1b0381820990506013600160ff1b0381820990506013600160ff1b0381820990506013600160ff1b0381820990506013600160ff1b0381820990506013600160ff1b0381820990506013600160ff1b0381820990506013600160ff1b0381820990506013600160ff1b0381820990506013600160ff1b0381820990506013600160ff1b0381820990506013600160ff1b0381820990506013600160ff1b0381830991506013600160ff1b0382830991506013600160ff1b0382830991506013600160ff1b0382830991506013600160ff1b0382830991506013600160ff1b0382830991506013600160ff1b0382830991506013600160ff1b0382830991506013600160ff1b0382830991506013600160ff1b0382830991506013600160ff1b0382830991506013600160ff1b0382850993506013600160ff1b0384850991506013600160ff1b0382830991506013600160ff1b0382830991506013600160ff1b0382830991506013600160ff1b0382830991506013600160ff1b0382830991506013600160ff1b0382830991506013600160ff1b0382830991506013600160ff1b0382830991506013600160ff1b0382830991506013600160ff1b0382830991506013600160ff1b0382830991506013600160ff1b0382830991506013600160ff1b0382830991506013600160ff1b0382830991506013600160ff1b0382830991506013600160ff1b0382830991506013600160ff1b0382830991506013600160ff1b0382830991506013600160ff1b0382830991506013600160ff1b0382830991506013600160ff1b0382830991506013600160ff1b0382830991506013600160ff1b0382830991506013600160ff1b0382830991506013600160ff1b0382830991506013600160ff1b0382830991506013600160ff1b0382830991506013600160ff1b0382830991506013600160ff1b0382830991506013600160ff1b0382830991506013600160ff1b0382830991506013600160ff1b0382830991506013600160ff1b0382830991506013600160ff1b0382830991506013600160ff1b0382830991506013600160ff1b0382830991506013600160ff1b0382830991506013600160ff1b0382830991506013600160ff1b0382830991506013600160ff1b0382830991506013600160ff1b0382830991506013600160ff1b0382830991506013600160ff1b0382830991506013600160ff1b0382830991506013600160ff1b0382830991506013600160ff1b0382830991506013600160ff1b0382830991506013600160ff1b0382830991506013600160ff1b0382830991506013600160ff1b0382850991506013600160ff1b0382830990506013600160ff1b0381820990506013600160ff1b0381820990506013600160ff1b0381820990506013600160ff1b0381820990506013600160ff1b0381820990506013600160ff1b0381820990506013600160ff1b0381820990506013600160ff1b0381820990506013600160ff1b0381820990506013600160ff1b0381820990506013600160ff1b0381820990506013600160ff1b0381820990506013600160ff1b0381820990506013600160ff1b0381820990506013600160ff1b0381820990506013600160ff1b0381820990506013600160ff1b0381820990506013600160ff1b0381820990506013600160ff1b0381820990506013600160ff1b0381820990506013600160ff1b0381820990506013600160ff1b0381820990506013600160ff1b0381820990506013600160ff1b0381820990506013600160ff1b0381820990506013600160ff1b0381820990506013600160ff1b0381820990506013600160ff1b0381820990506013600160ff1b0381820990506013600160ff1b0381820990506013600160ff1b0381820990506013600160ff1b0381820990506013600160ff1b0381820990506013600160ff1b0381820990506013600160ff1b0381820990506013600160ff1b0381820990506013600160ff1b0381820990506013600160ff1b0381820990506013600160ff1b0381820990506013600160ff1b0381820990506013600160ff1b0381820990506013600160ff1b0381820990506013600160ff1b0381820990506013600160ff1b0381820990506013600160ff1b0381820990506013600160ff1b0381820990506013600160ff1b0381820990506013600160ff1b0381820990506013600160ff1b0381820990506013600160ff1b0381820990506013600160ff1b0381820990506013600160ff1b0381820990506013600160ff1b0381820990506013600160ff1b0381820990506013600160ff1b0381820990506013600160ff1b0381820990506013600160ff1b0381820990506013600160ff1b0381820990506013600160ff1b0381820990506013600160ff1b0381820990506013600160ff1b0381820990506013600160ff1b0381820990506013600160ff1b0381820990506013600160ff1b0381820990506013600160ff1b0381820990506013600160ff1b0381820990506013600160ff1b0381820990506013600160ff1b0381820990506013600160ff1b0381820990506013600160ff1b0381820990506013600160ff1b0381820990506013600160ff1b0381820990506013600160ff1b0381820990506013600160ff1b0381820990506013600160ff1b0381820990506013600160ff1b0381820990506013600160ff1b0381820990506013600160ff1b0381820990506013600160ff1b0381820990506013600160ff1b0381820990506013600160ff1b0381820990506013600160ff1b0381820990506013600160ff1b0381820990506013600160ff1b0381820990506013600160ff1b0381820990506013600160ff1b0381820990506013600160ff1b0381820990506013600160ff1b0381820990506013600160ff1b0381820990506013600160ff1b0381820990506013600160ff1b0381820990506013600160ff1b0381820990506013600160ff1b0381820990506013600160ff1b0381820990506013600160ff1b0381820990506013600160ff1b0381820990506013600160ff1b0381820990506013600160ff1b0381820990506013600160ff1b0381820990506013600160ff1b0381830991506013600160ff1b0382830991506013600160ff1b0382830991506013600160ff1b0382830991506013600160ff1b0382830991506013600160ff1b0382830991506013600160ff1b0382830991506013600160ff1b0382830991506013600160ff1b0382830991506013600160ff1b0382830991506013600160ff1b0382830991506013600160ff1b0382830991506013600160ff1b0382830991506013600160ff1b0382830991506013600160ff1b0382830991506013600160ff1b0382830991506013600160ff1b0382830991506013600160ff1b0382830991506013600160ff1b0382830991506013600160ff1b0382830991506013600160ff1b0382830991506013600160ff1b0382830991506013600160ff1b0382830991506013600160ff1b0382830991506013600160ff1b0382830991506013600160ff1b0382830991506013600160ff1b0382830991506013600160ff1b0382830991506013600160ff1b0382830991506013600160ff1b0382830991506013600160ff1b0382830991506013600160ff1b0382830991506013600160ff1b0382830991506013600160ff1b0382830991506013600160ff1b0382830991506013600160ff1b0382830991506013600160ff1b0382830991506013600160ff1b0382830991506013600160ff1b0382830991506013600160ff1b0382830991506013600160ff1b0382830991506013600160ff1b0382830991506013600160ff1b0382830991506013600160ff1b0382830991506013600160ff1b0382830991506013600160ff1b0382830991506013600160ff1b0382830991506013600160ff1b0382830991506013600160ff1b0382830991506013600160ff1b0382830991506013600160ff1b0382830991506013600160ff1b0382850993505050915091565b6060600060808351614b409190615ad5565b614b4b906080615a93565b9050607060808451614b5d9190615ad5565b10614b7f5760808351614b709190615ad5565b614b7c90610100615a93565b90505b6000818451614b8e9190615a4c565b67ffffffffffffffff811115614ba657614ba661520a565b6040519080825280601f01601f191660200182016040528015614bd0576020820181803683370190505b50905060005b8451811015614c4f57848181518110614bf157614bf161566f565b602001015160f81c60f81b828281518110614c0e57614c0e61566f565b60200101907effffffffffffffffffffffffffffffffffffffffffffffffffffffffffffff1916908160001a90535080614c47816156cd565b915050614bd6565b50608060f81b81855181518110614c6857614c6861566f565b60200101907effffffffffffffffffffffffffffffffffffffffffffffffffffffffffffff1916908160001a905350600084516008614ca79190615ae9565b60408051608083901b7fffffffffffffffffffffffffffffffff0000000000000000000000000000000016602082015281516010818303018152603090910190915290915060005b8151811015614d9857818160018451614d089190615a93565b614d129190615a93565b81518110614d2257614d2261566f565b602001015160f81c60f81b848260018751614d3d9190615a93565b614d479190615a93565b81518110614d5757614d5761566f565b60200101907effffffffffffffffffffffffffffffffffffffffffffffffffffffffffffff1916908160001a90535080614d90816156cd565b915050614cef565b509195945050505050565b614dab61514b565b614db361514b565b60005b60108160ff161015614e2c57614dee85614dd1836008615b08565b60ff16614ddf876080615ae9565b614de99190615a4c565b614eda565b60c01c828260ff1660108110614e0657614e0661566f565b67ffffffffffffffff909216602092909202015280614e2481615b31565b915050614db6565b509392505050565b60006701ffffffffffffff600783901c16614e50836008614f4f565b614e5b846001614f4f565b181892915050565b60006703ffffffffffffff600683901c16614e7f83603d614f4f565b614e5b846013614f4f565b600080614e98836029614f4f565b614ea3846012614f4f565b614eae85600e614f4f565b18189392505050565b6000614ec4826027614f4f565b614ecf836022614f4f565b614e5b84601c614f4f565b60008060005b6008811015614e2c57614ef4816008615ae9565b85614eff8387615a4c565b81518110614f0f57614f0f61566f565b01602001517fff0000000000000000000000000000000000000000000000000000000000000016901c919091179080614f47816156cd565b915050614ee0565b600067ffffffffffffffff8316821c614f69836040615a93565b8467ffffffffffffffff16901b614f8091906156e7565b9392505050565b61019083019183908215615029579160040282015b82811115615029578254825460ff9091167fffffffffffffffffffffffffffffffffffffffffffffffffffffffffffffff00821681178455845468ffffffffffffffffff19909216176101009182900467ffffffffffffffff1690910217825560018084015490830155600280840154908301556003808401549083015560049283019290910190614f9c565b5061503592915061516a565b5090565b506116099061019081019061516a565b60405180610c8001604052806064905b6040805160a0810182526000808252602080830182905292820181905260608201819052608082015282526000199092019101816150595790505090565b506116099060148101906151a0565b604051806101400160405280600a905b60408051808201909152600080825260208201528152602001906001900390816150b65790505090565b60405180604001604052806002905b6150f76151bb565b8152602001906001900390816150ef5790505090565b6040518061010001604052806008906020820280368337509192915050565b60405180610a0001604052806050906020820280368337509192915050565b6040518061020001604052806010906020820280368337509192915050565b5b8082111561503557805468ffffffffffffffffff1916815560006001820181905560028201819055600382015560040161516b565b5b8082111561503557600080825560018201556002016151a1565b60405180606001604052806003905b6151d261510d565b8152602001906001900390816151ca5790505090565b600080604083850312156151fb57600080fd5b50508035926020909101359150565b7f4e487b7100000000000000000000000000000000000000000000000000000000600052604160045260246000fd5b604051610100810167ffffffffffffffff8111828210171561525d5761525d61520a565b60405290565b60405160a0810167ffffffffffffffff8111828210171561525d5761525d61520a565b6040516080810167ffffffffffffffff8111828210171561525d5761525d61520a565b604051610c80810167ffffffffffffffff8111828210171561525d5761525d61520a565b604051610400810167ffffffffffffffff8111828210171561525d5761525d61520a565b8035801515811461530157600080fd5b919050565b600082601f83011261531757600080fd5b61531f615286565b80608084018581111561533157600080fd5b845b8181101561534b578035845260209384019301615333565b509095945050505050565b60ff8116811461160957600080fd5b803561530181615356565b803563ffffffff8116811461530157600080fd5b600082601f83011261539557600080fd5b61539d615286565b8060808401858111156153af57600080fd5b845b8181101561534b57803561ffff811681146153cc5760008081fd5b8452602093840193016153b1565b60008060008061d4c08086880312156153f257600080fd5b853567ffffffffffffffff8082111561540a57600080fd5b818801915088601f83011261541e57600080fd5b81358181111561542d57600080fd5b60209150898282850101111561544257600080fd5b82820197509550878101359450605f8801891361545e57600080fd5b6154666152a9565b928801929150818984111561547a57600080fd5b604089015b8481101561553157610220818c0312156154995760008081fd5b6154a1615239565b6154aa826152f1565b81526154b88c858401615306565b8482015260a080830135604083015260c06154d4818501615365565b606084015260e06154e78f828701615306565b60808501526154f96101608601615370565b8385015261550b8f6101808701615384565b8285015261551c6102008601615365565b9084015250508452928201926102200161547f565b50969995985093965050505050565b60008060006107c080858703121561555757600080fd5b843593506020850135925085818601111561557157600080fd5b506040840190509250925092565b613e808101818360005b60648110156155e2578151805160ff16845260208082015167ffffffffffffffff168186015260408083015190860152606080830151908601526080918201519185019190915260a09093019290910190600101615589565b50505092915050565b6102808101818360005b600a8110156155e25781518051845260209081015181850152604090930192909101906001016155f5565b60006020828403121561563257600080fd5b813573ffffffffffffffffffffffffffffffffffffffff81168114614f8057600080fd5b60006020828403121561566857600080fd5b5035919050565b7f4e487b7100000000000000000000000000000000000000000000000000000000600052603260045260246000fd5b7f4e487b7100000000000000000000000000000000000000000000000000000000600052601160045260246000fd5b600060001982036156e0576156e061569e565b5060010190565b600067ffffffffffffffff80831681851680830382111561570a5761570a61569e565b01949350505050565b600067ffffffffffffffff8083168185168183048111821515161561573a5761573a61569e565b02949350505050565b8183528181602085013750600060208284010152600060207fffffffffffffffffffffffffffffffffffffffffffffffffffffffffffffffe0601f840116840101905092915050565b8060005b60048110156157af578151845260209384019390910190600101615790565b50505050565b8060005b60048110156157af57815161ffff168452602093840193909101906001016157b9565b806000805b60648110156158a8578251805115158652602080820151818801855b600481101561581a578251825291830191908301906001016157fd565b505050604082015160a081818a01526060840151915060c0615840818b018460ff169052565b6080850151925060e0615855818c018561578c565b8286015163ffffffff166101608c01528186015193506158796101808c01856157b5565b949094015160ff81166102008b01529350615892915050565b61022096909601959390930192506001016157e1565b5050505050565b600061d4e08083526158c4818401888a615743565b9150508460208301526158da60408301856157dc565b8261d4c08301529695505050505050565b60006114008083850312156158ff57600080fd5b83601f84011261590e57600080fd5b6159166152cd565b90830190808583111561592857600080fd5b845b838110156159a75760a081880312156159435760008081fd5b61594b615263565b815161595681615356565b815260208281015167ffffffffffffffff811681146159755760008081fd5b82820152604083810151908301526060808401519083015260808084015190830152908452929092019160a00161592a565b5095945050505050565b6000602082840312156159c357600080fd5b5051919050565b600067ffffffffffffffff838116908316818110156159eb576159eb61569e565b039392505050565b600061d4c0808352615a088184018789615743565b915050836020830152615a1e60408301846157dc565b95945050505050565b600060ff821660ff84168060ff03821115615a4457615a4461569e565b019392505050565b60008219821115615a5f57615a5f61569e565b500190565b7f4e487b7100000000000000000000000000000000000000000000000000000000600052601260045260246000fd5b600082821015615aa557615aa561569e565b500390565b600081615ab957615ab961569e565b506000190190565b600082615ad057615ad0615a64565b500490565b600082615ae457615ae4615a64565b500690565b6000816000190483118215151615615b0357615b0361569e565b500290565b600060ff821660ff84168160ff0481118215151615615b2957615b2961569e565b029392505050565b600060ff821660ff8103615b4757615b4761569e565b6001019291505056fea2646970667358221220c3a0a425225c0b2d8424dec739c1c57cd9aed12014c63361a2b259da60d7947e64736f6c634300080f0033",
  "linkReferences": {},
  "deployedLinkReferences": {}
}