{
  "_format": "hh-sol-artifact-1",
  "contractName": "SignatureValidator",
  "sourceName": "contracts/validator/SignatureValidator.sol",
  "abi": [
    {
      "inputs": [
        {
          "internalType": "address",
          "name": "blockParserAddr",
          "type": "address"
        }
      ],
      "stateMutability": "nonpayable",
      "type": "constructor"
    },
    {
      "anonymous": false,
      "inputs": [
        {
          "indexed": true,
          "internalType": "address",
          "name": "previousOwner",
          "type": "address"
        },
        {
          "indexed": true,
          "internalType": "address",
          "name": "newOwner",
          "type": "address"
        }
      ],
      "name": "OwnershipTransferred",
      "type": "event"
    },
    {
      "inputs": [
        {
          "internalType": "bytes32",
          "name": "root_h",
          "type": "bytes32"
        }
      ],
      "name": "addCurrentBlockToVerifiedSet",
      "outputs": [
        {
          "internalType": "bytes32",
          "name": "",
          "type": "bytes32"
        }
      ],
      "stateMutability": "view",
      "type": "function"
    },
    {
      "inputs": [],
      "name": "getCandidatesForValidators",
      "outputs": [
        {
          "components": [
            {
              "internalType": "uint8",
              "name": "cType",
              "type": "uint8"
            },
            {
              "internalType": "uint64",
              "name": "weight",
              "type": "uint64"
            },
            {
              "internalType": "bytes32",
              "name": "adnl_addr",
              "type": "bytes32"
            },
            {
              "internalType": "bytes32",
              "name": "pubkey",
              "type": "bytes32"
            },
            {
              "internalType": "bytes32",
              "name": "node_id",
              "type": "bytes32"
            }
          ],
          "internalType": "struct ValidatorDescription[20]",
          "name": "",
          "type": "tuple[20]"
        }
      ],
      "stateMutability": "view",
      "type": "function"
    },
    {
      "inputs": [],
      "name": "getPrunedCells",
      "outputs": [
        {
          "components": [
            {
              "internalType": "uint256",
              "name": "prefixLength",
              "type": "uint256"
            },
            {
              "internalType": "bytes32",
              "name": "hash",
              "type": "bytes32"
            }
          ],
          "internalType": "struct CachedCell[10]",
          "name": "",
          "type": "tuple[10]"
        }
      ],
      "stateMutability": "view",
      "type": "function"
    },
    {
      "inputs": [],
      "name": "getValidators",
      "outputs": [
        {
          "components": [
            {
              "internalType": "uint8",
              "name": "cType",
              "type": "uint8"
            },
            {
              "internalType": "uint64",
              "name": "weight",
              "type": "uint64"
            },
            {
              "internalType": "bytes32",
              "name": "adnl_addr",
              "type": "bytes32"
            },
            {
              "internalType": "bytes32",
              "name": "pubkey",
              "type": "bytes32"
            },
            {
              "internalType": "bytes32",
              "name": "node_id",
              "type": "bytes32"
            }
          ],
          "internalType": "struct ValidatorDescription[20]",
          "name": "",
          "type": "tuple[20]"
        }
      ],
      "stateMutability": "view",
      "type": "function"
    },
    {
      "inputs": [],
      "name": "initValidators",
      "outputs": [
        {
          "internalType": "bytes32",
          "name": "",
          "type": "bytes32"
        }
      ],
      "stateMutability": "nonpayable",
      "type": "function"
    },
    {
      "inputs": [
        {
          "internalType": "bytes32",
          "name": "node_id",
          "type": "bytes32"
        },
        {
          "internalType": "bytes32",
          "name": "root_h",
          "type": "bytes32"
        }
      ],
      "name": "isSignedByValidator",
      "outputs": [
        {
          "internalType": "bool",
          "name": "",
          "type": "bool"
        }
      ],
      "stateMutability": "view",
      "type": "function"
    },
    {
      "inputs": [],
      "name": "owner",
      "outputs": [
        {
          "internalType": "address",
          "name": "",
          "type": "address"
        }
      ],
      "stateMutability": "view",
      "type": "function"
    },
    {
      "inputs": [
        {
          "internalType": "bytes",
          "name": "boc",
          "type": "bytes"
        },
        {
          "internalType": "uint256",
          "name": "rootIdx",
          "type": "uint256"
        },
        {
          "components": [
            {
              "internalType": "bool",
              "name": "special",
              "type": "bool"
            },
            {
              "internalType": "uint256[4]",
              "name": "refs",
              "type": "uint256[4]"
            },
            {
              "internalType": "uint256",
              "name": "cursor",
              "type": "uint256"
            },
            {
              "internalType": "uint8",
              "name": "cursorRef",
              "type": "uint8"
            },
            {
              "internalType": "bytes32[4]",
              "name": "_hash",
              "type": "bytes32[4]"
            },
            {
              "internalType": "uint32",
              "name": "level_mask",
              "type": "uint32"
            },
            {
              "internalType": "uint16[4]",
              "name": "depth",
              "type": "uint16[4]"
            },
            {
              "internalType": "uint8",
              "name": "cellType",
              "type": "uint8"
            }
          ],
          "internalType": "struct CellData[100]",
          "name": "treeOfCells",
          "type": "tuple[100]"
        }
      ],
      "name": "parseCandidatesRootBlock",
      "outputs": [],
      "stateMutability": "nonpayable",
      "type": "function"
    },
    {
      "inputs": [
        {
          "internalType": "bytes",
          "name": "data",
          "type": "bytes"
        },
        {
          "internalType": "uint256",
          "name": "cellIdx",
          "type": "uint256"
        },
        {
          "components": [
            {
              "internalType": "bool",
              "name": "special",
              "type": "bool"
            },
            {
              "internalType": "uint256[4]",
              "name": "refs",
              "type": "uint256[4]"
            },
            {
              "internalType": "uint256",
              "name": "cursor",
              "type": "uint256"
            },
            {
              "internalType": "uint8",
              "name": "cursorRef",
              "type": "uint8"
            },
            {
              "internalType": "bytes32[4]",
              "name": "_hash",
              "type": "bytes32[4]"
            },
            {
              "internalType": "uint32",
              "name": "level_mask",
              "type": "uint32"
            },
            {
              "internalType": "uint16[4]",
              "name": "depth",
              "type": "uint16[4]"
            },
            {
              "internalType": "uint8",
              "name": "cellType",
              "type": "uint8"
            }
          ],
          "internalType": "struct CellData[100]",
          "name": "cells",
          "type": "tuple[100]"
        }
      ],
      "name": "parsePartValidators",
      "outputs": [],
      "stateMutability": "nonpayable",
      "type": "function"
    },
    {
      "inputs": [],
      "name": "renounceOwnership",
      "outputs": [],
      "stateMutability": "nonpayable",
      "type": "function"
    },
    {
      "inputs": [],
      "name": "setValidatorSet",
      "outputs": [
        {
          "internalType": "bytes32",
          "name": "",
          "type": "bytes32"
        }
      ],
      "stateMutability": "nonpayable",
      "type": "function"
    },
    {
      "inputs": [
        {
          "internalType": "address",
          "name": "newOwner",
          "type": "address"
        }
      ],
      "name": "transferOwnership",
      "outputs": [],
      "stateMutability": "nonpayable",
      "type": "function"
    },
    {
      "inputs": [
        {
          "internalType": "bytes32",
          "name": "root_h",
          "type": "bytes32"
        },
        {
          "internalType": "bytes32",
          "name": "file_hash",
          "type": "bytes32"
        },
        {
          "components": [
            {
              "internalType": "bytes32",
              "name": "node_id",
              "type": "bytes32"
            },
            {
              "internalType": "bytes32",
              "name": "r",
              "type": "bytes32"
            },
            {
              "internalType": "bytes32",
              "name": "s",
              "type": "bytes32"
            }
          ],
          "internalType": "struct Vdata[5]",
          "name": "vdata",
          "type": "tuple[5]"
        }
      ],
      "name": "verifyValidators",
      "outputs": [],
      "stateMutability": "nonpayable",
      "type": "function"
    }
  ],
  "bytecode": "0x6080604052605180546001600160401b031990811690915560b6805490911690553480156200002d57600080fd5b5060405162005c5938038062005c598339810160408190526200005091620000d1565b6200005b3362000081565b60b880546001600160a01b0319166001600160a01b039290921691909117905562000103565b600080546001600160a01b038381166001600160a01b0319831681178455604051919092169283917f8be0079c531659141344cd1fd0a4f28419497f9722a3daafe3b4186f6b6457e09190a35050565b600060208284031215620000e457600080fd5b81516001600160a01b0381168114620000fc57600080fd5b9392505050565b615b4680620001136000396000f3fe608060405234801561001057600080fd5b50600436106100df5760003560e01c8063b7ab4db51161008c578063deaabb3411610066578063deaabb34146101ba578063df1d4c54146101cd578063f2fde38b146101e2578063f8930a31146101f557600080fd5b8063b7ab4db51461018a578063bd0aca6b1461019f578063bddb49a5146101a757600080fd5b8063715018a6116100bd578063715018a61461014557806387cef8ce1461014f5780638da5cb5b1461016257600080fd5b806316e6553a146100e45780631dea0b4f146100ff578063531b00af1461013d575b600080fd5b6100ec610208565b6040519081526020015b60405180910390f35b61012d61010d3660046151a8565b600091825260b96020908152604080842092845291905290205460ff1690565b60405190151581526020016100f6565b6100ec6102dc565b61014d610519565b005b61014d61015d36600461539a565b61052d565b60005460405173ffffffffffffffffffffffffffffffffffffffff90911681526020016100f6565b610192610bb5565b6040516100f69190615500565b610192610c40565b61014d6101b536600461539a565b610ca4565b61014d6101c836600461556c565b611295565b6101d56114df565b6040516100f691906155ab565b61014d6101f03660046155e0565b611537565b6100ec610203366004615616565b6115d4565b6000610212611705565b600154610100900467ffffffffffffffff16156102765760405162461bcd60e51b815260206004820152601c60248201527f63757272656e742076616c696461746f7273206e6f7420656d7074790000000060448201526064015b60405180910390fd5b610284600160666014614f49565b5061029160666000614ffa565b5060b68054605180547fffffffffffffffffffffffffffffffffffffffffffffffff000000000000000090811667ffffffffffffffff84161790915516905560b78054600090915590565b600154600090610100900467ffffffffffffffff1681036102fc57600080fd5b60005b600a81101561038657605281600a811061031b5761031b61562f565b60020201600101546000801b146103745760405162461bcd60e51b815260206004820152601860248201527f6e656564207265616420616c6c2076616c696461746f72730000000000000000604482015260640161026d565b8061037e8161568d565b9150506102ff565b506000805b601481101561042d5760b96000600183601481106103ab576103ab61562f565b60040201600301548152602001908152602001600020600060b754815260200190815260200160002060009054906101000a900460ff161561041b57600181601481106103fa576103fa61562f565b600402015461041890610100900467ffffffffffffffff16836156a7565b91505b806104258161568d565b91505061038b565b506051546104469067ffffffffffffffff1660026156d3565b67ffffffffffffffff1661045b8260036156d3565b67ffffffffffffffff16116104b25760405162461bcd60e51b815260206004820152601160248201527f6e6f7420656e6f7567687420766f746573000000000000000000000000000000604482015260640161026d565b6104c0600160666014614f49565b506104cd60666000614ffa565b505060b68054605180547fffffffffffffffffffffffffffffffffffffffffffffffff000000000000000090811667ffffffffffffffff84161790915516905560b78054600090915590565b610521611705565b61052b600061176c565b565b60008060005b600a8110156105d35783856064811061054e5761054e61562f565b60200201516080015151605282600a811061056b5761056b61562f565b6002020160010154036105c15760019250605281600a811061058f5761058f61562f565b60020201549150605281600a81106105a9576105a961562f565b600060029190910291909101818155600101556105d3565b806105cb8161568d565b915050610533565b50816106215760405162461bcd60e51b815260206004820152601860248201527f57726f6e6720626f6320666f722076616c696461746f72730000000000000000604482015260640161026d565b60b8546040517fed78d52100000000000000000000000000000000000000000000000000000000815260009173ffffffffffffffffffffffffffffffffffffffff169063ed78d52190610680908a908a908a908a90899060040161586f565b61140060405180830381865afa15801561069e573d6000803e3d6000fd5b505050506040513d601f19601f820116820180604052508101906106c291906158ab565b905060005b6020811015610bab5760005b6064811015610b9857606681601481106106ef576106ef61562f565b6004020154610100900467ffffffffffffffff166000036108ad5782826020811061071c5761071c61562f565b60209081029190910151015160b6805460009061074490849067ffffffffffffffff166156a7565b92506101000a81548167ffffffffffffffff021916908367ffffffffffffffff16021790555082826020811061077c5761077c61562f565b6020020151606682601481106107945761079461562f565b8251600491909102919091018054602084015167ffffffffffffffff166101000268ffffffffffffffffff1990911660ff90931692909217919091178155604082015160018201556060820151600282015560809091015160039091015560b85473ffffffffffffffffffffffffffffffffffffffff16631acbaa62606683601481106108235761082361562f565b60040201600201546040518263ffffffff1660e01b815260040161084991815260200190565b602060405180830381865afa158015610866573d6000803e3d6000fd5b505050506040513d601f19601f8201168201806040525081019061088a9190615971565b6066826014811061089d5761089d61562f565b6004020160030181905550610b98565b8282602081106108bf576108bf61562f565b60200201516020015167ffffffffffffffff16606682601481106108e5576108e561562f565b6004020154610100900467ffffffffffffffff161015610b86578282602081106109115761091161562f565b60209081029190910151015160b6805460009061093990849067ffffffffffffffff166156a7565b92506101000a81548167ffffffffffffffff021916908367ffffffffffffffff160217905550606681601481106109725761097261562f565b600402015460b6805467ffffffffffffffff61010090930483169260009161099c9185911661598a565b92506101000a81548167ffffffffffffffff021916908367ffffffffffffffff1602179055506000606682601481106109d7576109d761562f565b6040805160a08101825260049290920292909201805460ff81168352610100900467ffffffffffffffff16602080840191909152600182015493830193909352600281015460608301526003015460808201529150849084908110610a3e57610a3e61562f565b602002015160668360148110610a5657610a5661562f565b825160049190910291909101805460208085015167ffffffffffffffff166101000268ffffffffffffffffff1990921660ff9094169390931717815560408301516001820155606083015160028201556080909201516003909201919091558190859085908110610ac957610ac961562f565b602002015260b85473ffffffffffffffffffffffffffffffffffffffff16631acbaa6260668460148110610aff57610aff61562f565b60040201600201546040518263ffffffff1660e01b8152600401610b2591815260200190565b602060405180830381865afa158015610b42573d6000803e3d6000fd5b505050506040513d601f19601f82011682018060405250810190610b669190615971565b60668360148110610b7957610b7961562f565b6004020160030181905550505b80610b908161568d565b9150506106d3565b5080610ba38161568d565b9150506106c7565b5050505050505050565b610bbd615009565b604080516102808101909152600160146000835b82821015610c37576040805160a081018252600484028601805460ff81168352610100900467ffffffffffffffff166020808401919091526001808301549484019490945260028201546060840152600390910154608083015290835292019101610bd1565b50505050905090565b610c48615009565b6040805161032081019091526066805460ff8116610280840190815261010090910467ffffffffffffffff166102a08401526067546102c08401526068546102e084015260695461030084015282526014600160208401610bd1565b610cb060666000614ffa565b60b680547fffffffffffffffffffffffffffffffffffffffffffffffff0000000000000000169055610ce460526000615057565b808260648110610cf657610cf661562f565b6020020151608001515160b75560b8546040517fbddb49a500000000000000000000000000000000000000000000000000000000815260009173ffffffffffffffffffffffffffffffffffffffff169063bddb49a590610d609088908890889088906004016159b3565b611400604051808303816000875af1158015610d80573d6000803e3d6000fd5b505050506040513d601f19601f82011682018060405250810190610da491906158ab565b905060005b602081101561128d5760005b606481101561127a5760668160148110610dd157610dd161562f565b6004020154610100900467ffffffffffffffff16600003610f8f57828260208110610dfe57610dfe61562f565b60209081029190910151015160b68054600090610e2690849067ffffffffffffffff166156a7565b92506101000a81548167ffffffffffffffff021916908367ffffffffffffffff160217905550828260208110610e5e57610e5e61562f565b602002015160668260148110610e7657610e7661562f565b8251600491909102919091018054602084015167ffffffffffffffff166101000268ffffffffffffffffff1990911660ff90931692909217919091178155604082015160018201556060820151600282015560809091015160039091015560b85473ffffffffffffffffffffffffffffffffffffffff16631acbaa6260668360148110610f0557610f0561562f565b60040201600201546040518263ffffffff1660e01b8152600401610f2b91815260200190565b602060405180830381865afa158015610f48573d6000803e3d6000fd5b505050506040513d601f19601f82011682018060405250810190610f6c9190615971565b60668260148110610f7f57610f7f61562f565b600402016003018190555061127a565b828260208110610fa157610fa161562f565b60200201516020015167ffffffffffffffff1660668260148110610fc757610fc761562f565b6004020154610100900467ffffffffffffffff16101561126857828260208110610ff357610ff361562f565b60209081029190910151015160b6805460009061101b90849067ffffffffffffffff166156a7565b92506101000a81548167ffffffffffffffff021916908367ffffffffffffffff160217905550606681601481106110545761105461562f565b600402015460b6805467ffffffffffffffff61010090930483169260009161107e9185911661598a565b92506101000a81548167ffffffffffffffff021916908367ffffffffffffffff1602179055506000606682601481106110b9576110b961562f565b6040805160a08101825260049290920292909201805460ff81168352610100900467ffffffffffffffff166020808401919091526001820154938301939093526002810154606083015260030154608082015291508490849081106111205761112061562f565b6020020151606683601481106111385761113861562f565b825160049190910291909101805460208085015167ffffffffffffffff166101000268ffffffffffffffffff1990921660ff90941693909317178155604083015160018201556060830151600282015560809092015160039092019190915581908590859081106111ab576111ab61562f565b602002015260b85473ffffffffffffffffffffffffffffffffffffffff16631acbaa62606684601481106111e1576111e161562f565b60040201600201546040518263ffffffff1660e01b815260040161120791815260200190565b602060405180830381865afa158015611224573d6000803e3d6000fd5b505050506040513d601f19601f820116820180604052508101906112489190615971565b6066836014811061125b5761125b61562f565b6004020160030181905550505b806112728161568d565b915050610db5565b50806112858161568d565b915050610da9565b505050505050565b60b754600090156112a85760b7546112aa565b835b905080158015906112ba57508215155b6113065760405162461bcd60e51b815260206004820152601c60248201527f77726f6e6720726f6f745f68617368206f722066696c655f6861736800000000604482015260640161026d565b601460005b600581101561128d5760005b6014811015611371578482600581106113325761133261562f565b60600201356001826014811061134a5761134a61562f565b60040201600301540361135f57809250611371565b806113698161568d565b915050611317565b5060148214806113c4575060b96000600184601481106113935761139361562f565b6004020160030154815260208082019290925260409081016000908120868252909252902054600160ff9091161515145b6114cd57611470600183601481106113de576113de61562f565b60040201600201548583600581106113f8576113f861562f565b60600201602001358684600581106114125761141261562f565b604080517f706e0bc5000000000000000000000000000000000000000000000000000000006020820152602481018a9052604481018c90526060929092029290920190910135906064016040516020818303038152906040526117e1565b156114cd57600160b960006001856014811061148e5761148e61562f565b60040201600301548152602001908152602001600020600085815260200190815260200160002060006101000a81548160ff0219169083151502179055505b806114d78161568d565b91505061130b565b6114e7615066565b6040805161014081019091526052600a6000835b82821015610c375783826002020160405180604001604052908160008201548152602001600182015481525050815260200190600101906114fb565b61153f611705565b73ffffffffffffffffffffffffffffffffffffffff81166115c85760405162461bcd60e51b815260206004820152602660248201527f4f776e61626c653a206e6577206f776e657220697320746865207a65726f206160448201527f6464726573730000000000000000000000000000000000000000000000000000606482015260840161026d565b6115d18161176c565b50565b600080805b60148110156116795760b96000600183601481106115f9576115f961562f565b60040201600301548152602001908152602001600020600085815260200190815260200160002060009054906101000a900460ff161561166757600181601481106116465761164661562f565b600402015461166490610100900467ffffffffffffffff16836156a7565b91505b806116718161568d565b9150506115d9565b506051546116929067ffffffffffffffff1660026156d3565b67ffffffffffffffff166116a78260036156d3565b67ffffffffffffffff16116116fe5760405162461bcd60e51b815260206004820152601160248201527f6e6f7420656e6f7567687420766f746573000000000000000000000000000000604482015260640161026d565b5090919050565b60005473ffffffffffffffffffffffffffffffffffffffff16331461052b5760405162461bcd60e51b815260206004820181905260248201527f4f776e61626c653a2063616c6c6572206973206e6f7420746865206f776e6572604482015260640161026d565b6000805473ffffffffffffffffffffffffffffffffffffffff8381167fffffffffffffffffffffffff0000000000000000000000000000000000000000831681178455604051919092169283917f8be0079c531659141344cd1fd0a4f28419497f9722a3daafe3b4186f6b6457e09190a35050565b600080600083516020806117f591906159e7565b60ff166118029190615a0c565b67ffffffffffffffff81111561181a5761181a6151ca565b6040519080825280601f01601f191660200182016040528015611844576020820181803683370190505b50905060005b60208110156118bc578681602081106118655761186561562f565b1a60f81b82828151811061187b5761187b61562f565b60200101907effffffffffffffffffffffffffffffffffffffffffffffffffffffffffffff1916908160001a905350806118b48161568d565b91505061184a565b5060005b602081101561193c578781602081106118db576118db61562f565b1a60f81b826118eb836020615a0c565b815181106118fb576118fb61562f565b60200101907effffffffffffffffffffffffffffffffffffffffffffffffffffffffffffff1916908160001a905350806119348161568d565b9150506118c0565b5060005b84518110156119df5784818151811061195b5761195b61562f565b01602001517fff00000000000000000000000000000000000000000000000000000000000000168261198e836040615a0c565b8151811061199e5761199e61562f565b60200101907effffffffffffffffffffffffffffffffffffffffffffffffffffffffffffff1916908160001a905350806119d78161568d565b915050611940565b5060006119eb82613349565b9050600060c0826003602002015167ffffffffffffffff16901b6080836002602002015167ffffffffffffffff16901b6040846001602002015167ffffffffffffffff16901b846000602002015167ffffffffffffffff1617171790506008817fff00ff00ff00ff00ff00ff00ff00ff00ff00ff00ff00ff00ff00ff00ff00ff0016901c6008827eff00ff00ff00ff00ff00ff00ff00ff00ff00ff00ff00ff00ff00ff00ff00ff16901b1790506010817fffff0000ffff0000ffff0000ffff0000ffff0000ffff0000ffff0000ffff000016901c6010827dffff0000ffff0000ffff0000ffff0000ffff0000ffff0000ffff0000ffff16901b1790506020817fffffffff00000000ffffffff00000000ffffffff00000000ffffffff0000000016901c6020827bffffffff00000000ffffffff00000000ffffffff00000000ffffffff16901b179050600060c083600760088110611b4b57611b4b61562f565b602002015167ffffffffffffffff16901b6080846006602002015167ffffffffffffffff16901b6040856005602002015167ffffffffffffffff16901b856004602002015167ffffffffffffffff1617171790506008817fff00ff00ff00ff00ff00ff00ff00ff00ff00ff00ff00ff00ff00ff00ff00ff0016901c6008827eff00ff00ff00ff00ff00ff00ff00ff00ff00ff00ff00ff00ff00ff00ff00ff16901b1790506010817fffff0000ffff0000ffff0000ffff0000ffff0000ffff0000ffff0000ffff000016901c6010827dffff0000ffff0000ffff0000ffff0000ffff0000ffff0000ffff0000ffff16901b1790506020817fffffffff00000000ffffffff00000000ffffffff00000000ffffffff0000000016901c6020827bffffffff00000000ffffffff00000000ffffffff00000000ffffffff16901b1790507f1000000000000000000000000000000014def9dea2f79cd65812631a5cf5d3ed80611cb957611cb9615a24565b7f1000000000000000000000000000000014def9dea2f79cd65812631a5cf5d3ed7f0ffffffffffffffffffffffffffffffec6ef5bf4737dcf70d6ec31748d98951d8309830877ffffffff000000000000000000000000ffffffff000000007dff000000ff000000ff000000ff000000ff000000ff000000ff000000ff0060088d811b9182167cff000000ff000000ff000000ff000000ff000000ff000000ff000000ff9e90911c9d8e1617601090811b7fff000000ff000000ff000000ff000000ff000000ff000000ff000000ff0000009092167eff000000ff000000ff000000ff000000ff000000ff000000ff000000ff0000909e169d909d17909c1c9b909b17602081811b9c8d1673ffffffff000000000000000000000000ffffffff9290911c91821617604090811b7fffffffff000000000000000000000000ffffffff000000000000000000000000909d167bffffffff000000000000000000000000ffffffff000000000000000090921691909117901c9a909a17608081811b91901c17999450507f7fffffffffffffffffffffffffffffffffffffffffffffffffffffffffffffff89169250600091508190506013600160ff1b03838409905060006013600160ff1b037f7fffffffffffffffffffffffffffffffffffffffffffffffffffffffffffffec8308905060006013600160ff1b037f52036cee2b6ffe738cc740797779e89800700a4d4141d8ab75eb4dca135978a38409611ee1906001615a0c565b905060006013600160ff1b038284099050611efb81613dc1565b5094506013600160ff1b0385860994506013600160ff1b0380826013600160ff1b0388890909840994506013600160ff1b03826013600160ff1b03878809099050828114611f9857611f54836013600160ff1b03615a53565b8114611f6a576000975050505050505050613341565b6013600160ff1b037f2b8324804fc1df0b2b4d00993dfbd7a72f431806ad2fe478c4ee1b274a0ea0b0860994505b5050505060ff88901c6001821614611fbe57611fbb816013600160ff1b03615a53565b90505b77ffffffff000000000000000000000000ffffffff000000007dff000000ff000000ff000000ff000000ff000000ff000000ff000000ff00600888811b9182167cff000000ff000000ff000000ff000000ff000000ff000000ff000000ff9990911c98891617601090811b7fff000000ff000000ff000000ff000000ff000000ff000000ff000000ff0000009092167eff000000ff000000ff000000ff000000ff000000ff000000ff000000ff00009099169890981790971c96909617602081811b97881673ffffffff000000000000000000000000ffffffff9290911c91821617604090811b7fffffffff000000000000000000000000ffffffff0000000000000000000000009098167bffffffff000000000000000000000000ffffffff000000000000000090921691909117901c95909517608081811b91901c17947f1000000000000000000000000000000014def9dea2f79cd65812631a5cf5d3ed86106121305760009350505050613341565b60008060008061213e6150a0565b600061214a8789615a0c565b90506000876121608a6013600160ff1b03615a0c565b61216a9190615a53565b905060006013600160ff1b037f2406d9dc56dffce7198e80f2eef3d13000e0149a8283b156ebd69b9426b2f1596013600160ff1b038c8c09099050898960018060006013600160ff1b03828509905060006013600160ff1b03848709905060006013600160ff1b03848609905060006013600160ff1b03848509905060006013600160ff1b03848509905060006013600160ff1b03858709905060006013600160ff1b03858609905061221d8280615a0c565b995083612231846013600160ff1b03615a0c565b61223b9190615a53565b98506122478385615a0c565b9a506013600160ff1b0361225d8a602519615a53565b6122678380615a0c565b0897505050505050505060006013600160ff1b038061228857612288615a24565b828509905060006013600160ff1b03848709905060006013600160ff1b03848609905060006013600160ff1b03848509905060006013600160ff1b03848509905060006013600160ff1b03858709905060006013600160ff1b0385860990506122f18280615a0c565b995083612305846013600160ff1b03615a0c565b61230f9190615a53565b985061231b8385615a0c565b9a506013600160ff1b036123318a602519615a53565b61233b8380615a0c565b0897505050505050505060006013600160ff1b038061235c5761235c615a24565b828509905060006013600160ff1b03848709905060006013600160ff1b03848609905060006013600160ff1b03848509905060006013600160ff1b03848509905060006013600160ff1b03858709905060006013600160ff1b0385860990506123c58280615a0c565b9950836123d9846013600160ff1b03615a0c565b6123e39190615a53565b98506123ef8385615a0c565b9a506013600160ff1b036124058a602519615a53565b61240f8380615a0c565b089750600196508e955060009450505050505b6000808080806013600160ff1b03898c09905060006013600160ff1b038b8e09905060006013600160ff1b038b8d0990506013600160ff1b038e8e09945061246a8383615a0c565b96508261247e836013600160ff1b03615a0c565b6124889190615a53565b95506124948180615a0c565b935050505083866001600281106124ad576124ad61562f565b60200201515186600881106124c4576124c461562f565b60200201528286600160200201516001602002015186600881106124ea576124ea61562f565b60200201526013600160ff1b037f2406d9dc56dffce7198e80f2eef3d13000e0149a8283b156ebd69b9426b2f159830960208701516040015186600881106125345761253461562f565b60200201528551518190866008811061254f5761254f61562f565b60200201528686600060200201516001602002015186600881106125755761257561562f565b60200201526013600160ff1b038188099650846007036125985750505050612633565b60006013600160ff1b038f8609905060006013600160ff1b038f8609905060006013600160ff1b038f86099050816125d7846013600160ff1b03615a0c565b6125e19190615a53565b9c506013600160ff1b038185089b506125fa8284615a0c565b9d506013600160ff1b03612615826013600160ff1b03615a53565b85089a5050505050505050808061262b9061568d565b915050612422565b50600061263f83613dc1565b90935090506013600160ff1b0383840992506013600160ff1b0383840992506013600160ff1b0383840992506013600160ff1b0383840992506013600160ff1b0383840992506013600160ff1b03818409925060075b8251602001516000906013600160ff1b039083600881106126b8576126b861562f565b602002015186096020850151519091506013600160ff1b0390829084600881106126e4576126e461562f565b60200201510960208501515183600881106127015761270161562f565b60200201526013600160ff1b0381856001602002015160016020020151846008811061272f5761272f61562f565b6020020151096020808601510151836008811061274e5761274e61562f565b60200201526013600160ff1b0381856001602002015160026020020151846008811061277c5761277c61562f565b602002015109602085015160400151836008811061279c5761279c61562f565b602002015260008290036127b057506127ea565b8351516013600160ff1b039083600881106127cd576127cd61562f565b6020020151860994505080806127e290615a6a565b915050612695565b5060405180606001604052806040518061010001604052807f43e7ce9d19ea5d329385a44c321ea16167c996e37dc6070c97de49e37ac61db981526020017f40cff34425d8ec30a3bb74ba58cd5854fa1e38186ad0d31ebc8ae251ceb2c97e81526020017f459bd27046e8dd45aea7008db87a5a8f7906779253d64523589518599fdfbf4b81526020017f69fdd1e28c23cc3894d0c8ff90e76f6d5b6e4c2e620136d04dd83c4a51581ab981526020017f54dceb3413ce5cfa11196dfc960b6edaf4b380c6d4d2378419cc0279ba49c5f381526020017f4e24184dd71a3d77eef3729f7f8cf7c17224cf40aa7b9548b9942f3c5084ceed81526020017f5a0e5aab20262674ae1175761cbf5e889b52a55fd7ac5027c228cebdc8d2360a81526020017f26239334073e9b38c62859556d451c3dcc8d30e84b361174f488eadde2cf17d981525081526020016040518061010001604052807f227e97c94c7c0933d2e0c21a3447c504fe9ccf82e8a05f59ce881c82eba0489f81526020017f226a3e0ecc4afec6fd0d288413014a9dbddecf06c1a2f0bb702ba77c613d820981526020017f34d7efc851d45c5e71efeb0f235b794691de6228877569b3a8d52bf058b8a4a081526020017f3c1f5fb3ca7166fce1471c9b752b6d28c56301ad7b65e8451b2c8c5526726e1281526020017f6102416cf02f02ff5be75275f55f28db89b2a9d2456b860ce22fc0e5031f7cc581526020017f40adf677f1bfdae057f0fd179c12617918ddaa2891a6530fb1a4294fa866549081526020017f61936f3c415609046187b8baa978cbc9b47893363ae5a3cc7d909f3635ae7f4881526020017f562a9662b6ec47f9e979d473c02b51e4423368238c58ddb52f0e5c6a180e641081525081526020016040518061010001604052807f3788bdb44f8632d42d0dbee5eea1acc6136cf411e655624f55e48902c3bd553481526020017f6190cf2c2a7b5ad769d594a82844f23b4167fa7c8ac30e51aa6cfbebdcd4b94581526020017f65f7787096be9204123a71f3ac88a87be1513217737d6a1e2f3a13a43d7e3a9a81526020017f023af32dbfa67975536479a7a7ce74a02142147fac0480187f1f13349cda1f2d81526020017f64fc44b7fc6841bddb0ced8b8b0fe6759137ef87ee96651215fc1dbcd25c64dc81526020017f1434aa3748b701d5b69df3d7d340c1fe3f6b9c1efc617484caadb47e382f447581526020017f457a6da8c962ef35f2b217423e5844e9d23534527e8ea4290d24e3ddf21720c681526020017f63b9540ceb60ccb51e4d989d956e053cf2511837efb79089d2ff40284202c53d81525081525082600060028110612bc457612bc461562f565b602002018190525050505050505050505050600060038c60001c901b90506000897f80000000000000000000000000000000a6f7cef517bce6b2c09318d2e7ae9f60612c109190615a0c565b905060006001808060fc5b6008811b87811615612d95576000808080806013600160ff1b03888c09905060006013600160ff1b038b8b099050612c538282615a0c565b955081612c67826013600160ff1b03615a0c565b612c719190615a53565b94506013600160ff1b03898c0993506013600160ff1b038a8d09925050506000868d901c6007169050866007901b198d169c5060008e905060006013600160ff1b0380612cc057612cc0615a24565b8251602001518460088110612cd757612cd761562f565b602002015187098251519091506000906013600160ff1b03908560088110612d0157612d0161562f565b602002015189098351604001519091506000906013600160ff1b03908660088110612d2e57612d2e61562f565b60200201518709905082612d49836013600160ff1b03615a0c565b612d539190615a53565b9e50612d5f8188615a0c565b9d50612d6b8383615a0c565b9c5080612d7f886013600160ff1b03615a0c565b612d899190615a53565b9b505050505050505050505b86811615612f06576000808080806013600160ff1b03888c09905060006013600160ff1b038b8b099050612dc98282615a0c565b955081612ddd826013600160ff1b03615a0c565b612de79190615a53565b94506013600160ff1b03898c0993506013600160ff1b038a8d096007808a1b198f169e91945090891c1691508e905060006013600160ff1b038260016020020151600060200201518460088110612e4057612e4061562f565b6020020151870960208084015101519091506000906013600160ff1b03908560088110612e6f57612e6f61562f565b602002015189096020840151604001519091506000906013600160ff1b03908660088110612e9f57612e9f61562f565b60200201518709905082612eba836013600160ff1b03615a0c565b612ec49190615a53565b9e5080612ed8886013600160ff1b03615a0c565b612ee29190615a53565b9d50612eee8383615a0c565b9c50612efa8188615a0c565b9b505050505050505050505b81600003613070576000808080806013600160ff1b03888c09905060006013600160ff1b038b8b099050612f3a8282615a0c565b955081612f4e826013600160ff1b03615a0c565b612f589190615a53565b94506013600160ff1b03898c0993506013600160ff1b038a8d099250505060078b168d60006013600160ff1b038260016020020151600060200201518460088110612fa557612fa561562f565b6020020151870960208084015101519091506000906013600160ff1b03908560088110612fd457612fd461562f565b602002015189096020840151604001519091506000906013600160ff1b039086600881106130045761300461562f565b6020020151870990508261301f836013600160ff1b03615a0c565b6130299190615a53565b9e508061303d886013600160ff1b03615a0c565b6130479190615a53565b9d506130538383615a0c565b9c5061305f8188615a0c565b9b505050505050505050505061314b565b60006013600160ff1b03848809905060006013600160ff1b03878709905060006013600160ff1b03868909905060006013600160ff1b03848509905060006013600160ff1b03848509905060006013600160ff1b03858709905060006013600160ff1b0385860990506130e38280615a0c565b9c50836130f7846013600160ff1b03615a0c565b6131019190615a53565b9b5061310d8385615a0c565b9a506013600160ff1b036131238d602519615a53565b61312d8380615a0c565b0899505050505050505050808061314390615a6a565b915050612c1b565b5092995090975095509350600091508190506131706013600160ff1b03858809613dc1565b915091506013600160ff1b038061318957613189615a24565b82830991506013600160ff1b0382830991506013600160ff1b0382830991506013600160ff1b0382830991506013600160ff1b0382830991506013600160ff1b0381830991506013600160ff1b0380858409880996506013600160ff1b0380878409860977ffffffff000000000000000000000000ffffffff000000007dff000000ff000000ff000000ff000000ff000000ff000000ff000000ff0060ff9990991b909117600881811b998a167cff000000ff000000ff000000ff000000ff000000ff000000ff000000ff9290911c91821617601090811b7fff000000ff000000ff000000ff000000ff000000ff000000ff000000ff000000909a167eff000000ff000000ff000000ff000000ff000000ff000000ff000000ff000090921691909117901c97909717602081811b98891673ffffffff000000000000000000000000ffffffff9290911c91821617604090811b7fffffffff000000000000000000000000ffffffff0000000000000000000000009099167bffffffff000000000000000000000000ffffffff000000000000000090921691909117901c96909617608081811b91901c178d1499505050505050505050505b949350505050565b6133516150cd565b6040805161010081018252676a09e667f3bcc908815267bb67ae8584caa73b6020820152673c6ef372fe94f82b9181019190915267a54ff53a5f1d36f1606082015267510e527fade682d16080820152679b05688c2b3e6c1f60a0820152671f83d9abfb41bd6b60c0820152675be0cd19137e217960e08201526000806133d66150ec565b6040805161010081018252600080825260208201819052918101829052606081018290526080810182905260a0810182905260c0810182905260e081019190915260408051610a008101825267428a2f98d728ae228152677137449123ef65cd602082015267b5c0fbcfec4d3b2f9181019190915267e9b5dba58189dbbc6060820152673956c25bf348b53860808201526759f111f1b605d01960a082015267923f82a4af194f9b60c082015267ab1c5ed5da6d811860e082015267d807aa98a30302426101008201526712835b0145706fbe61012082015267243185be4ee4b28c61014082015267550c7dc3d5ffb4e26101608201526772be5d74f27b896f6101808201526780deb1fe3b1696b16101a0820152679bdc06a725c712356101c082015267c19bf174cf6926946101e082015267e49b69c19ef14ad261020082015267efbe4786384f25e3610220820152670fc19dc68b8cd5b561024082015267240ca1cc77ac9c65610260820152672de92c6f592b0275610280820152674a7484aa6ea6e4836102a0820152675cb0a9dcbd41fbd46102c08201526776f988da831153b56102e082015267983e5152ee66dfab61030082015267a831c66d2db4321061032082015267b00327c898fb213f61034082015267bf597fc7beef0ee461036082015267c6e00bf33da88fc261038082015267d5a79147930aa7256103a08201526706ca6351e003826f6103c082015267142929670a0e6e706103e08201526727b70a8546d22ffc610400820152672e1b21385c26c926610420820152674d2c6dfc5ac42aed6104408201526753380d139d95b3df61046082015267650a73548baf63de61048082015267766a0abb3c77b2a86104a08201526781c2c92e47edaee66104c08201526792722c851482353b6104e082015267a2bfe8a14cf1036461050082015267a81a664bbc42300161052082015267c24b8b70d0f8979161054082015267c76c51a30654be3061056082015267d192e819d6ef521861058082015267d69906245565a9106105a082015267f40e35855771202a6105c082015267106aa07032bbd1b86105e08201526719a4c116b8d2d0c8610600820152671e376c085141ab53610620820152672748774cdf8eeb996106408201526734b0bcb5e19b48a861066082015267391c0cb3c5c95a63610680820152674ed8aa4ae3418acb6106a0820152675b9cca4f7763e3736106c082015267682e6ff3d6b2b8a36106e082015267748f82ee5defb2fc6107008201526778a5636f43172f606107208201526784c87814a1f0ab72610740820152678cc702081a6439ec6107608201526790befffa23631e2861078082015267a4506cebde82bde96107a082015267bef9a3f7b2c679156107c082015267c67178f2e372532b6107e082015267ca273eceea26619c61080082015267d186b8c721c0c20761082082015267eada7dd6cde0eb1e61084082015267f57d4f7fee6ed1786108608201526706f067aa72176fba610880820152670a637dc5a2c898a66108a082015267113f9804bef90dae6108c0820152671b710b35131c471b6108e08201526728db77f523047d846109008201526732caab7b40c72493610920820152673c9ebe0a15c9bebc61094082015267431d67c49c100d4c610960820152674cc5d4becb3e42b661098082015267597f299cfc657e2a6109a0820152675fcb6fab3ad6faec6109c0820152676c44198c4a4758176109e082015260006138d489614af0565b905060005b608082516138e79190615a81565b811015613db35760006138fa8383614d65565b895167ffffffffffffffff90811687526020808c01518216908801526040808c01518216908801526060808c01518216908801526080808c015182169088015260a0808c015182169088015260c0808c015182169088015260e0808c015190911690870152905060005b6050811015613c595760108110156139b8578181601081106139885761398861562f565b602002015187826050811061399f5761399f61562f565b67ffffffffffffffff9092166020929092020152613ab9565b866139c4601083615a53565b605081106139d4576139d461562f565b602002015167ffffffffffffffff16613a0c886139f2600f85615a53565b60508110613a0257613a0261562f565b6020020151614df6565b67ffffffffffffffff1688613a22600785615a53565b60508110613a3257613a3261562f565b602002015167ffffffffffffffff16613a6a8a613a50600287615a53565b60508110613a6057613a6061562f565b6020020151614e25565b67ffffffffffffffff16613a7e9190615a0c565b613a889190615a0c565b613a929190615a0c565b878260508110613aa457613aa461562f565b67ffffffffffffffff90921660209290920201525b868160508110613acb57613acb61562f565b602002015167ffffffffffffffff16858260508110613aec57613aec61562f565b602002015167ffffffffffffffff16613b1f88608001518960a001518a60c0015167ffffffffffffffff83181691161890565b67ffffffffffffffff16613b368960800151614e4c565b67ffffffffffffffff168960e0015167ffffffffffffffff16613b599190615a0c565b613b639190615a0c565b613b6d9190615a0c565b613b779190615a0c565b865160208801516040890151929b508281169282169116181867ffffffffffffffff16613ba78760000151614e79565b67ffffffffffffffff16613bbb9190615a0c565b60c08701805167ffffffffffffffff90811660e08a015260a0890180518216909252608089015181169091526060880151919950613bfd918b82169116615a0c565b67ffffffffffffffff9081166080880152604087018051821660608901526020880180518316909152875182169052613c3b90898116908b16615a0c565b67ffffffffffffffff16865280613c518161568d565b915050613964565b5084518951613c759167ffffffffffffffff9081169116615a0c565b67ffffffffffffffff9081168a52602086810151908b0151613c9b929182169116615a0c565b67ffffffffffffffff90811660208b0152604086810151908b0151613cc4929182169116615a0c565b67ffffffffffffffff90811660408b0152606086810151908b0151613ced929182169116615a0c565b67ffffffffffffffff90811660608b0152608086810151908b0151613d16929182169116615a0c565b67ffffffffffffffff90811660808b015260a086810151908b0151613d3f929182169116615a0c565b67ffffffffffffffff90811660a08b015260c086810151908b0151613d68929182169116615a0c565b67ffffffffffffffff90811660c08b015260e086810151908b0151613d91929182169116615a0c565b67ffffffffffffffff1660e08a01525080613dab8161568d565b9150506138d9565b509598975050505050505050565b6000806013600160ff1b0383840990506013600160ff1b0381820991506013600160ff1b03836013600160ff1b038485090991506013600160ff1b0381830990506013600160ff1b03826013600160ff1b0383840909915060006013600160ff1b0383840990506013600160ff1b0381820990506013600160ff1b0381820990506013600160ff1b0381820990506013600160ff1b0381820990506013600160ff1b0381840992506013600160ff1b0383840990506013600160ff1b0381820990506013600160ff1b0381820990506013600160ff1b0381820990506013600160ff1b0381820990506013600160ff1b0381820990506013600160ff1b0381820990506013600160ff1b0381820990506013600160ff1b0381820990506013600160ff1b0381820990506013600160ff1b03818409905060006013600160ff1b0382830990506013600160ff1b0381820990506013600160ff1b0381820990506013600160ff1b0381820990506013600160ff1b0381820990506013600160ff1b0381820990506013600160ff1b0381820990506013600160ff1b0381820990506013600160ff1b0381820990506013600160ff1b0381820990506013600160ff1b0381820990506013600160ff1b0381820990506013600160ff1b0381820990506013600160ff1b0381820990506013600160ff1b0381820990506013600160ff1b0381820990506013600160ff1b0381820990506013600160ff1b0381820990506013600160ff1b0381820990506013600160ff1b0381820990506013600160ff1b0381830991506013600160ff1b0382830991506013600160ff1b0382830991506013600160ff1b0382830991506013600160ff1b0382830991506013600160ff1b0382830991506013600160ff1b0382830991506013600160ff1b0382830991506013600160ff1b0382830991506013600160ff1b0382830991506013600160ff1b0382830991506013600160ff1b0382850993506013600160ff1b0384850991506013600160ff1b0382830991506013600160ff1b0382830991506013600160ff1b0382830991506013600160ff1b0382830991506013600160ff1b0382830991506013600160ff1b0382830991506013600160ff1b0382830991506013600160ff1b0382830991506013600160ff1b0382830991506013600160ff1b0382830991506013600160ff1b0382830991506013600160ff1b0382830991506013600160ff1b0382830991506013600160ff1b0382830991506013600160ff1b0382830991506013600160ff1b0382830991506013600160ff1b0382830991506013600160ff1b0382830991506013600160ff1b0382830991506013600160ff1b0382830991506013600160ff1b0382830991506013600160ff1b0382830991506013600160ff1b0382830991506013600160ff1b0382830991506013600160ff1b0382830991506013600160ff1b0382830991506013600160ff1b0382830991506013600160ff1b0382830991506013600160ff1b0382830991506013600160ff1b0382830991506013600160ff1b0382830991506013600160ff1b0382830991506013600160ff1b0382830991506013600160ff1b0382830991506013600160ff1b0382830991506013600160ff1b0382830991506013600160ff1b0382830991506013600160ff1b0382830991506013600160ff1b0382830991506013600160ff1b0382830991506013600160ff1b0382830991506013600160ff1b0382830991506013600160ff1b0382830991506013600160ff1b0382830991506013600160ff1b0382830991506013600160ff1b0382830991506013600160ff1b0382830991506013600160ff1b0382830991506013600160ff1b0382830991506013600160ff1b0382850991506013600160ff1b0382830990506013600160ff1b0381820990506013600160ff1b0381820990506013600160ff1b0381820990506013600160ff1b0381820990506013600160ff1b0381820990506013600160ff1b0381820990506013600160ff1b0381820990506013600160ff1b0381820990506013600160ff1b0381820990506013600160ff1b0381820990506013600160ff1b0381820990506013600160ff1b0381820990506013600160ff1b0381820990506013600160ff1b0381820990506013600160ff1b0381820990506013600160ff1b0381820990506013600160ff1b0381820990506013600160ff1b0381820990506013600160ff1b0381820990506013600160ff1b0381820990506013600160ff1b0381820990506013600160ff1b0381820990506013600160ff1b0381820990506013600160ff1b0381820990506013600160ff1b0381820990506013600160ff1b0381820990506013600160ff1b0381820990506013600160ff1b0381820990506013600160ff1b0381820990506013600160ff1b0381820990506013600160ff1b0381820990506013600160ff1b0381820990506013600160ff1b0381820990506013600160ff1b0381820990506013600160ff1b0381820990506013600160ff1b0381820990506013600160ff1b0381820990506013600160ff1b0381820990506013600160ff1b0381820990506013600160ff1b0381820990506013600160ff1b0381820990506013600160ff1b0381820990506013600160ff1b0381820990506013600160ff1b0381820990506013600160ff1b0381820990506013600160ff1b0381820990506013600160ff1b0381820990506013600160ff1b0381820990506013600160ff1b0381820990506013600160ff1b0381820990506013600160ff1b0381820990506013600160ff1b0381820990506013600160ff1b0381820990506013600160ff1b0381820990506013600160ff1b0381820990506013600160ff1b0381820990506013600160ff1b0381820990506013600160ff1b0381820990506013600160ff1b0381820990506013600160ff1b0381820990506013600160ff1b0381820990506013600160ff1b0381820990506013600160ff1b0381820990506013600160ff1b0381820990506013600160ff1b0381820990506013600160ff1b0381820990506013600160ff1b0381820990506013600160ff1b0381820990506013600160ff1b0381820990506013600160ff1b0381820990506013600160ff1b0381820990506013600160ff1b0381820990506013600160ff1b0381820990506013600160ff1b0381820990506013600160ff1b0381820990506013600160ff1b0381820990506013600160ff1b0381820990506013600160ff1b0381820990506013600160ff1b0381820990506013600160ff1b0381820990506013600160ff1b0381820990506013600160ff1b0381820990506013600160ff1b0381820990506013600160ff1b0381820990506013600160ff1b0381820990506013600160ff1b0381820990506013600160ff1b0381820990506013600160ff1b0381820990506013600160ff1b0381820990506013600160ff1b0381820990506013600160ff1b0381820990506013600160ff1b0381820990506013600160ff1b0381820990506013600160ff1b0381820990506013600160ff1b0381820990506013600160ff1b0381820990506013600160ff1b0381820990506013600160ff1b0381820990506013600160ff1b0381820990506013600160ff1b0381830991506013600160ff1b0382830991506013600160ff1b0382830991506013600160ff1b0382830991506013600160ff1b0382830991506013600160ff1b0382830991506013600160ff1b0382830991506013600160ff1b0382830991506013600160ff1b0382830991506013600160ff1b0382830991506013600160ff1b0382830991506013600160ff1b0382830991506013600160ff1b0382830991506013600160ff1b0382830991506013600160ff1b0382830991506013600160ff1b0382830991506013600160ff1b0382830991506013600160ff1b0382830991506013600160ff1b0382830991506013600160ff1b0382830991506013600160ff1b0382830991506013600160ff1b0382830991506013600160ff1b0382830991506013600160ff1b0382830991506013600160ff1b0382830991506013600160ff1b0382830991506013600160ff1b0382830991506013600160ff1b0382830991506013600160ff1b0382830991506013600160ff1b0382830991506013600160ff1b0382830991506013600160ff1b0382830991506013600160ff1b0382830991506013600160ff1b0382830991506013600160ff1b0382830991506013600160ff1b0382830991506013600160ff1b0382830991506013600160ff1b0382830991506013600160ff1b0382830991506013600160ff1b0382830991506013600160ff1b0382830991506013600160ff1b0382830991506013600160ff1b0382830991506013600160ff1b0382830991506013600160ff1b0382830991506013600160ff1b0382830991506013600160ff1b0382830991506013600160ff1b0382830991506013600160ff1b0382830991506013600160ff1b0382830991506013600160ff1b0382830991506013600160ff1b0382850993505050915091565b6060600060808351614b029190615a95565b614b0d906080615a53565b9050607060808451614b1f9190615a95565b10614b415760808351614b329190615a95565b614b3e90610100615a53565b90505b6000818451614b509190615a0c565b67ffffffffffffffff811115614b6857614b686151ca565b6040519080825280601f01601f191660200182016040528015614b92576020820181803683370190505b50905060005b8451811015614c1157848181518110614bb357614bb361562f565b602001015160f81c60f81b828281518110614bd057614bd061562f565b60200101907effffffffffffffffffffffffffffffffffffffffffffffffffffffffffffff1916908160001a90535080614c098161568d565b915050614b98565b50608060f81b81855181518110614c2a57614c2a61562f565b60200101907effffffffffffffffffffffffffffffffffffffffffffffffffffffffffffff1916908160001a905350600084516008614c699190615aa9565b60408051608083901b7fffffffffffffffffffffffffffffffff0000000000000000000000000000000016602082015281516010818303018152603090910190915290915060005b8151811015614d5a57818160018451614cca9190615a53565b614cd49190615a53565b81518110614ce457614ce461562f565b602001015160f81c60f81b848260018751614cff9190615a53565b614d099190615a53565b81518110614d1957614d1961562f565b60200101907effffffffffffffffffffffffffffffffffffffffffffffffffffffffffffff1916908160001a90535080614d528161568d565b915050614cb1565b509195945050505050565b614d6d61510b565b614d7561510b565b60005b60108160ff161015614dee57614db085614d93836008615ac8565b60ff16614da1876080615aa9565b614dab9190615a0c565b614e9c565b60c01c828260ff1660108110614dc857614dc861562f565b67ffffffffffffffff909216602092909202015280614de681615af1565b915050614d78565b509392505050565b60006701ffffffffffffff600783901c16614e12836008614f11565b614e1d846001614f11565b181892915050565b60006703ffffffffffffff600683901c16614e4183603d614f11565b614e1d846013614f11565b600080614e5a836029614f11565b614e65846012614f11565b614e7085600e614f11565b18189392505050565b6000614e86826027614f11565b614e91836022614f11565b614e1d84601c614f11565b60008060005b6008811015614dee57614eb6816008615aa9565b85614ec18387615a0c565b81518110614ed157614ed161562f565b01602001517fff0000000000000000000000000000000000000000000000000000000000000016901c919091179080614f098161568d565b915050614ea2565b600067ffffffffffffffff8316821c614f2b836040615a53565b8467ffffffffffffffff16901b614f4291906156a7565b9392505050565b605083019183908215614fea579160040282015b82811115614fea578254825460ff9091167fffffffffffffffffffffffffffffffffffffffffffffffffffffffffffffff00821681178455845468ffffffffffffffffff19909216176101009182900467ffffffffffffffff1690910217825560018084015490830155600280840154908301556003808401549083015560049283019290910190614f5d565b50614ff692915061512a565b5090565b506115d190605081019061512a565b6040518061028001604052806014905b6040805160a0810182526000808252602080830182905292820181905260608201819052608082015282526000199092019101816150195790505090565b506115d1906014810190615160565b604051806101400160405280600a905b60408051808201909152600080825260208201528152602001906001900390816150765790505090565b60405180604001604052806002905b6150b761517b565b8152602001906001900390816150af5790505090565b6040518061010001604052806008906020820280368337509192915050565b60405180610a0001604052806050906020820280368337509192915050565b6040518061020001604052806010906020820280368337509192915050565b5b80821115614ff657805468ffffffffffffffffff1916815560006001820181905560028201819055600382015560040161512b565b5b80821115614ff65760008082556001820155600201615161565b60405180606001604052806003905b6151926150cd565b81526020019060019003908161518a5790505090565b600080604083850312156151bb57600080fd5b50508035926020909101359150565b7f4e487b7100000000000000000000000000000000000000000000000000000000600052604160045260246000fd5b604051610100810167ffffffffffffffff8111828210171561521d5761521d6151ca565b60405290565b60405160a0810167ffffffffffffffff8111828210171561521d5761521d6151ca565b6040516080810167ffffffffffffffff8111828210171561521d5761521d6151ca565b604051610c80810167ffffffffffffffff8111828210171561521d5761521d6151ca565b604051610400810167ffffffffffffffff8111828210171561521d5761521d6151ca565b803580151581146152c157600080fd5b919050565b600082601f8301126152d757600080fd5b6152df615246565b8060808401858111156152f157600080fd5b845b8181101561530b5780358452602093840193016152f3565b509095945050505050565b60ff811681146115d157600080fd5b80356152c181615316565b803563ffffffff811681146152c157600080fd5b600082601f83011261535557600080fd5b61535d615246565b80608084018581111561536f57600080fd5b845b8181101561530b57803561ffff8116811461538c5760008081fd5b845260209384019301615371565b60008060008061d4c08086880312156153b257600080fd5b853567ffffffffffffffff808211156153ca57600080fd5b818801915088601f8301126153de57600080fd5b8135818111156153ed57600080fd5b60209150898282850101111561540257600080fd5b82820197509550878101359450605f8801891361541e57600080fd5b615426615269565b928801929150818984111561543a57600080fd5b604089015b848110156154f157610220818c0312156154595760008081fd5b6154616151f9565b61546a826152b1565b81526154788c8584016152c6565b8482015260a080830135604083015260c0615494818501615325565b606084015260e06154a78f8287016152c6565b60808501526154b96101608601615330565b838501526154cb8f6101808701615344565b828501526154dc6102008601615325565b9084015250508452928201926102200161543f565b50969995985093965050505050565b610c808101818360005b6014811015615563578151805160ff16845260208082015167ffffffffffffffff168186015260408083015190860152606080830151908601526080918201519185019190915260a0909301929091019060010161550a565b50505092915050565b600080600061022080858703121561558357600080fd5b843593506020850135925085818601111561559d57600080fd5b506040840190509250925092565b6102808101818360005b600a8110156155635781518051845260209081015181850152604090930192909101906001016155b5565b6000602082840312156155f257600080fd5b813573ffffffffffffffffffffffffffffffffffffffff81168114614f4257600080fd5b60006020828403121561562857600080fd5b5035919050565b7f4e487b7100000000000000000000000000000000000000000000000000000000600052603260045260246000fd5b7f4e487b7100000000000000000000000000000000000000000000000000000000600052601160045260246000fd5b600060001982036156a0576156a061565e565b5060010190565b600067ffffffffffffffff8083168185168083038211156156ca576156ca61565e565b01949350505050565b600067ffffffffffffffff808316818516818304811182151516156156fa576156fa61565e565b02949350505050565b8183528181602085013750600060208284010152600060207fffffffffffffffffffffffffffffffffffffffffffffffffffffffffffffffe0601f840116840101905092915050565b8060005b600481101561576f578151845260209384019390910190600101615750565b50505050565b8060005b600481101561576f57815161ffff16845260209384019390910190600101615779565b806000805b6064811015615868578251805115158652602080820151818801855b60048110156157da578251825291830191908301906001016157bd565b505050604082015160a081818a01526060840151915060c0615800818b018460ff169052565b6080850151925060e0615815818c018561574c565b8286015163ffffffff166101608c01528186015193506158396101808c0185615775565b949094015160ff81166102008b01529350615852915050565b61022096909601959390930192506001016157a1565b5050505050565b600061d4e0808352615884818401888a615703565b91505084602083015261589a604083018561579c565b8261d4c08301529695505050505050565b60006114008083850312156158bf57600080fd5b83601f8401126158ce57600080fd5b6158d661528d565b9083019080858311156158e857600080fd5b845b838110156159675760a081880312156159035760008081fd5b61590b615223565b815161591681615316565b815260208281015167ffffffffffffffff811681146159355760008081fd5b82820152604083810151908301526060808401519083015260808084015190830152908452929092019160a0016158ea565b5095945050505050565b60006020828403121561598357600080fd5b5051919050565b600067ffffffffffffffff838116908316818110156159ab576159ab61565e565b039392505050565b600061d4c08083526159c88184018789615703565b9150508360208301526159de604083018461579c565b95945050505050565b600060ff821660ff84168060ff03821115615a0457615a0461565e565b019392505050565b60008219821115615a1f57615a1f61565e565b500190565b7f4e487b7100000000000000000000000000000000000000000000000000000000600052601260045260246000fd5b600082821015615a6557615a6561565e565b500390565b600081615a7957615a7961565e565b506000190190565b600082615a9057615a90615a24565b500490565b600082615aa457615aa4615a24565b500690565b6000816000190483118215151615615ac357615ac361565e565b500290565b600060ff821660ff84168160ff0481118215151615615ae957615ae961565e565b029392505050565b600060ff821660ff8103615b0757615b0761565e565b6001019291505056fea26469706673582212203f4dc8e0289e8c125460ba1d6c4d64da7607b74890777b98c50c667b037fd3ad64736f6c634300080f0033",
  "linkReferences": {},
  "deployedLinkReferences": {}
}