{
  "_format": "hh-sol-artifact-1",
  "contractName": "SignatureValidator",
  "sourceName": "contracts/validator/SignatureValidator.sol",
  "abi": [
    {
      "inputs": [
        {
          "internalType": "address",
          "name": "blockParserAddr",
          "type": "address"
        }
      ],
      "stateMutability": "nonpayable",
      "type": "constructor"
    },
    {
      "anonymous": false,
      "inputs": [
        {
          "indexed": true,
          "internalType": "address",
          "name": "previousOwner",
          "type": "address"
        },
        {
          "indexed": true,
          "internalType": "address",
          "name": "newOwner",
          "type": "address"
        }
      ],
      "name": "OwnershipTransferred",
      "type": "event"
    },
    {
      "inputs": [
        {
          "internalType": "bytes32",
          "name": "root_h",
          "type": "bytes32"
        }
      ],
      "name": "addCurrentBlockToVerifiedSet",
      "outputs": [
        {
          "internalType": "bytes32",
          "name": "",
          "type": "bytes32"
        }
      ],
      "stateMutability": "view",
      "type": "function"
    },
    {
      "inputs": [],
      "name": "getCandidatesForValidators",
      "outputs": [
        {
          "components": [
            {
              "internalType": "uint8",
              "name": "cType",
              "type": "uint8"
            },
            {
              "internalType": "uint64",
              "name": "weight",
              "type": "uint64"
            },
            {
              "internalType": "bytes32",
              "name": "adnl_addr",
              "type": "bytes32"
            },
            {
              "internalType": "bytes32",
              "name": "pubkey",
              "type": "bytes32"
            },
            {
              "internalType": "bytes32",
              "name": "node_id",
              "type": "bytes32"
            }
          ],
          "internalType": "struct ValidatorDescription[20]",
          "name": "",
          "type": "tuple[20]"
        }
      ],
      "stateMutability": "view",
      "type": "function"
    },
    {
      "inputs": [],
      "name": "getPrunedCells",
      "outputs": [
        {
          "components": [
            {
              "internalType": "uint256",
              "name": "prefixLength",
              "type": "uint256"
            },
            {
              "internalType": "bytes32",
              "name": "hash",
              "type": "bytes32"
            }
          ],
          "internalType": "struct CachedCell[10]",
          "name": "",
          "type": "tuple[10]"
        }
      ],
      "stateMutability": "view",
      "type": "function"
    },
    {
      "inputs": [],
      "name": "getValidators",
      "outputs": [
        {
          "components": [
            {
              "internalType": "uint8",
              "name": "cType",
              "type": "uint8"
            },
            {
              "internalType": "uint64",
              "name": "weight",
              "type": "uint64"
            },
            {
              "internalType": "bytes32",
              "name": "adnl_addr",
              "type": "bytes32"
            },
            {
              "internalType": "bytes32",
              "name": "pubkey",
              "type": "bytes32"
            },
            {
              "internalType": "bytes32",
              "name": "node_id",
              "type": "bytes32"
            }
          ],
          "internalType": "struct ValidatorDescription[20]",
          "name": "",
          "type": "tuple[20]"
        }
      ],
      "stateMutability": "view",
      "type": "function"
    },
    {
      "inputs": [],
      "name": "initValidators",
      "outputs": [
        {
          "internalType": "bytes32",
          "name": "",
          "type": "bytes32"
        }
      ],
      "stateMutability": "nonpayable",
      "type": "function"
    },
    {
      "inputs": [
        {
          "internalType": "bytes32",
          "name": "node_id",
          "type": "bytes32"
        },
        {
          "internalType": "bytes32",
          "name": "root_h",
          "type": "bytes32"
        }
      ],
      "name": "isSignedByValidator",
      "outputs": [
        {
          "internalType": "bool",
          "name": "",
          "type": "bool"
        }
      ],
      "stateMutability": "view",
      "type": "function"
    },
    {
      "inputs": [],
      "name": "owner",
      "outputs": [
        {
          "internalType": "address",
          "name": "",
          "type": "address"
        }
      ],
      "stateMutability": "view",
      "type": "function"
    },
    {
      "inputs": [
        {
          "internalType": "bytes",
          "name": "boc",
          "type": "bytes"
        },
        {
          "internalType": "uint256",
          "name": "rootIdx",
          "type": "uint256"
        },
        {
          "components": [
            {
              "internalType": "bool",
              "name": "special",
              "type": "bool"
            },
            {
              "internalType": "uint256[4]",
              "name": "refs",
              "type": "uint256[4]"
            },
            {
              "internalType": "uint256",
              "name": "cursor",
              "type": "uint256"
            },
            {
              "internalType": "uint8",
              "name": "cursorRef",
              "type": "uint8"
            },
            {
              "internalType": "bytes32[4]",
              "name": "_hash",
              "type": "bytes32[4]"
            },
            {
              "internalType": "uint32",
              "name": "level_mask",
              "type": "uint32"
            },
            {
              "internalType": "uint16[4]",
              "name": "depth",
              "type": "uint16[4]"
            },
            {
              "internalType": "uint8",
              "name": "cellType",
              "type": "uint8"
            }
          ],
          "internalType": "struct CellData[100]",
          "name": "treeOfCells",
          "type": "tuple[100]"
        }
      ],
      "name": "parseCandidatesRootBlock",
      "outputs": [],
      "stateMutability": "nonpayable",
      "type": "function"
    },
    {
      "inputs": [
        {
          "internalType": "bytes",
          "name": "data",
          "type": "bytes"
        },
        {
          "internalType": "uint256",
          "name": "cellIdx",
          "type": "uint256"
        },
        {
          "components": [
            {
              "internalType": "bool",
              "name": "special",
              "type": "bool"
            },
            {
              "internalType": "uint256[4]",
              "name": "refs",
              "type": "uint256[4]"
            },
            {
              "internalType": "uint256",
              "name": "cursor",
              "type": "uint256"
            },
            {
              "internalType": "uint8",
              "name": "cursorRef",
              "type": "uint8"
            },
            {
              "internalType": "bytes32[4]",
              "name": "_hash",
              "type": "bytes32[4]"
            },
            {
              "internalType": "uint32",
              "name": "level_mask",
              "type": "uint32"
            },
            {
              "internalType": "uint16[4]",
              "name": "depth",
              "type": "uint16[4]"
            },
            {
              "internalType": "uint8",
              "name": "cellType",
              "type": "uint8"
            }
          ],
          "internalType": "struct CellData[100]",
          "name": "cells",
          "type": "tuple[100]"
        }
      ],
      "name": "parsePartValidators",
      "outputs": [],
      "stateMutability": "nonpayable",
      "type": "function"
    },
    {
      "inputs": [],
      "name": "renounceOwnership",
      "outputs": [],
      "stateMutability": "nonpayable",
      "type": "function"
    },
    {
      "inputs": [],
      "name": "setValidatorSet",
      "outputs": [
        {
          "internalType": "bytes32",
          "name": "",
          "type": "bytes32"
        }
      ],
      "stateMutability": "nonpayable",
      "type": "function"
    },
    {
      "inputs": [
        {
          "internalType": "address",
          "name": "newOwner",
          "type": "address"
        }
      ],
      "name": "transferOwnership",
      "outputs": [],
      "stateMutability": "nonpayable",
      "type": "function"
    },
    {
      "inputs": [
        {
          "internalType": "bytes32",
          "name": "root_h",
          "type": "bytes32"
        },
        {
          "internalType": "bytes32",
          "name": "file_hash",
          "type": "bytes32"
        },
        {
          "components": [
            {
              "internalType": "bytes32",
              "name": "node_id",
              "type": "bytes32"
            },
            {
              "internalType": "bytes32",
              "name": "r",
              "type": "bytes32"
            },
            {
              "internalType": "bytes32",
              "name": "s",
              "type": "bytes32"
            }
          ],
          "internalType": "struct Vdata[5]",
          "name": "vdata",
          "type": "tuple[5]"
        }
      ],
      "name": "verifyValidators",
      "outputs": [],
      "stateMutability": "nonpayable",
      "type": "function"
    }
  ],
  "bytecode": "0x6080604052605180546001600160401b031990811690915560b6805490911690553480156200002d57600080fd5b5060405162005bfa38038062005bfa8339810160408190526200005091620000d1565b6200005b3362000081565b60b880546001600160a01b0319166001600160a01b039290921691909117905562000103565b600080546001600160a01b038381166001600160a01b0319831681178455604051919092169283917f8be0079c531659141344cd1fd0a4f28419497f9722a3daafe3b4186f6b6457e09190a35050565b600060208284031215620000e457600080fd5b81516001600160a01b0381168114620000fc57600080fd5b9392505050565b615ae780620001136000396000f3fe608060405234801561001057600080fd5b50600436106100df5760003560e01c8063b7ab4db51161008c578063deaabb3411610066578063deaabb34146101ba578063df1d4c54146101cd578063f2fde38b146101e2578063f8930a31146101f557600080fd5b8063b7ab4db51461018a578063bd0aca6b1461019f578063bddb49a5146101a757600080fd5b8063715018a6116100bd578063715018a61461014557806387cef8ce1461014f5780638da5cb5b1461016257600080fd5b806316e6553a146100e45780631dea0b4f146100ff578063531b00af1461013d575b600080fd5b6100ec610208565b6040519081526020015b60405180910390f35b61012d61010d366004615149565b600091825260b96020908152604080842092845291905290205460ff1690565b60405190151581526020016100f6565b6100ec610278565b61014d6104ba565b005b61014d61015d36600461533b565b6104ce565b60005460405173ffffffffffffffffffffffffffffffffffffffff90911681526020016100f6565b610192610b56565b6040516100f691906154a1565b610192610be1565b61014d6101b536600461533b565b610c45565b61014d6101c836600461550d565b611236565b6101d5611480565b6040516100f6919061554c565b61014d6101f0366004615581565b6114d8565b6100ec6102033660046155b7565b611575565b60006102126116a6565b610220600160666014614eea565b5061022d60666000614f9b565b5060b68054605180547fffffffffffffffffffffffffffffffffffffffffffffffff000000000000000090811667ffffffffffffffff84161790915516905560b78054600090915590565b600154600090610100900467ffffffffffffffff16810361029857600080fd5b60005b600a81101561032757605281600a81106102b7576102b76155d0565b60020201600101546000801b146103155760405162461bcd60e51b815260206004820152601860248201527f6e656564207265616420616c6c2076616c696461746f7273000000000000000060448201526064015b60405180910390fd5b8061031f8161562e565b91505061029b565b506000805b60148110156103ce5760b960006001836014811061034c5761034c6155d0565b60040201600301548152602001908152602001600020600060b754815260200190815260200160002060009054906101000a900460ff16156103bc576001816014811061039b5761039b6155d0565b60040201546103b990610100900467ffffffffffffffff1683615648565b91505b806103c68161562e565b91505061032c565b506051546103e79067ffffffffffffffff166002615674565b67ffffffffffffffff166103fc826003615674565b67ffffffffffffffff16116104535760405162461bcd60e51b815260206004820152601160248201527f6e6f7420656e6f7567687420766f746573000000000000000000000000000000604482015260640161030c565b610461600160666014614eea565b5061046e60666000614f9b565b505060b68054605180547fffffffffffffffffffffffffffffffffffffffffffffffff000000000000000090811667ffffffffffffffff84161790915516905560b78054600090915590565b6104c26116a6565b6104cc600061170d565b565b60008060005b600a811015610574578385606481106104ef576104ef6155d0565b60200201516080015151605282600a811061050c5761050c6155d0565b6002020160010154036105625760019250605281600a8110610530576105306155d0565b60020201549150605281600a811061054a5761054a6155d0565b60006002919091029190910181815560010155610574565b8061056c8161562e565b9150506104d4565b50816105c25760405162461bcd60e51b815260206004820152601860248201527f57726f6e6720626f6320666f722076616c696461746f72730000000000000000604482015260640161030c565b60b8546040517fed78d52100000000000000000000000000000000000000000000000000000000815260009173ffffffffffffffffffffffffffffffffffffffff169063ed78d52190610621908a908a908a908a908990600401615810565b61140060405180830381865afa15801561063f573d6000803e3d6000fd5b505050506040513d601f19601f82011682018060405250810190610663919061584c565b905060005b6020811015610b4c5760005b6014811015610b395760668160148110610690576106906155d0565b6004020154610100900467ffffffffffffffff1660000361084e578282602081106106bd576106bd6155d0565b60209081029190910151015160b680546000906106e590849067ffffffffffffffff16615648565b92506101000a81548167ffffffffffffffff021916908367ffffffffffffffff16021790555082826020811061071d5761071d6155d0565b602002015160668260148110610735576107356155d0565b8251600491909102919091018054602084015167ffffffffffffffff166101000268ffffffffffffffffff1990911660ff90931692909217919091178155604082015160018201556060820151600282015560809091015160039091015560b85473ffffffffffffffffffffffffffffffffffffffff16631acbaa62606683601481106107c4576107c46155d0565b60040201600201546040518263ffffffff1660e01b81526004016107ea91815260200190565b602060405180830381865afa158015610807573d6000803e3d6000fd5b505050506040513d601f19601f8201168201806040525081019061082b9190615912565b6066826014811061083e5761083e6155d0565b6004020160030181905550610b39565b828260208110610860576108606155d0565b60200201516020015167ffffffffffffffff1660668260148110610886576108866155d0565b6004020154610100900467ffffffffffffffff161015610b27578282602081106108b2576108b26155d0565b60209081029190910151015160b680546000906108da90849067ffffffffffffffff16615648565b92506101000a81548167ffffffffffffffff021916908367ffffffffffffffff16021790555060668160148110610913576109136155d0565b600402015460b6805467ffffffffffffffff61010090930483169260009161093d9185911661592b565b92506101000a81548167ffffffffffffffff021916908367ffffffffffffffff160217905550600060668260148110610978576109786155d0565b6040805160a08101825260049290920292909201805460ff81168352610100900467ffffffffffffffff166020808401919091526001820154938301939093526002810154606083015260030154608082015291508490849081106109df576109df6155d0565b6020020151606683601481106109f7576109f76155d0565b825160049190910291909101805460208085015167ffffffffffffffff166101000268ffffffffffffffffff1990921660ff9094169390931717815560408301516001820155606083015160028201556080909201516003909201919091558190859085908110610a6a57610a6a6155d0565b602002015260b85473ffffffffffffffffffffffffffffffffffffffff16631acbaa6260668460148110610aa057610aa06155d0565b60040201600201546040518263ffffffff1660e01b8152600401610ac691815260200190565b602060405180830381865afa158015610ae3573d6000803e3d6000fd5b505050506040513d601f19601f82011682018060405250810190610b079190615912565b60668360148110610b1a57610b1a6155d0565b6004020160030181905550505b80610b318161562e565b915050610674565b5080610b448161562e565b915050610668565b5050505050505050565b610b5e614faa565b604080516102808101909152600160146000835b82821015610bd8576040805160a081018252600484028601805460ff81168352610100900467ffffffffffffffff166020808401919091526001808301549484019490945260028201546060840152600390910154608083015290835292019101610b72565b50505050905090565b610be9614faa565b6040805161032081019091526066805460ff8116610280840190815261010090910467ffffffffffffffff166102a08401526067546102c08401526068546102e084015260695461030084015282526014600160208401610b72565b610c5160666000614f9b565b60b680547fffffffffffffffffffffffffffffffffffffffffffffffff0000000000000000169055610c8560526000614ff8565b808260648110610c9757610c976155d0565b6020020151608001515160b75560b8546040517fbddb49a500000000000000000000000000000000000000000000000000000000815260009173ffffffffffffffffffffffffffffffffffffffff169063bddb49a590610d01908890889088908890600401615954565b611400604051808303816000875af1158015610d21573d6000803e3d6000fd5b505050506040513d601f19601f82011682018060405250810190610d45919061584c565b905060005b602081101561122e5760005b601481101561121b5760668160148110610d7257610d726155d0565b6004020154610100900467ffffffffffffffff16600003610f3057828260208110610d9f57610d9f6155d0565b60209081029190910151015160b68054600090610dc790849067ffffffffffffffff16615648565b92506101000a81548167ffffffffffffffff021916908367ffffffffffffffff160217905550828260208110610dff57610dff6155d0565b602002015160668260148110610e1757610e176155d0565b8251600491909102919091018054602084015167ffffffffffffffff166101000268ffffffffffffffffff1990911660ff90931692909217919091178155604082015160018201556060820151600282015560809091015160039091015560b85473ffffffffffffffffffffffffffffffffffffffff16631acbaa6260668360148110610ea657610ea66155d0565b60040201600201546040518263ffffffff1660e01b8152600401610ecc91815260200190565b602060405180830381865afa158015610ee9573d6000803e3d6000fd5b505050506040513d601f19601f82011682018060405250810190610f0d9190615912565b60668260148110610f2057610f206155d0565b600402016003018190555061121b565b828260208110610f4257610f426155d0565b60200201516020015167ffffffffffffffff1660668260148110610f6857610f686155d0565b6004020154610100900467ffffffffffffffff16101561120957828260208110610f9457610f946155d0565b60209081029190910151015160b68054600090610fbc90849067ffffffffffffffff16615648565b92506101000a81548167ffffffffffffffff021916908367ffffffffffffffff16021790555060668160148110610ff557610ff56155d0565b600402015460b6805467ffffffffffffffff61010090930483169260009161101f9185911661592b565b92506101000a81548167ffffffffffffffff021916908367ffffffffffffffff16021790555060006066826014811061105a5761105a6155d0565b6040805160a08101825260049290920292909201805460ff81168352610100900467ffffffffffffffff166020808401919091526001820154938301939093526002810154606083015260030154608082015291508490849081106110c1576110c16155d0565b6020020151606683601481106110d9576110d96155d0565b825160049190910291909101805460208085015167ffffffffffffffff166101000268ffffffffffffffffff1990921660ff909416939093171781556040830151600182015560608301516002820155608090920151600390920191909155819085908590811061114c5761114c6155d0565b602002015260b85473ffffffffffffffffffffffffffffffffffffffff16631acbaa6260668460148110611182576111826155d0565b60040201600201546040518263ffffffff1660e01b81526004016111a891815260200190565b602060405180830381865afa1580156111c5573d6000803e3d6000fd5b505050506040513d601f19601f820116820180604052508101906111e99190615912565b606683601481106111fc576111fc6155d0565b6004020160030181905550505b806112138161562e565b915050610d56565b50806112268161562e565b915050610d4a565b505050505050565b60b754600090156112495760b75461124b565b835b9050801580159061125b57508215155b6112a75760405162461bcd60e51b815260206004820152601c60248201527f77726f6e6720726f6f745f68617368206f722066696c655f6861736800000000604482015260640161030c565b601460005b600581101561122e5760005b6014811015611312578482600581106112d3576112d36155d0565b6060020135600182601481106112eb576112eb6155d0565b60040201600301540361130057809250611312565b8061130a8161562e565b9150506112b8565b506014821480611365575060b9600060018460148110611334576113346155d0565b6004020160030154815260208082019290925260409081016000908120868252909252902054600160ff9091161515145b61146e576114116001836014811061137f5761137f6155d0565b6004020160020154858360058110611399576113996155d0565b60600201602001358684600581106113b3576113b36155d0565b604080517f706e0bc5000000000000000000000000000000000000000000000000000000006020820152602481018a9052604481018c9052606092909202929092019091013590606401604051602081830303815290604052611782565b1561146e57600160b960006001856014811061142f5761142f6155d0565b60040201600301548152602001908152602001600020600085815260200190815260200160002060006101000a81548160ff0219169083151502179055505b806114788161562e565b9150506112ac565b611488615007565b6040805161014081019091526052600a6000835b82821015610bd857838260020201604051806040016040529081600082015481526020016001820154815250508152602001906001019061149c565b6114e06116a6565b73ffffffffffffffffffffffffffffffffffffffff81166115695760405162461bcd60e51b815260206004820152602660248201527f4f776e61626c653a206e6577206f776e657220697320746865207a65726f206160448201527f6464726573730000000000000000000000000000000000000000000000000000606482015260840161030c565b6115728161170d565b50565b600080805b601481101561161a5760b960006001836014811061159a5761159a6155d0565b60040201600301548152602001908152602001600020600085815260200190815260200160002060009054906101000a900460ff161561160857600181601481106115e7576115e76155d0565b600402015461160590610100900467ffffffffffffffff1683615648565b91505b806116128161562e565b91505061157a565b506051546116339067ffffffffffffffff166002615674565b67ffffffffffffffff16611648826003615674565b67ffffffffffffffff161161169f5760405162461bcd60e51b815260206004820152601160248201527f6e6f7420656e6f7567687420766f746573000000000000000000000000000000604482015260640161030c565b5090919050565b60005473ffffffffffffffffffffffffffffffffffffffff1633146104cc5760405162461bcd60e51b815260206004820181905260248201527f4f776e61626c653a2063616c6c6572206973206e6f7420746865206f776e6572604482015260640161030c565b6000805473ffffffffffffffffffffffffffffffffffffffff8381167fffffffffffffffffffffffff0000000000000000000000000000000000000000831681178455604051919092169283917f8be0079c531659141344cd1fd0a4f28419497f9722a3daafe3b4186f6b6457e09190a35050565b600080600083516020806117969190615988565b60ff166117a391906159ad565b67ffffffffffffffff8111156117bb576117bb61516b565b6040519080825280601f01601f1916602001820160405280156117e5576020820181803683370190505b50905060005b602081101561185d57868160208110611806576118066155d0565b1a60f81b82828151811061181c5761181c6155d0565b60200101907effffffffffffffffffffffffffffffffffffffffffffffffffffffffffffff1916908160001a905350806118558161562e565b9150506117eb565b5060005b60208110156118dd5787816020811061187c5761187c6155d0565b1a60f81b8261188c8360206159ad565b8151811061189c5761189c6155d0565b60200101907effffffffffffffffffffffffffffffffffffffffffffffffffffffffffffff1916908160001a905350806118d58161562e565b915050611861565b5060005b8451811015611980578481815181106118fc576118fc6155d0565b01602001517fff00000000000000000000000000000000000000000000000000000000000000168261192f8360406159ad565b8151811061193f5761193f6155d0565b60200101907effffffffffffffffffffffffffffffffffffffffffffffffffffffffffffff1916908160001a905350806119788161562e565b9150506118e1565b50600061198c826132ea565b9050600060c0826003602002015167ffffffffffffffff16901b6080836002602002015167ffffffffffffffff16901b6040846001602002015167ffffffffffffffff16901b846000602002015167ffffffffffffffff1617171790506008817fff00ff00ff00ff00ff00ff00ff00ff00ff00ff00ff00ff00ff00ff00ff00ff0016901c6008827eff00ff00ff00ff00ff00ff00ff00ff00ff00ff00ff00ff00ff00ff00ff00ff16901b1790506010817fffff0000ffff0000ffff0000ffff0000ffff0000ffff0000ffff0000ffff000016901c6010827dffff0000ffff0000ffff0000ffff0000ffff0000ffff0000ffff0000ffff16901b1790506020817fffffffff00000000ffffffff00000000ffffffff00000000ffffffff0000000016901c6020827bffffffff00000000ffffffff00000000ffffffff00000000ffffffff16901b179050600060c083600760088110611aec57611aec6155d0565b602002015167ffffffffffffffff16901b6080846006602002015167ffffffffffffffff16901b6040856005602002015167ffffffffffffffff16901b856004602002015167ffffffffffffffff1617171790506008817fff00ff00ff00ff00ff00ff00ff00ff00ff00ff00ff00ff00ff00ff00ff00ff0016901c6008827eff00ff00ff00ff00ff00ff00ff00ff00ff00ff00ff00ff00ff00ff00ff00ff16901b1790506010817fffff0000ffff0000ffff0000ffff0000ffff0000ffff0000ffff0000ffff000016901c6010827dffff0000ffff0000ffff0000ffff0000ffff0000ffff0000ffff0000ffff16901b1790506020817fffffffff00000000ffffffff00000000ffffffff00000000ffffffff0000000016901c6020827bffffffff00000000ffffffff00000000ffffffff00000000ffffffff16901b1790507f1000000000000000000000000000000014def9dea2f79cd65812631a5cf5d3ed80611c5a57611c5a6159c5565b7f1000000000000000000000000000000014def9dea2f79cd65812631a5cf5d3ed7f0ffffffffffffffffffffffffffffffec6ef5bf4737dcf70d6ec31748d98951d8309830877ffffffff000000000000000000000000ffffffff000000007dff000000ff000000ff000000ff000000ff000000ff000000ff000000ff0060088d811b9182167cff000000ff000000ff000000ff000000ff000000ff000000ff000000ff9e90911c9d8e1617601090811b7fff000000ff000000ff000000ff000000ff000000ff000000ff000000ff0000009092167eff000000ff000000ff000000ff000000ff000000ff000000ff000000ff0000909e169d909d17909c1c9b909b17602081811b9c8d1673ffffffff000000000000000000000000ffffffff9290911c91821617604090811b7fffffffff000000000000000000000000ffffffff000000000000000000000000909d167bffffffff000000000000000000000000ffffffff000000000000000090921691909117901c9a909a17608081811b91901c17999450507f7fffffffffffffffffffffffffffffffffffffffffffffffffffffffffffffff89169250600091508190506013600160ff1b03838409905060006013600160ff1b037f7fffffffffffffffffffffffffffffffffffffffffffffffffffffffffffffec8308905060006013600160ff1b037f52036cee2b6ffe738cc740797779e89800700a4d4141d8ab75eb4dca135978a38409611e829060016159ad565b905060006013600160ff1b038284099050611e9c81613d62565b5094506013600160ff1b0385860994506013600160ff1b0380826013600160ff1b0388890909840994506013600160ff1b03826013600160ff1b03878809099050828114611f3957611ef5836013600160ff1b036159f4565b8114611f0b5760009750505050505050506132e2565b6013600160ff1b037f2b8324804fc1df0b2b4d00993dfbd7a72f431806ad2fe478c4ee1b274a0ea0b0860994505b5050505060ff88901c6001821614611f5f57611f5c816013600160ff1b036159f4565b90505b77ffffffff000000000000000000000000ffffffff000000007dff000000ff000000ff000000ff000000ff000000ff000000ff000000ff00600888811b9182167cff000000ff000000ff000000ff000000ff000000ff000000ff000000ff9990911c98891617601090811b7fff000000ff000000ff000000ff000000ff000000ff000000ff000000ff0000009092167eff000000ff000000ff000000ff000000ff000000ff000000ff000000ff00009099169890981790971c96909617602081811b97881673ffffffff000000000000000000000000ffffffff9290911c91821617604090811b7fffffffff000000000000000000000000ffffffff0000000000000000000000009098167bffffffff000000000000000000000000ffffffff000000000000000090921691909117901c95909517608081811b91901c17947f1000000000000000000000000000000014def9dea2f79cd65812631a5cf5d3ed86106120d157600093505050506132e2565b6000806000806120df615041565b60006120eb87896159ad565b90506000876121018a6013600160ff1b036159ad565b61210b91906159f4565b905060006013600160ff1b037f2406d9dc56dffce7198e80f2eef3d13000e0149a8283b156ebd69b9426b2f1596013600160ff1b038c8c09099050898960018060006013600160ff1b03828509905060006013600160ff1b03848709905060006013600160ff1b03848609905060006013600160ff1b03848509905060006013600160ff1b03848509905060006013600160ff1b03858709905060006013600160ff1b0385860990506121be82806159ad565b9950836121d2846013600160ff1b036159ad565b6121dc91906159f4565b98506121e883856159ad565b9a506013600160ff1b036121fe8a6025196159f4565b61220883806159ad565b0897505050505050505060006013600160ff1b0380612229576122296159c5565b828509905060006013600160ff1b03848709905060006013600160ff1b03848609905060006013600160ff1b03848509905060006013600160ff1b03848509905060006013600160ff1b03858709905060006013600160ff1b03858609905061229282806159ad565b9950836122a6846013600160ff1b036159ad565b6122b091906159f4565b98506122bc83856159ad565b9a506013600160ff1b036122d28a6025196159f4565b6122dc83806159ad565b0897505050505050505060006013600160ff1b03806122fd576122fd6159c5565b828509905060006013600160ff1b03848709905060006013600160ff1b03848609905060006013600160ff1b03848509905060006013600160ff1b03848509905060006013600160ff1b03858709905060006013600160ff1b03858609905061236682806159ad565b99508361237a846013600160ff1b036159ad565b61238491906159f4565b985061239083856159ad565b9a506013600160ff1b036123a68a6025196159f4565b6123b083806159ad565b089750600196508e955060009450505050505b6000808080806013600160ff1b03898c09905060006013600160ff1b038b8e09905060006013600160ff1b038b8d0990506013600160ff1b038e8e09945061240b83836159ad565b96508261241f836013600160ff1b036159ad565b61242991906159f4565b955061243581806159ad565b9350505050838660016002811061244e5761244e6155d0565b6020020151518660088110612465576124656155d0565b602002015282866001602002015160016020020151866008811061248b5761248b6155d0565b60200201526013600160ff1b037f2406d9dc56dffce7198e80f2eef3d13000e0149a8283b156ebd69b9426b2f159830960208701516040015186600881106124d5576124d56155d0565b6020020152855151819086600881106124f0576124f06155d0565b6020020152868660006020020151600160200201518660088110612516576125166155d0565b60200201526013600160ff1b0381880996508460070361253957505050506125d4565b60006013600160ff1b038f8609905060006013600160ff1b038f8609905060006013600160ff1b038f8609905081612578846013600160ff1b036159ad565b61258291906159f4565b9c506013600160ff1b038185089b5061259b82846159ad565b9d506013600160ff1b036125b6826013600160ff1b036159f4565b85089a505050505050505080806125cc9061562e565b9150506123c3565b5060006125e083613d62565b90935090506013600160ff1b0383840992506013600160ff1b0383840992506013600160ff1b0383840992506013600160ff1b0383840992506013600160ff1b0383840992506013600160ff1b03818409925060075b8251602001516000906013600160ff1b03908360088110612659576126596155d0565b602002015186096020850151519091506013600160ff1b039082908460088110612685576126856155d0565b60200201510960208501515183600881106126a2576126a26155d0565b60200201526013600160ff1b038185600160200201516001602002015184600881106126d0576126d06155d0565b602002015109602080860151015183600881106126ef576126ef6155d0565b60200201526013600160ff1b0381856001602002015160026020020151846008811061271d5761271d6155d0565b602002015109602085015160400151836008811061273d5761273d6155d0565b60200201526000829003612751575061278b565b8351516013600160ff1b0390836008811061276e5761276e6155d0565b60200201518609945050808061278390615a0b565b915050612636565b5060405180606001604052806040518061010001604052807f43e7ce9d19ea5d329385a44c321ea16167c996e37dc6070c97de49e37ac61db981526020017f40cff34425d8ec30a3bb74ba58cd5854fa1e38186ad0d31ebc8ae251ceb2c97e81526020017f459bd27046e8dd45aea7008db87a5a8f7906779253d64523589518599fdfbf4b81526020017f69fdd1e28c23cc3894d0c8ff90e76f6d5b6e4c2e620136d04dd83c4a51581ab981526020017f54dceb3413ce5cfa11196dfc960b6edaf4b380c6d4d2378419cc0279ba49c5f381526020017f4e24184dd71a3d77eef3729f7f8cf7c17224cf40aa7b9548b9942f3c5084ceed81526020017f5a0e5aab20262674ae1175761cbf5e889b52a55fd7ac5027c228cebdc8d2360a81526020017f26239334073e9b38c62859556d451c3dcc8d30e84b361174f488eadde2cf17d981525081526020016040518061010001604052807f227e97c94c7c0933d2e0c21a3447c504fe9ccf82e8a05f59ce881c82eba0489f81526020017f226a3e0ecc4afec6fd0d288413014a9dbddecf06c1a2f0bb702ba77c613d820981526020017f34d7efc851d45c5e71efeb0f235b794691de6228877569b3a8d52bf058b8a4a081526020017f3c1f5fb3ca7166fce1471c9b752b6d28c56301ad7b65e8451b2c8c5526726e1281526020017f6102416cf02f02ff5be75275f55f28db89b2a9d2456b860ce22fc0e5031f7cc581526020017f40adf677f1bfdae057f0fd179c12617918ddaa2891a6530fb1a4294fa866549081526020017f61936f3c415609046187b8baa978cbc9b47893363ae5a3cc7d909f3635ae7f4881526020017f562a9662b6ec47f9e979d473c02b51e4423368238c58ddb52f0e5c6a180e641081525081526020016040518061010001604052807f3788bdb44f8632d42d0dbee5eea1acc6136cf411e655624f55e48902c3bd553481526020017f6190cf2c2a7b5ad769d594a82844f23b4167fa7c8ac30e51aa6cfbebdcd4b94581526020017f65f7787096be9204123a71f3ac88a87be1513217737d6a1e2f3a13a43d7e3a9a81526020017f023af32dbfa67975536479a7a7ce74a02142147fac0480187f1f13349cda1f2d81526020017f64fc44b7fc6841bddb0ced8b8b0fe6759137ef87ee96651215fc1dbcd25c64dc81526020017f1434aa3748b701d5b69df3d7d340c1fe3f6b9c1efc617484caadb47e382f447581526020017f457a6da8c962ef35f2b217423e5844e9d23534527e8ea4290d24e3ddf21720c681526020017f63b9540ceb60ccb51e4d989d956e053cf2511837efb79089d2ff40284202c53d81525081525082600060028110612b6557612b656155d0565b602002018190525050505050505050505050600060038c60001c901b90506000897f80000000000000000000000000000000a6f7cef517bce6b2c09318d2e7ae9f60612bb191906159ad565b905060006001808060fc5b6008811b87811615612d36576000808080806013600160ff1b03888c09905060006013600160ff1b038b8b099050612bf482826159ad565b955081612c08826013600160ff1b036159ad565b612c1291906159f4565b94506013600160ff1b03898c0993506013600160ff1b038a8d09925050506000868d901c6007169050866007901b198d169c5060008e905060006013600160ff1b0380612c6157612c616159c5565b8251602001518460088110612c7857612c786155d0565b602002015187098251519091506000906013600160ff1b03908560088110612ca257612ca26155d0565b602002015189098351604001519091506000906013600160ff1b03908660088110612ccf57612ccf6155d0565b60200201518709905082612cea836013600160ff1b036159ad565b612cf491906159f4565b9e50612d0081886159ad565b9d50612d0c83836159ad565b9c5080612d20886013600160ff1b036159ad565b612d2a91906159f4565b9b505050505050505050505b86811615612ea7576000808080806013600160ff1b03888c09905060006013600160ff1b038b8b099050612d6a82826159ad565b955081612d7e826013600160ff1b036159ad565b612d8891906159f4565b94506013600160ff1b03898c0993506013600160ff1b038a8d096007808a1b198f169e91945090891c1691508e905060006013600160ff1b038260016020020151600060200201518460088110612de157612de16155d0565b6020020151870960208084015101519091506000906013600160ff1b03908560088110612e1057612e106155d0565b602002015189096020840151604001519091506000906013600160ff1b03908660088110612e4057612e406155d0565b60200201518709905082612e5b836013600160ff1b036159ad565b612e6591906159f4565b9e5080612e79886013600160ff1b036159ad565b612e8391906159f4565b9d50612e8f83836159ad565b9c50612e9b81886159ad565b9b505050505050505050505b81600003613011576000808080806013600160ff1b03888c09905060006013600160ff1b038b8b099050612edb82826159ad565b955081612eef826013600160ff1b036159ad565b612ef991906159f4565b94506013600160ff1b03898c0993506013600160ff1b038a8d099250505060078b168d60006013600160ff1b038260016020020151600060200201518460088110612f4657612f466155d0565b6020020151870960208084015101519091506000906013600160ff1b03908560088110612f7557612f756155d0565b602002015189096020840151604001519091506000906013600160ff1b03908660088110612fa557612fa56155d0565b60200201518709905082612fc0836013600160ff1b036159ad565b612fca91906159f4565b9e5080612fde886013600160ff1b036159ad565b612fe891906159f4565b9d50612ff483836159ad565b9c5061300081886159ad565b9b50505050505050505050506130ec565b60006013600160ff1b03848809905060006013600160ff1b03878709905060006013600160ff1b03868909905060006013600160ff1b03848509905060006013600160ff1b03848509905060006013600160ff1b03858709905060006013600160ff1b03858609905061308482806159ad565b9c5083613098846013600160ff1b036159ad565b6130a291906159f4565b9b506130ae83856159ad565b9a506013600160ff1b036130c48d6025196159f4565b6130ce83806159ad565b089950505050505050505080806130e490615a0b565b915050612bbc565b5092995090975095509350600091508190506131116013600160ff1b03858809613d62565b915091506013600160ff1b038061312a5761312a6159c5565b82830991506013600160ff1b0382830991506013600160ff1b0382830991506013600160ff1b0382830991506013600160ff1b0382830991506013600160ff1b0381830991506013600160ff1b0380858409880996506013600160ff1b0380878409860977ffffffff000000000000000000000000ffffffff000000007dff000000ff000000ff000000ff000000ff000000ff000000ff000000ff0060ff9990991b909117600881811b998a167cff000000ff000000ff000000ff000000ff000000ff000000ff000000ff9290911c91821617601090811b7fff000000ff000000ff000000ff000000ff000000ff000000ff000000ff000000909a167eff000000ff000000ff000000ff000000ff000000ff000000ff000000ff000090921691909117901c97909717602081811b98891673ffffffff000000000000000000000000ffffffff9290911c91821617604090811b7fffffffff000000000000000000000000ffffffff0000000000000000000000009099167bffffffff000000000000000000000000ffffffff000000000000000090921691909117901c96909617608081811b91901c178d1499505050505050505050505b949350505050565b6132f261506e565b6040805161010081018252676a09e667f3bcc908815267bb67ae8584caa73b6020820152673c6ef372fe94f82b9181019190915267a54ff53a5f1d36f1606082015267510e527fade682d16080820152679b05688c2b3e6c1f60a0820152671f83d9abfb41bd6b60c0820152675be0cd19137e217960e082015260008061337761508d565b6040805161010081018252600080825260208201819052918101829052606081018290526080810182905260a0810182905260c0810182905260e081019190915260408051610a008101825267428a2f98d728ae228152677137449123ef65cd602082015267b5c0fbcfec4d3b2f9181019190915267e9b5dba58189dbbc6060820152673956c25bf348b53860808201526759f111f1b605d01960a082015267923f82a4af194f9b60c082015267ab1c5ed5da6d811860e082015267d807aa98a30302426101008201526712835b0145706fbe61012082015267243185be4ee4b28c61014082015267550c7dc3d5ffb4e26101608201526772be5d74f27b896f6101808201526780deb1fe3b1696b16101a0820152679bdc06a725c712356101c082015267c19bf174cf6926946101e082015267e49b69c19ef14ad261020082015267efbe4786384f25e3610220820152670fc19dc68b8cd5b561024082015267240ca1cc77ac9c65610260820152672de92c6f592b0275610280820152674a7484aa6ea6e4836102a0820152675cb0a9dcbd41fbd46102c08201526776f988da831153b56102e082015267983e5152ee66dfab61030082015267a831c66d2db4321061032082015267b00327c898fb213f61034082015267bf597fc7beef0ee461036082015267c6e00bf33da88fc261038082015267d5a79147930aa7256103a08201526706ca6351e003826f6103c082015267142929670a0e6e706103e08201526727b70a8546d22ffc610400820152672e1b21385c26c926610420820152674d2c6dfc5ac42aed6104408201526753380d139d95b3df61046082015267650a73548baf63de61048082015267766a0abb3c77b2a86104a08201526781c2c92e47edaee66104c08201526792722c851482353b6104e082015267a2bfe8a14cf1036461050082015267a81a664bbc42300161052082015267c24b8b70d0f8979161054082015267c76c51a30654be3061056082015267d192e819d6ef521861058082015267d69906245565a9106105a082015267f40e35855771202a6105c082015267106aa07032bbd1b86105e08201526719a4c116b8d2d0c8610600820152671e376c085141ab53610620820152672748774cdf8eeb996106408201526734b0bcb5e19b48a861066082015267391c0cb3c5c95a63610680820152674ed8aa4ae3418acb6106a0820152675b9cca4f7763e3736106c082015267682e6ff3d6b2b8a36106e082015267748f82ee5defb2fc6107008201526778a5636f43172f606107208201526784c87814a1f0ab72610740820152678cc702081a6439ec6107608201526790befffa23631e2861078082015267a4506cebde82bde96107a082015267bef9a3f7b2c679156107c082015267c67178f2e372532b6107e082015267ca273eceea26619c61080082015267d186b8c721c0c20761082082015267eada7dd6cde0eb1e61084082015267f57d4f7fee6ed1786108608201526706f067aa72176fba610880820152670a637dc5a2c898a66108a082015267113f9804bef90dae6108c0820152671b710b35131c471b6108e08201526728db77f523047d846109008201526732caab7b40c72493610920820152673c9ebe0a15c9bebc61094082015267431d67c49c100d4c610960820152674cc5d4becb3e42b661098082015267597f299cfc657e2a6109a0820152675fcb6fab3ad6faec6109c0820152676c44198c4a4758176109e0820152600061387589614a91565b905060005b608082516138889190615a22565b811015613d5457600061389b8383614d06565b895167ffffffffffffffff90811687526020808c01518216908801526040808c01518216908801526060808c01518216908801526080808c015182169088015260a0808c015182169088015260c0808c015182169088015260e0808c015190911690870152905060005b6050811015613bfa57601081101561395957818160108110613929576139296155d0565b6020020151878260508110613940576139406155d0565b67ffffffffffffffff9092166020929092020152613a5a565b866139656010836159f4565b60508110613975576139756155d0565b602002015167ffffffffffffffff166139ad88613993600f856159f4565b605081106139a3576139a36155d0565b6020020151614d97565b67ffffffffffffffff16886139c36007856159f4565b605081106139d3576139d36155d0565b602002015167ffffffffffffffff16613a0b8a6139f16002876159f4565b60508110613a0157613a016155d0565b6020020151614dc6565b67ffffffffffffffff16613a1f91906159ad565b613a2991906159ad565b613a3391906159ad565b878260508110613a4557613a456155d0565b67ffffffffffffffff90921660209290920201525b868160508110613a6c57613a6c6155d0565b602002015167ffffffffffffffff16858260508110613a8d57613a8d6155d0565b602002015167ffffffffffffffff16613ac088608001518960a001518a60c0015167ffffffffffffffff83181691161890565b67ffffffffffffffff16613ad78960800151614ded565b67ffffffffffffffff168960e0015167ffffffffffffffff16613afa91906159ad565b613b0491906159ad565b613b0e91906159ad565b613b1891906159ad565b865160208801516040890151929b508281169282169116181867ffffffffffffffff16613b488760000151614e1a565b67ffffffffffffffff16613b5c91906159ad565b60c08701805167ffffffffffffffff90811660e08a015260a0890180518216909252608089015181169091526060880151919950613b9e918b821691166159ad565b67ffffffffffffffff9081166080880152604087018051821660608901526020880180518316909152875182169052613bdc90898116908b166159ad565b67ffffffffffffffff16865280613bf28161562e565b915050613905565b5084518951613c169167ffffffffffffffff90811691166159ad565b67ffffffffffffffff9081168a52602086810151908b0151613c3c9291821691166159ad565b67ffffffffffffffff90811660208b0152604086810151908b0151613c659291821691166159ad565b67ffffffffffffffff90811660408b0152606086810151908b0151613c8e9291821691166159ad565b67ffffffffffffffff90811660608b0152608086810151908b0151613cb79291821691166159ad565b67ffffffffffffffff90811660808b015260a086810151908b0151613ce09291821691166159ad565b67ffffffffffffffff90811660a08b015260c086810151908b0151613d099291821691166159ad565b67ffffffffffffffff90811660c08b015260e086810151908b0151613d329291821691166159ad565b67ffffffffffffffff1660e08a01525080613d4c8161562e565b91505061387a565b509598975050505050505050565b6000806013600160ff1b0383840990506013600160ff1b0381820991506013600160ff1b03836013600160ff1b038485090991506013600160ff1b0381830990506013600160ff1b03826013600160ff1b0383840909915060006013600160ff1b0383840990506013600160ff1b0381820990506013600160ff1b0381820990506013600160ff1b0381820990506013600160ff1b0381820990506013600160ff1b0381840992506013600160ff1b0383840990506013600160ff1b0381820990506013600160ff1b0381820990506013600160ff1b0381820990506013600160ff1b0381820990506013600160ff1b0381820990506013600160ff1b0381820990506013600160ff1b0381820990506013600160ff1b0381820990506013600160ff1b0381820990506013600160ff1b03818409905060006013600160ff1b0382830990506013600160ff1b0381820990506013600160ff1b0381820990506013600160ff1b0381820990506013600160ff1b0381820990506013600160ff1b0381820990506013600160ff1b0381820990506013600160ff1b0381820990506013600160ff1b0381820990506013600160ff1b0381820990506013600160ff1b0381820990506013600160ff1b0381820990506013600160ff1b0381820990506013600160ff1b0381820990506013600160ff1b0381820990506013600160ff1b0381820990506013600160ff1b0381820990506013600160ff1b0381820990506013600160ff1b0381820990506013600160ff1b0381820990506013600160ff1b0381830991506013600160ff1b0382830991506013600160ff1b0382830991506013600160ff1b0382830991506013600160ff1b0382830991506013600160ff1b0382830991506013600160ff1b0382830991506013600160ff1b0382830991506013600160ff1b0382830991506013600160ff1b0382830991506013600160ff1b0382830991506013600160ff1b0382850993506013600160ff1b0384850991506013600160ff1b0382830991506013600160ff1b0382830991506013600160ff1b0382830991506013600160ff1b0382830991506013600160ff1b0382830991506013600160ff1b0382830991506013600160ff1b0382830991506013600160ff1b0382830991506013600160ff1b0382830991506013600160ff1b0382830991506013600160ff1b0382830991506013600160ff1b0382830991506013600160ff1b0382830991506013600160ff1b0382830991506013600160ff1b0382830991506013600160ff1b0382830991506013600160ff1b0382830991506013600160ff1b0382830991506013600160ff1b0382830991506013600160ff1b0382830991506013600160ff1b0382830991506013600160ff1b0382830991506013600160ff1b0382830991506013600160ff1b0382830991506013600160ff1b0382830991506013600160ff1b0382830991506013600160ff1b0382830991506013600160ff1b0382830991506013600160ff1b0382830991506013600160ff1b0382830991506013600160ff1b0382830991506013600160ff1b0382830991506013600160ff1b0382830991506013600160ff1b0382830991506013600160ff1b0382830991506013600160ff1b0382830991506013600160ff1b0382830991506013600160ff1b0382830991506013600160ff1b0382830991506013600160ff1b0382830991506013600160ff1b0382830991506013600160ff1b0382830991506013600160ff1b0382830991506013600160ff1b0382830991506013600160ff1b0382830991506013600160ff1b0382830991506013600160ff1b0382830991506013600160ff1b0382830991506013600160ff1b0382830991506013600160ff1b0382850991506013600160ff1b0382830990506013600160ff1b0381820990506013600160ff1b0381820990506013600160ff1b0381820990506013600160ff1b0381820990506013600160ff1b0381820990506013600160ff1b0381820990506013600160ff1b0381820990506013600160ff1b0381820990506013600160ff1b0381820990506013600160ff1b0381820990506013600160ff1b0381820990506013600160ff1b0381820990506013600160ff1b0381820990506013600160ff1b0381820990506013600160ff1b0381820990506013600160ff1b0381820990506013600160ff1b0381820990506013600160ff1b0381820990506013600160ff1b0381820990506013600160ff1b0381820990506013600160ff1b0381820990506013600160ff1b0381820990506013600160ff1b0381820990506013600160ff1b0381820990506013600160ff1b0381820990506013600160ff1b0381820990506013600160ff1b0381820990506013600160ff1b0381820990506013600160ff1b0381820990506013600160ff1b0381820990506013600160ff1b0381820990506013600160ff1b0381820990506013600160ff1b0381820990506013600160ff1b0381820990506013600160ff1b0381820990506013600160ff1b0381820990506013600160ff1b0381820990506013600160ff1b0381820990506013600160ff1b0381820990506013600160ff1b0381820990506013600160ff1b0381820990506013600160ff1b0381820990506013600160ff1b0381820990506013600160ff1b0381820990506013600160ff1b0381820990506013600160ff1b0381820990506013600160ff1b0381820990506013600160ff1b0381820990506013600160ff1b0381820990506013600160ff1b0381820990506013600160ff1b0381820990506013600160ff1b0381820990506013600160ff1b0381820990506013600160ff1b0381820990506013600160ff1b0381820990506013600160ff1b0381820990506013600160ff1b0381820990506013600160ff1b0381820990506013600160ff1b0381820990506013600160ff1b0381820990506013600160ff1b0381820990506013600160ff1b0381820990506013600160ff1b0381820990506013600160ff1b0381820990506013600160ff1b0381820990506013600160ff1b0381820990506013600160ff1b0381820990506013600160ff1b0381820990506013600160ff1b0381820990506013600160ff1b0381820990506013600160ff1b0381820990506013600160ff1b0381820990506013600160ff1b0381820990506013600160ff1b0381820990506013600160ff1b0381820990506013600160ff1b0381820990506013600160ff1b0381820990506013600160ff1b0381820990506013600160ff1b0381820990506013600160ff1b0381820990506013600160ff1b0381820990506013600160ff1b0381820990506013600160ff1b0381820990506013600160ff1b0381820990506013600160ff1b0381820990506013600160ff1b0381820990506013600160ff1b0381820990506013600160ff1b0381820990506013600160ff1b0381820990506013600160ff1b0381820990506013600160ff1b0381820990506013600160ff1b0381820990506013600160ff1b0381820990506013600160ff1b0381820990506013600160ff1b0381820990506013600160ff1b0381820990506013600160ff1b0381820990506013600160ff1b0381820990506013600160ff1b0381820990506013600160ff1b0381830991506013600160ff1b0382830991506013600160ff1b0382830991506013600160ff1b0382830991506013600160ff1b0382830991506013600160ff1b0382830991506013600160ff1b0382830991506013600160ff1b0382830991506013600160ff1b0382830991506013600160ff1b0382830991506013600160ff1b0382830991506013600160ff1b0382830991506013600160ff1b0382830991506013600160ff1b0382830991506013600160ff1b0382830991506013600160ff1b0382830991506013600160ff1b0382830991506013600160ff1b0382830991506013600160ff1b0382830991506013600160ff1b0382830991506013600160ff1b0382830991506013600160ff1b0382830991506013600160ff1b0382830991506013600160ff1b0382830991506013600160ff1b0382830991506013600160ff1b0382830991506013600160ff1b0382830991506013600160ff1b0382830991506013600160ff1b0382830991506013600160ff1b0382830991506013600160ff1b0382830991506013600160ff1b0382830991506013600160ff1b0382830991506013600160ff1b0382830991506013600160ff1b0382830991506013600160ff1b0382830991506013600160ff1b0382830991506013600160ff1b0382830991506013600160ff1b0382830991506013600160ff1b0382830991506013600160ff1b0382830991506013600160ff1b0382830991506013600160ff1b0382830991506013600160ff1b0382830991506013600160ff1b0382830991506013600160ff1b0382830991506013600160ff1b0382830991506013600160ff1b0382830991506013600160ff1b0382830991506013600160ff1b0382830991506013600160ff1b0382830991506013600160ff1b0382850993505050915091565b6060600060808351614aa39190615a36565b614aae9060806159f4565b9050607060808451614ac09190615a36565b10614ae25760808351614ad39190615a36565b614adf906101006159f4565b90505b6000818451614af191906159ad565b67ffffffffffffffff811115614b0957614b0961516b565b6040519080825280601f01601f191660200182016040528015614b33576020820181803683370190505b50905060005b8451811015614bb257848181518110614b5457614b546155d0565b602001015160f81c60f81b828281518110614b7157614b716155d0565b60200101907effffffffffffffffffffffffffffffffffffffffffffffffffffffffffffff1916908160001a90535080614baa8161562e565b915050614b39565b50608060f81b81855181518110614bcb57614bcb6155d0565b60200101907effffffffffffffffffffffffffffffffffffffffffffffffffffffffffffff1916908160001a905350600084516008614c0a9190615a4a565b60408051608083901b7fffffffffffffffffffffffffffffffff0000000000000000000000000000000016602082015281516010818303018152603090910190915290915060005b8151811015614cfb57818160018451614c6b91906159f4565b614c7591906159f4565b81518110614c8557614c856155d0565b602001015160f81c60f81b848260018751614ca091906159f4565b614caa91906159f4565b81518110614cba57614cba6155d0565b60200101907effffffffffffffffffffffffffffffffffffffffffffffffffffffffffffff1916908160001a90535080614cf38161562e565b915050614c52565b509195945050505050565b614d0e6150ac565b614d166150ac565b60005b60108160ff161015614d8f57614d5185614d34836008615a69565b60ff16614d42876080615a4a565b614d4c91906159ad565b614e3d565b60c01c828260ff1660108110614d6957614d696155d0565b67ffffffffffffffff909216602092909202015280614d8781615a92565b915050614d19565b509392505050565b60006701ffffffffffffff600783901c16614db3836008614eb2565b614dbe846001614eb2565b181892915050565b60006703ffffffffffffff600683901c16614de283603d614eb2565b614dbe846013614eb2565b600080614dfb836029614eb2565b614e06846012614eb2565b614e1185600e614eb2565b18189392505050565b6000614e27826027614eb2565b614e32836022614eb2565b614dbe84601c614eb2565b60008060005b6008811015614d8f57614e57816008615a4a565b85614e6283876159ad565b81518110614e7257614e726155d0565b01602001517fff0000000000000000000000000000000000000000000000000000000000000016901c919091179080614eaa8161562e565b915050614e43565b600067ffffffffffffffff8316821c614ecc8360406159f4565b8467ffffffffffffffff16901b614ee39190615648565b9392505050565b605083019183908215614f8b579160040282015b82811115614f8b578254825460ff9091167fffffffffffffffffffffffffffffffffffffffffffffffffffffffffffffff00821681178455845468ffffffffffffffffff19909216176101009182900467ffffffffffffffff1690910217825560018084015490830155600280840154908301556003808401549083015560049283019290910190614efe565b50614f979291506150cb565b5090565b506115729060508101906150cb565b6040518061028001604052806014905b6040805160a081018252600080825260208083018290529282018190526060820181905260808201528252600019909201910181614fba5790505090565b50611572906014810190615101565b604051806101400160405280600a905b60408051808201909152600080825260208201528152602001906001900390816150175790505090565b60405180604001604052806002905b61505861511c565b8152602001906001900390816150505790505090565b6040518061010001604052806008906020820280368337509192915050565b60405180610a0001604052806050906020820280368337509192915050565b6040518061020001604052806010906020820280368337509192915050565b5b80821115614f9757805468ffffffffffffffffff191681556000600182018190556002820181905560038201556004016150cc565b5b80821115614f975760008082556001820155600201615102565b60405180606001604052806003905b61513361506e565b81526020019060019003908161512b5790505090565b6000806040838503121561515c57600080fd5b50508035926020909101359150565b7f4e487b7100000000000000000000000000000000000000000000000000000000600052604160045260246000fd5b604051610100810167ffffffffffffffff811182821017156151be576151be61516b565b60405290565b60405160a0810167ffffffffffffffff811182821017156151be576151be61516b565b6040516080810167ffffffffffffffff811182821017156151be576151be61516b565b604051610c80810167ffffffffffffffff811182821017156151be576151be61516b565b604051610400810167ffffffffffffffff811182821017156151be576151be61516b565b8035801515811461526257600080fd5b919050565b600082601f83011261527857600080fd5b6152806151e7565b80608084018581111561529257600080fd5b845b818110156152ac578035845260209384019301615294565b509095945050505050565b60ff8116811461157257600080fd5b8035615262816152b7565b803563ffffffff8116811461526257600080fd5b600082601f8301126152f657600080fd5b6152fe6151e7565b80608084018581111561531057600080fd5b845b818110156152ac57803561ffff8116811461532d5760008081fd5b845260209384019301615312565b60008060008061d4c080868803121561535357600080fd5b853567ffffffffffffffff8082111561536b57600080fd5b818801915088601f83011261537f57600080fd5b81358181111561538e57600080fd5b6020915089828285010111156153a357600080fd5b82820197509550878101359450605f880189136153bf57600080fd5b6153c761520a565b92880192915081898411156153db57600080fd5b604089015b8481101561549257610220818c0312156153fa5760008081fd5b61540261519a565b61540b82615252565b81526154198c858401615267565b8482015260a080830135604083015260c06154358185016152c6565b606084015260e06154488f828701615267565b608085015261545a61016086016152d1565b8385015261546c8f61018087016152e5565b8285015261547d61020086016152c6565b908401525050845292820192610220016153e0565b50969995985093965050505050565b610c808101818360005b6014811015615504578151805160ff16845260208082015167ffffffffffffffff168186015260408083015190860152606080830151908601526080918201519185019190915260a090930192909101906001016154ab565b50505092915050565b600080600061022080858703121561552457600080fd5b843593506020850135925085818601111561553e57600080fd5b506040840190509250925092565b6102808101818360005b600a811015615504578151805184526020908101518185015260409093019290910190600101615556565b60006020828403121561559357600080fd5b813573ffffffffffffffffffffffffffffffffffffffff81168114614ee357600080fd5b6000602082840312156155c957600080fd5b5035919050565b7f4e487b7100000000000000000000000000000000000000000000000000000000600052603260045260246000fd5b7f4e487b7100000000000000000000000000000000000000000000000000000000600052601160045260246000fd5b60006000198203615641576156416155ff565b5060010190565b600067ffffffffffffffff80831681851680830382111561566b5761566b6155ff565b01949350505050565b600067ffffffffffffffff8083168185168183048111821515161561569b5761569b6155ff565b02949350505050565b8183528181602085013750600060208284010152600060207fffffffffffffffffffffffffffffffffffffffffffffffffffffffffffffffe0601f840116840101905092915050565b8060005b60048110156157105781518452602093840193909101906001016156f1565b50505050565b8060005b600481101561571057815161ffff1684526020938401939091019060010161571a565b806000805b6064811015615809578251805115158652602080820151818801855b600481101561577b5782518252918301919083019060010161575e565b505050604082015160a081818a01526060840151915060c06157a1818b018460ff169052565b6080850151925060e06157b6818c01856156ed565b8286015163ffffffff166101608c01528186015193506157da6101808c0185615716565b949094015160ff81166102008b015293506157f3915050565b6102209690960195939093019250600101615742565b5050505050565b600061d4e0808352615825818401888a6156a4565b91505084602083015261583b604083018561573d565b8261d4c08301529695505050505050565b600061140080838503121561586057600080fd5b83601f84011261586f57600080fd5b61587761522e565b90830190808583111561588957600080fd5b845b838110156159085760a081880312156158a45760008081fd5b6158ac6151c4565b81516158b7816152b7565b815260208281015167ffffffffffffffff811681146158d65760008081fd5b82820152604083810151908301526060808401519083015260808084015190830152908452929092019160a00161588b565b5095945050505050565b60006020828403121561592457600080fd5b5051919050565b600067ffffffffffffffff8381169083168181101561594c5761594c6155ff565b039392505050565b600061d4c080835261596981840187896156a4565b91505083602083015261597f604083018461573d565b95945050505050565b600060ff821660ff84168060ff038211156159a5576159a56155ff565b019392505050565b600082198211156159c0576159c06155ff565b500190565b7f4e487b7100000000000000000000000000000000000000000000000000000000600052601260045260246000fd5b600082821015615a0657615a066155ff565b500390565b600081615a1a57615a1a6155ff565b506000190190565b600082615a3157615a316159c5565b500490565b600082615a4557615a456159c5565b500690565b6000816000190483118215151615615a6457615a646155ff565b500290565b600060ff821660ff84168160ff0481118215151615615a8a57615a8a6155ff565b029392505050565b600060ff821660ff8103615aa857615aa86155ff565b6001019291505056fea2646970667358221220ec6b13d06a65ff66a134dc07f2ec76f15e10c7cfe0fd0e3788cde8b39c06772264736f6c634300080f0033",
  "linkReferences": {},
  "deployedLinkReferences": {}
}